{
  "_format": "hh-sol-artifact-1",
  "contractName": "PollaBets",
  "sourceName": "contracts/PollaBets.sol",
  "abi": [
    {
      "inputs": [
        {
          "internalType": "address",
          "name": "_usdc",
          "type": "address"
        },
        {
          "internalType": "address",
          "name": "_treasury",
          "type": "address"
        }
      ],
      "stateMutability": "nonpayable",
      "type": "constructor"
    },
    {
      "inputs": [
        {
          "internalType": "address",
          "name": "owner",
          "type": "address"
        }
      ],
      "name": "OwnableInvalidOwner",
      "type": "error"
    },
    {
      "inputs": [
        {
          "internalType": "address",
          "name": "account",
          "type": "address"
        }
      ],
      "name": "OwnableUnauthorizedAccount",
      "type": "error"
    },
    {
      "inputs": [],
      "name": "ReentrancyGuardReentrantCall",
      "type": "error"
    },
    {
      "inputs": [
        {
          "internalType": "address",
          "name": "token",
          "type": "address"
        }
      ],
      "name": "SafeERC20FailedOperation",
      "type": "error"
    },
    {
      "anonymous": false,
      "inputs": [
        {
          "indexed": true,
          "internalType": "bytes32",
          "name": "marketId",
          "type": "bytes32"
        },
        {
          "indexed": true,
          "internalType": "address",
          "name": "user",
          "type": "address"
        },
        {
          "indexed": false,
          "internalType": "uint8",
          "name": "outcome",
          "type": "uint8"
        },
        {
          "indexed": false,
          "internalType": "uint256",
          "name": "amount",
          "type": "uint256"
        }
      ],
      "name": "BetPlaced",
      "type": "event"
    },
    {
      "anonymous": false,
      "inputs": [
        {
          "indexed": true,
          "internalType": "bytes32",
          "name": "marketId",
          "type": "bytes32"
        },
        {
          "indexed": true,
          "internalType": "address",
          "name": "user",
          "type": "address"
        },
        {
          "indexed": false,
          "internalType": "uint256",
          "name": "amount",
          "type": "uint256"
        }
      ],
      "name": "Claimed",
      "type": "event"
    },
    {
      "anonymous": false,
      "inputs": [
        {
          "indexed": true,
          "internalType": "bytes32",
          "name": "marketId",
          "type": "bytes32"
        }
      ],
      "name": "MarketCancelled",
      "type": "event"
    },
    {
      "anonymous": false,
      "inputs": [
        {
          "indexed": true,
          "internalType": "bytes32",
          "name": "marketId",
          "type": "bytes32"
        },
        {
          "indexed": false,
          "internalType": "uint8",
          "name": "numOutcomes",
          "type": "uint8"
        },
        {
          "indexed": false,
          "internalType": "uint256",
          "name": "closingTime",
          "type": "uint256"
        }
      ],
      "name": "MarketCreated",
      "type": "event"
    },
    {
      "anonymous": false,
      "inputs": [
        {
          "indexed": true,
          "internalType": "bytes32",
          "name": "marketId",
          "type": "bytes32"
        },
        {
          "indexed": false,
          "internalType": "uint8",
          "name": "winningOutcome",
          "type": "uint8"
        }
      ],
      "name": "MarketResolved",
      "type": "event"
    },
    {
      "anonymous": false,
      "inputs": [
        {
          "indexed": true,
          "internalType": "address",
          "name": "previousOwner",
          "type": "address"
        },
        {
          "indexed": true,
          "internalType": "address",
          "name": "newOwner",
          "type": "address"
        }
      ],
      "name": "OwnershipTransferred",
      "type": "event"
    },
    {
      "anonymous": false,
      "inputs": [
        {
          "indexed": true,
          "internalType": "bytes32",
          "name": "marketId",
          "type": "bytes32"
        },
        {
          "indexed": true,
          "internalType": "address",
          "name": "user",
          "type": "address"
        },
        {
          "indexed": false,
          "internalType": "uint256",
          "name": "amount",
          "type": "uint256"
        }
      ],
      "name": "Refunded",
      "type": "event"
    },
    {
      "inputs": [],
      "name": "BPS_DENOMINATOR",
      "outputs": [
        {
          "internalType": "uint256",
          "name": "",
          "type": "uint256"
        }
      ],
      "stateMutability": "view",
      "type": "function"
    },
    {
      "inputs": [],
      "name": "FEE_BPS",
      "outputs": [
        {
          "internalType": "uint256",
          "name": "",
          "type": "uint256"
        }
      ],
      "stateMutability": "view",
      "type": "function"
    },
    {
      "inputs": [
        {
          "internalType": "bytes32",
          "name": "marketId",
          "type": "bytes32"
        }
      ],
      "name": "cancelMarket",
      "outputs": [],
      "stateMutability": "nonpayable",
      "type": "function"
    },
    {
      "inputs": [
        {
          "internalType": "bytes32",
          "name": "marketId",
          "type": "bytes32"
        }
      ],
      "name": "claim",
      "outputs": [],
      "stateMutability": "nonpayable",
      "type": "function"
    },
    {
      "inputs": [
        {
          "internalType": "bytes32",
          "name": "marketId",
          "type": "bytes32"
        }
      ],
      "name": "claimRefund",
      "outputs": [],
      "stateMutability": "nonpayable",
      "type": "function"
    },
    {
      "inputs": [
        {
          "internalType": "bytes32",
          "name": "",
          "type": "bytes32"
        },
        {
          "internalType": "address",
          "name": "",
          "type": "address"
        }
      ],
      "name": "claimed",
      "outputs": [
        {
          "internalType": "bool",
          "name": "",
          "type": "bool"
        }
      ],
      "stateMutability": "view",
      "type": "function"
    },
    {
      "inputs": [
        {
          "internalType": "bytes32",
          "name": "matchId",
          "type": "bytes32"
        },
        {
          "internalType": "uint8",
          "name": "numOutcomes",
          "type": "uint8"
        },
        {
          "internalType": "uint256",
          "name": "closingTime",
          "type": "uint256"
        }
      ],
      "name": "createMarket",
      "outputs": [],
      "stateMutability": "nonpayable",
      "type": "function"
    },
    {
      "inputs": [
        {
          "internalType": "bytes32",
          "name": "marketId",
          "type": "bytes32"
        }
      ],
      "name": "getMarket",
      "outputs": [
        {
          "internalType": "uint8",
          "name": "numOutcomes",
          "type": "uint8"
        },
        {
          "internalType": "uint256",
          "name": "closingTime",
          "type": "uint256"
        },
        {
          "internalType": "bool",
          "name": "resolved",
          "type": "bool"
        },
        {
          "internalType": "bool",
          "name": "cancelled",
          "type": "bool"
        },
        {
          "internalType": "uint8",
          "name": "winningOutcome",
          "type": "uint8"
        },
        {
          "internalType": "uint256",
          "name": "totalPool",
          "type": "uint256"
        },
        {
          "internalType": "uint256[]",
          "name": "pools",
          "type": "uint256[]"
        }
      ],
      "stateMutability": "view",
      "type": "function"
    },
    {
      "inputs": [
        {
          "internalType": "bytes32",
          "name": "marketId",
          "type": "bytes32"
        }
      ],
      "name": "getOdds",
      "outputs": [
        {
          "internalType": "uint256[]",
          "name": "odds",
          "type": "uint256[]"
        }
      ],
      "stateMutability": "view",
      "type": "function"
    },
    {
      "inputs": [
        {
          "internalType": "bytes32",
          "name": "marketId",
          "type": "bytes32"
        },
        {
          "internalType": "address",
          "name": "user",
          "type": "address"
        }
      ],
      "name": "getUserBet",
      "outputs": [
        {
          "internalType": "uint256[]",
          "name": "bets",
          "type": "uint256[]"
        }
      ],
      "stateMutability": "view",
      "type": "function"
    },
    {
      "inputs": [
        {
          "internalType": "bytes32",
          "name": "",
          "type": "bytes32"
        }
      ],
      "name": "markets",
      "outputs": [
        {
          "internalType": "uint8",
          "name": "numOutcomes",
          "type": "uint8"
        },
        {
          "internalType": "uint256",
          "name": "closingTime",
          "type": "uint256"
        },
        {
          "internalType": "bool",
          "name": "resolved",
          "type": "bool"
        },
        {
          "internalType": "bool",
          "name": "cancelled",
          "type": "bool"
        },
        {
          "internalType": "uint8",
          "name": "winningOutcome",
          "type": "uint8"
        },
        {
          "internalType": "uint256",
          "name": "totalPool",
          "type": "uint256"
        }
      ],
      "stateMutability": "view",
      "type": "function"
    },
    {
      "inputs": [],
      "name": "owner",
      "outputs": [
        {
          "internalType": "address",
          "name": "",
          "type": "address"
        }
      ],
      "stateMutability": "view",
      "type": "function"
    },
    {
      "inputs": [
        {
          "internalType": "bytes32",
          "name": "marketId",
          "type": "bytes32"
        },
        {
          "internalType": "uint8",
          "name": "outcome",
          "type": "uint8"
        },
        {
          "internalType": "uint256",
          "name": "amount",
          "type": "uint256"
        }
      ],
      "name": "placeBet",
      "outputs": [],
      "stateMutability": "nonpayable",
      "type": "function"
    },
    {
      "inputs": [
        {
          "internalType": "bytes32",
          "name": "",
          "type": "bytes32"
        },
        {
          "internalType": "uint8",
          "name": "",
          "type": "uint8"
        }
      ],
      "name": "poolPerOutcome",
      "outputs": [
        {
          "internalType": "uint256",
          "name": "",
          "type": "uint256"
        }
      ],
      "stateMutability": "view",
      "type": "function"
    },
    {
      "inputs": [],
      "name": "renounceOwnership",
      "outputs": [],
      "stateMutability": "nonpayable",
      "type": "function"
    },
    {
      "inputs": [
        {
          "internalType": "bytes32",
          "name": "marketId",
          "type": "bytes32"
        },
        {
          "internalType": "uint8",
          "name": "winningOutcome",
          "type": "uint8"
        }
      ],
      "name": "resolve",
      "outputs": [],
      "stateMutability": "nonpayable",
      "type": "function"
    },
    {
      "inputs": [
        {
          "internalType": "address",
          "name": "_treasury",
          "type": "address"
        }
      ],
      "name": "setTreasury",
      "outputs": [],
      "stateMutability": "nonpayable",
      "type": "function"
    },
    {
      "inputs": [
        {
          "internalType": "address",
          "name": "newOwner",
          "type": "address"
        }
      ],
      "name": "transferOwnership",
      "outputs": [],
      "stateMutability": "nonpayable",
      "type": "function"
    },
    {
      "inputs": [],
      "name": "treasury",
      "outputs": [
        {
          "internalType": "address",
          "name": "",
          "type": "address"
        }
      ],
      "stateMutability": "view",
      "type": "function"
    },
    {
      "inputs": [],
      "name": "usdc",
      "outputs": [
        {
          "internalType": "contract IERC20",
          "name": "",
          "type": "address"
        }
      ],
      "stateMutability": "view",
      "type": "function"
    },
    {
      "inputs": [
        {
          "internalType": "bytes32",
          "name": "",
          "type": "bytes32"
        },
        {
          "internalType": "address",
          "name": "",
          "type": "address"
        },
        {
          "internalType": "uint8",
          "name": "",
          "type": "uint8"
        }
      ],
      "name": "userBets",
      "outputs": [
        {
          "internalType": "uint256",
          "name": "",
          "type": "uint256"
        }
      ],
      "stateMutability": "view",
      "type": "function"
    },
    {
      "inputs": [
        {
          "internalType": "bytes32",
          "name": "",
          "type": "bytes32"
        },
        {
          "internalType": "address",
          "name": "",
          "type": "address"
        }
      ],
      "name": "userTotalBet",
      "outputs": [
        {
          "internalType": "uint256",
          "name": "",
          "type": "uint256"
        }
      ],
      "stateMutability": "view",
      "type": "function"
    }
  ],
  "bytecode": "0x60a06040523480156200001157600080fd5b5060405162003070380380620030708339818101604052810190620000379190620002c8565b33600073ffffffffffffffffffffffffffffffffffffffff168173ffffffffffffffffffffffffffffffffffffffff1603620000ad5760006040517f1e4fbdf7000000000000000000000000000000000000000000000000000000008152600401620000a4919062000320565b60405180910390fd5b620000be816200016560201b60201c565b506001620000e1620000d56200022960201b60201c565b6200025460201b60201c565b600001819055508173ffffffffffffffffffffffffffffffffffffffff1660808173ffffffffffffffffffffffffffffffffffffffff168152505080600160006101000a81548173ffffffffffffffffffffffffffffffffffffffff021916908373ffffffffffffffffffffffffffffffffffffffff16021790555050506200033d565b60008060009054906101000a900473ffffffffffffffffffffffffffffffffffffffff169050816000806101000a81548173ffffffffffffffffffffffffffffffffffffffff021916908373ffffffffffffffffffffffffffffffffffffffff1602179055508173ffffffffffffffffffffffffffffffffffffffff168173ffffffffffffffffffffffffffffffffffffffff167f8be0079c531659141344cd1fd0a4f28419497f9722a3daafe3b4186f6b6457e060405160405180910390a35050565b60007f9b779b17422d0df92223018b32b4d1fa46e071723d6817e2486d003becc55f0060001b905090565b6000819050919050565b600080fd5b600073ffffffffffffffffffffffffffffffffffffffff82169050919050565b6000620002908262000263565b9050919050565b620002a28162000283565b8114620002ae57600080fd5b50565b600081519050620002c28162000297565b92915050565b60008060408385031215620002e257620002e16200025e565b5b6000620002f285828601620002b1565b92505060206200030585828601620002b1565b9150509250929050565b6200031a8162000283565b82525050565b60006020820190506200033760008301846200030f565b92915050565b608051612cfb620003756000396000818161061f01528181610a3601528181610dd0015281816112c501526113100152612cfb6000f3fe608060405234801561001057600080fd5b50600436106101425760003560e01c806391c14e83116100b8578063c3c95c7b1161007c578063c3c95c7b14610366578063dfcae6221461039c578063e1a45218146103cc578063e8ceea2f146103ea578063f0f442601461041a578063f2fde38b1461043657610142565b806391c14e83146102c4578063bd66528a146102f4578063bdb8328914610310578063bf333f2c1461032c578063c1caceb01461034a57610142565b8063715018a61161010a578063715018a6146101eb57806371de2ffc146101f557806375107b0c146102115780637564912b146102415780638da5cb5b1461027657806391b224121461029457610142565b80630bd122091461014757806328ee2936146101635780633e413bee1461017f57806344e393031461019d57806361d027b3146101cd575b600080fd5b610161600480360381019061015c9190611f4b565b610452565b005b61017d60048036038101906101789190611f9e565b610804565b005b610187610a34565b604051610194919061205d565b60405180910390f35b6101b760048036038101906101b291906120b6565b610a58565b6040516101c491906121b4565b60405180910390f35b6101d5610b80565b6040516101e291906121e5565b60405180910390f35b6101f3610ba6565b005b61020f600480360381019061020a9190612200565b610bba565b005b61022b6004803603810190610226919061222d565b610e70565b604051610238919061228f565b60405180910390f35b61025b60048036038101906102569190612200565b610ea2565b60405161026d969594939291906122d4565b60405180910390f35b61027e610f12565b60405161028b91906121e5565b60405180910390f35b6102ae60048036038101906102a991906120b6565b610f3b565b6040516102bb919061228f565b60405180910390f35b6102de60048036038101906102d99190611f9e565b610f60565b6040516102eb919061228f565b60405180910390f35b61030e60048036038101906103099190612200565b610f85565b005b61032a60048036038101906103259190612200565b6113b4565b005b6103346114e5565b604051610341919061228f565b60405180910390f35b610364600480360381019061035f9190611f4b565b6114eb565b005b610380600480360381019061037b9190612200565b611721565b6040516103939796959493929190612335565b60405180910390f35b6103b660048036038101906103b191906120b6565b611889565b6040516103c391906123ab565b60405180910390f35b6103d46118b8565b6040516103e1919061228f565b60405180910390f35b61040460048036038101906103ff9190612200565b6118be565b60405161041191906121b4565b60405180910390f35b610434600480360381019061042f91906123c6565b611a1d565b005b610450600480360381019061044b91906123c6565b611a69565b005b61045a611aef565b600060026000858152602001908152602001600020905060008160000160009054906101000a900460ff1660ff16116104c8576040517f08c379a00000000000000000000000000000000000000000000000000000000081526004016104bf90612450565b60405180910390fd5b8060020160009054906101000a900460ff161580156104f657508060020160019054906101000a900460ff16155b610535576040517f08c379a000000000000000000000000000000000000000000000000000000000815260040161052c906124bc565b60405180910390fd5b8060010154421061057b576040517f08c379a000000000000000000000000000000000000000000000000000000000815260040161057290612528565b60405180910390fd5b8060000160009054906101000a900460ff1660ff168360ff16106105d4576040517f08c379a00000000000000000000000000000000000000000000000000000000081526004016105cb90612594565b60405180910390fd5b60008211610617576040517f08c379a000000000000000000000000000000000000000000000000000000000815260040161060e90612600565b60405180910390fd5b6106643330847f000000000000000000000000000000000000000000000000000000000000000073ffffffffffffffffffffffffffffffffffffffff16611b12909392919063ffffffff16565b81816003016000828254610678919061264f565b92505081905550816003600086815260200190815260200160002060008560ff1660ff16815260200190815260200160002060008282546106b9919061264f565b92505081905550816004600086815260200190815260200160002060003373ffffffffffffffffffffffffffffffffffffffff1673ffffffffffffffffffffffffffffffffffffffff16815260200190815260200160002060008560ff1660ff1681526020019081526020016000206000828254610737919061264f565b92505081905550816005600086815260200190815260200160002060003373ffffffffffffffffffffffffffffffffffffffff1673ffffffffffffffffffffffffffffffffffffffff168152602001908152602001600020600082825461079e919061264f565b925050819055503373ffffffffffffffffffffffffffffffffffffffff16847f22f4c9bb73a93d9507392476fa412371d3d5e19e74d8951567b76a7483dca1a085856040516107ee929190612683565b60405180910390a3506107ff611b67565b505050565b61080c611b82565b600060026000848152602001908152602001600020905060008160000160009054906101000a900460ff1660ff161161087a576040517f08c379a000000000000000000000000000000000000000000000000000000000815260040161087190612450565b60405180910390fd5b8060020160009054906101000a900460ff161580156108a857508060020160019054906101000a900460ff16155b6108e7576040517f08c379a00000000000000000000000000000000000000000000000000000000081526004016108de906126f8565b60405180910390fd5b8060000160009054906101000a900460ff1660ff168260ff1610610940576040517f08c379a000000000000000000000000000000000000000000000000000000000815260040161093790612594565b60405180910390fd5b60018160020160006101000a81548160ff021916908315150217905550818160020160026101000a81548160ff021916908360ff16021790555060006003600085815260200190815260200160002060008460ff1660ff16815260200190815260200160002054036109f75760018160020160016101000a81548160ff021916908315150217905550827f22ad0fb1e02d1db96e8800dac4e4b23821afaf9e1ca54d2093e7bc7fb8732b5a60405160405180910390a25b827ff34984473148051bc1bdf1be6ecc462d7b228d591058a8a27977b84770b738b983604051610a279190612718565b60405180910390a2505050565b7f000000000000000000000000000000000000000000000000000000000000000081565b606060006002600085815260200190815260200160002060000160009054906101000a900460ff1690508060ff1667ffffffffffffffff811115610a9f57610a9e612733565b5b604051908082528060200260200182016040528015610acd5781602001602082028036833780820191505090505b50915060005b8160ff168160ff161015610b78576004600086815260200190815260200160002060008573ffffffffffffffffffffffffffffffffffffffff1673ffffffffffffffffffffffffffffffffffffffff16815260200190815260200160002060008260ff1660ff16815260200190815260200160002054838260ff1681518110610b5f57610b5e612762565b5b6020026020010181815250508080600101915050610ad3565b505092915050565b600160009054906101000a900473ffffffffffffffffffffffffffffffffffffffff1681565b610bae611b82565b610bb86000611c09565b565b610bc2611aef565b60006002600083815260200190815260200160002090508060020160019054906101000a900460ff16610c2a576040517f08c379a0000000000000000000000000000000000000000000000000000000008152600401610c21906127dd565b60405180910390fd5b6006600083815260200190815260200160002060003373ffffffffffffffffffffffffffffffffffffffff1673ffffffffffffffffffffffffffffffffffffffff16815260200190815260200160002060009054906101000a900460ff1615610cc8576040517f08c379a0000000000000000000000000000000000000000000000000000000008152600401610cbf90612849565b60405180910390fd5b60006005600084815260200190815260200160002060003373ffffffffffffffffffffffffffffffffffffffff1673ffffffffffffffffffffffffffffffffffffffff16815260200190815260200160002054905060008111610d60576040517f08c379a0000000000000000000000000000000000000000000000000000000008152600401610d57906128b5565b60405180910390fd5b60016006600085815260200190815260200160002060003373ffffffffffffffffffffffffffffffffffffffff1673ffffffffffffffffffffffffffffffffffffffff16815260200190815260200160002060006101000a81548160ff021916908315150217905550610e1433827f000000000000000000000000000000000000000000000000000000000000000073ffffffffffffffffffffffffffffffffffffffff16611ccd9092919063ffffffff16565b3373ffffffffffffffffffffffffffffffffffffffff16837ff552ca82e113ac3c539c3d617f29fcd19c172a0c75dad017555c9e109f7fe18383604051610e5b919061228f565b60405180910390a35050610e6d611b67565b50565b600460205282600052604060002060205281600052604060002060205280600052604060002060009250925050505481565b60026020528060005260406000206000915090508060000160009054906101000a900460ff16908060010154908060020160009054906101000a900460ff16908060020160019054906101000a900460ff16908060020160029054906101000a900460ff16908060030154905086565b60008060009054906101000a900473ffffffffffffffffffffffffffffffffffffffff16905090565b6005602052816000526040600020602052806000526040600020600091509150505481565b6003602052816000526040600020602052806000526040600020600091509150505481565b610f8d611aef565b60006002600083815260200190815260200160002090508060020160009054906101000a900460ff16610ff5576040517f08c379a0000000000000000000000000000000000000000000000000000000008152600401610fec90612921565b60405180910390fd5b8060020160019054906101000a900460ff1615611047576040517f08c379a000000000000000000000000000000000000000000000000000000000815260040161103e906129b3565b60405180910390fd5b6006600083815260200190815260200160002060003373ffffffffffffffffffffffffffffffffffffffff1673ffffffffffffffffffffffffffffffffffffffff16815260200190815260200160002060009054906101000a900460ff16156110e5576040517f08c379a00000000000000000000000000000000000000000000000000000000081526004016110dc90612a1f565b60405180910390fd5b60006004600084815260200190815260200160002060003373ffffffffffffffffffffffffffffffffffffffff1673ffffffffffffffffffffffffffffffffffffffff16815260200190815260200160002060008360020160029054906101000a900460ff1660ff1660ff168152602001908152602001600020549050600081116111a5576040517f08c379a000000000000000000000000000000000000000000000000000000000815260040161119c90612a8b565b60405180910390fd5b60016006600085815260200190815260200160002060003373ffffffffffffffffffffffffffffffffffffffff1673ffffffffffffffffffffffffffffffffffffffff16815260200190815260200160002060006101000a81548160ff02191690831515021790555060006003600085815260200190815260200160002060008460020160029054906101000a900460ff1660ff1660ff1681526020019081526020016000205490506000818460030154846112619190612aab565b61126b9190612b1c565b905060006127106101f4836112809190612aab565b61128a9190612b1c565b90506000818361129a9190612b4d565b9050611309600160009054906101000a900473ffffffffffffffffffffffffffffffffffffffff16837f000000000000000000000000000000000000000000000000000000000000000073ffffffffffffffffffffffffffffffffffffffff16611ccd9092919063ffffffff16565b61135433827f000000000000000000000000000000000000000000000000000000000000000073ffffffffffffffffffffffffffffffffffffffff16611ccd9092919063ffffffff16565b3373ffffffffffffffffffffffffffffffffffffffff16877f0508a8b4117d9a7b3d8f5895f6413e61b4f9a2df35afbfb41e78d0ecfff1843f8360405161139b919061228f565b60405180910390a35050505050506113b1611b67565b50565b6113bc611b82565b600060026000838152602001908152602001600020905060008160000160009054906101000a900460ff1660ff161161142a576040517f08c379a000000000000000000000000000000000000000000000000000000000815260040161142190612450565b60405180910390fd5b8060020160009054906101000a900460ff1615801561145857508060020160019054906101000a900460ff16155b611497576040517f08c379a000000000000000000000000000000000000000000000000000000000815260040161148e906126f8565b60405180910390fd5b60018160020160016101000a81548160ff021916908315150217905550817f22ad0fb1e02d1db96e8800dac4e4b23821afaf9e1ca54d2093e7bc7fb8732b5a60405160405180910390a25050565b6101f481565b6114f3611b82565b600083905060006002600083815260200190815260200160002060000160009054906101000a900460ff1660ff1614611561576040517f08c379a000000000000000000000000000000000000000000000000000000000815260040161155890612bcd565b60405180910390fd5b60028360ff1610158015611579575060038360ff1611155b6115b8576040517f08c379a00000000000000000000000000000000000000000000000000000000081526004016115af90612c39565b60405180910390fd5b4282116115fa576040517f08c379a00000000000000000000000000000000000000000000000000000000081526004016115f190612ca5565b60405180910390fd5b6040518060c001604052808460ff168152602001838152602001600015158152602001600015158152602001600060ff16815260200160008152506002600083815260200190815260200160002060008201518160000160006101000a81548160ff021916908360ff1602179055506020820151816001015560408201518160020160006101000a81548160ff02191690831515021790555060608201518160020160016101000a81548160ff02191690831515021790555060808201518160020160026101000a81548160ff021916908360ff16021790555060a08201518160030155905050807f2ad477767f2a1eec9e5d90cd6f88ed145ca4c8771f5325865ecff6c2966e45e58484604051611713929190612683565b60405180910390a250505050565b60008060008060008060606000600260008a815260200190815260200160002090508060000160009054906101000a900460ff1660ff1667ffffffffffffffff81111561177157611770612733565b5b60405190808252806020026020018201604052801561179f5781602001602082028036833780820191505090505b50915060005b8160000160009054906101000a900460ff1660ff168160ff16101561181e57600360008b815260200190815260200160002060008260ff1660ff16815260200190815260200160002054838260ff168151811061180557611804612762565b5b60200260200101818152505080806001019150506117a5565b508060000160009054906101000a900460ff1681600101548260020160009054906101000a900460ff168360020160019054906101000a900460ff168460020160029054906101000a900460ff16856003015497509750975097509750975050919395979092949650565b60066020528160005260406000206020528060005260406000206000915091509054906101000a900460ff1681565b61271081565b606060006002600084815260200190815260200160002090508060000160009054906101000a900460ff1660ff1667ffffffffffffffff81111561190557611904612733565b5b6040519080825280602002602001820160405280156119335781602001602082028036833780820191505090505b50915060005b8160000160009054906101000a900460ff1660ff168160ff161015611a165760006003600086815260200190815260200160002060008360ff1660ff168152602001908152602001600020549050600081148061199a575060008360030154145b156119c8576000848360ff16815181106119b7576119b6612762565b5b602002602001018181525050611a08565b8061271084600301546119db9190612aab565b6119e59190612b1c565b848360ff16815181106119fb576119fa612762565b5b6020026020010181815250505b508080600101915050611939565b5050919050565b611a25611b82565b80600160006101000a81548173ffffffffffffffffffffffffffffffffffffffff021916908373ffffffffffffffffffffffffffffffffffffffff16021790555050565b611a71611b82565b600073ffffffffffffffffffffffffffffffffffffffff168173ffffffffffffffffffffffffffffffffffffffff1603611ae35760006040517f1e4fbdf7000000000000000000000000000000000000000000000000000000008152600401611ada91906121e5565b60405180910390fd5b611aec81611c09565b50565b611af7611d20565b6002611b09611b04611d61565b611d8c565b60000181905550565b611b20848484846001611d96565b611b6157836040517f5274afe7000000000000000000000000000000000000000000000000000000008152600401611b5891906121e5565b60405180910390fd5b50505050565b6001611b79611b74611d61565b611d8c565b60000181905550565b611b8a611e11565b73ffffffffffffffffffffffffffffffffffffffff16611ba8610f12565b73ffffffffffffffffffffffffffffffffffffffff1614611c0757611bcb611e11565b6040517f118cdaa7000000000000000000000000000000000000000000000000000000008152600401611bfe91906121e5565b60405180910390fd5b565b60008060009054906101000a900473ffffffffffffffffffffffffffffffffffffffff169050816000806101000a81548173ffffffffffffffffffffffffffffffffffffffff021916908373ffffffffffffffffffffffffffffffffffffffff1602179055508173ffffffffffffffffffffffffffffffffffffffff168173ffffffffffffffffffffffffffffffffffffffff167f8be0079c531659141344cd1fd0a4f28419497f9722a3daafe3b4186f6b6457e060405160405180910390a35050565b611cda8383836001611e19565b611d1b57826040517f5274afe7000000000000000000000000000000000000000000000000000000008152600401611d1291906121e5565b60405180910390fd5b505050565b611d28611e83565b15611d5f576040517f3ee5aeb500000000000000000000000000000000000000000000000000000000815260040160405180910390fd5b565b60007f9b779b17422d0df92223018b32b4d1fa46e071723d6817e2486d003becc55f0060001b905090565b6000819050919050565b6000806323b872dd60e01b90506040518160005260001960601c871660045260001960601c8616602452846044526020600060646000808c5af192506001600051148316611dfd578383151615611df0573d6000823e3d81fd5b6000883b113d1516831692505b806040526000606052505095945050505050565b600033905090565b60008063a9059cbb60e01b90506040518160005260001960601c8616600452846024526020600060446000808b5af192506001600051148316611e75578383151615611e68573d6000823e3d81fd5b6000873b113d1516831692505b806040525050949350505050565b60006002611e97611e92611d61565b611d8c565b6000015414905090565b600080fd5b6000819050919050565b611eb981611ea6565b8114611ec457600080fd5b50565b600081359050611ed681611eb0565b92915050565b600060ff82169050919050565b611ef281611edc565b8114611efd57600080fd5b50565b600081359050611f0f81611ee9565b92915050565b6000819050919050565b611f2881611f15565b8114611f3357600080fd5b50565b600081359050611f4581611f1f565b92915050565b600080600060608486031215611f6457611f63611ea1565b5b6000611f7286828701611ec7565b9350506020611f8386828701611f00565b9250506040611f9486828701611f36565b9150509250925092565b60008060408385031215611fb557611fb4611ea1565b5b6000611fc385828601611ec7565b9250506020611fd485828601611f00565b9150509250929050565b600073ffffffffffffffffffffffffffffffffffffffff82169050919050565b6000819050919050565b600061202361201e61201984611fde565b611ffe565b611fde565b9050919050565b600061203582612008565b9050919050565b60006120478261202a565b9050919050565b6120578161203c565b82525050565b6000602082019050612072600083018461204e565b92915050565b600061208382611fde565b9050919050565b61209381612078565b811461209e57600080fd5b50565b6000813590506120b08161208a565b92915050565b600080604083850312156120cd576120cc611ea1565b5b60006120db85828601611ec7565b92505060206120ec858286016120a1565b9150509250929050565b600081519050919050565b600082825260208201905092915050565b6000819050602082019050919050565b61212b81611f15565b82525050565b600061213d8383612122565b60208301905092915050565b6000602082019050919050565b6000612161826120f6565b61216b8185612101565b935061217683612112565b8060005b838110156121a757815161218e8882612131565b975061219983612149565b92505060018101905061217a565b5085935050505092915050565b600060208201905081810360008301526121ce8184612156565b905092915050565b6121df81612078565b82525050565b60006020820190506121fa60008301846121d6565b92915050565b60006020828403121561221657612215611ea1565b5b600061222484828501611ec7565b91505092915050565b60008060006060848603121561224657612245611ea1565b5b600061225486828701611ec7565b9350506020612265868287016120a1565b925050604061227686828701611f00565b9150509250925092565b61228981611f15565b82525050565b60006020820190506122a46000830184612280565b92915050565b6122b381611edc565b82525050565b60008115159050919050565b6122ce816122b9565b82525050565b600060c0820190506122e960008301896122aa565b6122f66020830188612280565b61230360408301876122c5565b61231060608301866122c5565b61231d60808301856122aa565b61232a60a0830184612280565b979650505050505050565b600060e08201905061234a600083018a6122aa565b6123576020830189612280565b61236460408301886122c5565b61237160608301876122c5565b61237e60808301866122aa565b61238b60a0830185612280565b81810360c083015261239d8184612156565b905098975050505050505050565b60006020820190506123c060008301846122c5565b92915050565b6000602082840312156123dc576123db611ea1565b5b60006123ea848285016120a1565b91505092915050565b600082825260208201905092915050565b7f4d61726b6574206e6f7420666f756e6400000000000000000000000000000000600082015250565b600061243a6010836123f3565b915061244582612404565b602082019050919050565b600060208201905081810360008301526124698161242d565b9050919050565b7f4d61726b65742066696e616c697a656400000000000000000000000000000000600082015250565b60006124a66010836123f3565b91506124b182612470565b602082019050919050565b600060208201905081810360008301526124d581612499565b9050919050565b7f4d61726b657420636c6f73656400000000000000000000000000000000000000600082015250565b6000612512600d836123f3565b915061251d826124dc565b602082019050919050565b6000602082019050818103600083015261254181612505565b9050919050565b7f496e76616c6964206f7574636f6d650000000000000000000000000000000000600082015250565b600061257e600f836123f3565b915061258982612548565b602082019050919050565b600060208201905081810360008301526125ad81612571565b9050919050565b7f5a65726f20616d6f756e74000000000000000000000000000000000000000000600082015250565b60006125ea600b836123f3565b91506125f5826125b4565b602082019050919050565b60006020820190508181036000830152612619816125dd565b9050919050565b7f4e487b7100000000000000000000000000000000000000000000000000000000600052601160045260246000fd5b600061265a82611f15565b915061266583611f15565b925082820190508082111561267d5761267c612620565b5b92915050565b600060408201905061269860008301856122aa565b6126a56020830184612280565b9392505050565b7f416c72656164792066696e616c697a6564000000000000000000000000000000600082015250565b60006126e26011836123f3565b91506126ed826126ac565b602082019050919050565b60006020820190508181036000830152612711816126d5565b9050919050565b600060208201905061272d60008301846122aa565b92915050565b7f4e487b7100000000000000000000000000000000000000000000000000000000600052604160045260246000fd5b7f4e487b7100000000000000000000000000000000000000000000000000000000600052603260045260246000fd5b7f4e6f742063616e63656c6c656400000000000000000000000000000000000000600082015250565b60006127c7600d836123f3565b91506127d282612791565b602082019050919050565b600060208201905081810360008301526127f6816127ba565b9050919050565b7f416c726561647920726566756e64656400000000000000000000000000000000600082015250565b60006128336010836123f3565b915061283e826127fd565b602082019050919050565b6000602082019050818103600083015261286281612826565b9050919050565b7f4e6f206265747300000000000000000000000000000000000000000000000000600082015250565b600061289f6007836123f3565b91506128aa82612869565b602082019050919050565b600060208201905081810360008301526128ce81612892565b9050919050565b7f4e6f74207265736f6c7665640000000000000000000000000000000000000000600082015250565b600061290b600c836123f3565b9150612916826128d5565b602082019050919050565b6000602082019050818103600083015261293a816128fe565b9050919050565b7f4d61726b65742063616e63656c6c65642c2075736520636c61696d526566756e60008201527f6400000000000000000000000000000000000000000000000000000000000000602082015250565b600061299d6021836123f3565b91506129a882612941565b604082019050919050565b600060208201905081810360008301526129cc81612990565b9050919050565b7f416c726561647920636c61696d65640000000000000000000000000000000000600082015250565b6000612a09600f836123f3565b9150612a14826129d3565b602082019050919050565b60006020820190508181036000830152612a38816129fc565b9050919050565b7f4e6f2077696e6e696e6720626574000000000000000000000000000000000000600082015250565b6000612a75600e836123f3565b9150612a8082612a3f565b602082019050919050565b60006020820190508181036000830152612aa481612a68565b9050919050565b6000612ab682611f15565b9150612ac183611f15565b9250828202612acf81611f15565b91508282048414831517612ae657612ae5612620565b5b5092915050565b7f4e487b7100000000000000000000000000000000000000000000000000000000600052601260045260246000fd5b6000612b2782611f15565b9150612b3283611f15565b925082612b4257612b41612aed565b5b828204905092915050565b6000612b5882611f15565b9150612b6383611f15565b9250828203905081811115612b7b57612b7a612620565b5b92915050565b7f4d61726b65742065786973747300000000000000000000000000000000000000600082015250565b6000612bb7600d836123f3565b9150612bc282612b81565b602082019050919050565b60006020820190508181036000830152612be681612baa565b9050919050565b7f496e76616c6964206f7574636f6d657300000000000000000000000000000000600082015250565b6000612c236010836123f3565b9150612c2e82612bed565b602082019050919050565b60006020820190508181036000830152612c5281612c16565b9050919050565b7f436c6f73696e672074696d6520696e2070617374000000000000000000000000600082015250565b6000612c8f6014836123f3565b9150612c9a82612c59565b602082019050919050565b60006020820190508181036000830152612cbe81612c82565b905091905056fea264697066735822122053dac5683f2400537db131bbd594ee32e3041ff8ca107f4c667406af792347c064736f6c63430008180033",
  "linkReferences": {},
  "deployedLinkReferences": {}
}