{"contracts/SabiParlayPools.sol":{"SabiParlayPools":{"abi":[{"inputs":[{"internalType":"address","name":"_usdc","type":"address"},{"internalType":"address","name":"_operator","type":"address"},{"internalType":"address","name":"_treasury","type":"address"}],"stateMutability":"nonpayable","type":"constructor"},{"inputs":[{"internalType":"address","name":"owner","type":"address"}],"name":"OwnableInvalidOwner","type":"error"},{"inputs":[{"internalType":"address","name":"account","type":"address"}],"name":"OwnableUnauthorizedAccount","type":"error"},{"inputs":[],"name":"ReentrancyGuardReentrantCall","type":"error"},{"inputs":[{"internalType":"address","name":"token","type":"address"}],"name":"SafeERC20FailedOperation","type":"error"},{"anonymous":false,"inputs":[{"indexed":true,"internalType":"uint256","name":"marketId","type":"uint256"},{"indexed":false,"internalType":"uint64","name":"locksAt","type":"uint64"}],"name":"MarketCreated","type":"event"},{"anonymous":false,"inputs":[{"indexed":true,"internalType":"uint256","name":"marketId","type":"uint256"},{"indexed":false,"internalType":"uint8","name":"resolution","type":"uint8"},{"indexed":false,"internalType":"uint256","name":"tier5Pool","type":"uint256"},{"indexed":false,"internalType":"uint256","name":"tier4Pool","type":"uint256"},{"indexed":false,"internalType":"uint256","name":"tier3Pool","type":"uint256"}],"name":"MarketSettled","type":"event"},{"anonymous":false,"inputs":[{"indexed":true,"internalType":"uint256","name":"marketId","type":"uint256"},{"indexed":false,"internalType":"uint256","name":"amount","type":"uint256"}],"name":"OrphanPoolSwept","type":"event"},{"anonymous":false,"inputs":[{"indexed":true,"internalType":"address","name":"previousOwner","type":"address"},{"indexed":true,"internalType":"address","name":"newOwner","type":"address"}],"name":"OwnershipTransferred","type":"event"},{"anonymous":false,"inputs":[{"indexed":true,"internalType":"uint256","name":"marketId","type":"uint256"},{"indexed":true,"internalType":"uint256","name":"ticketId","type":"uint256"},{"indexed":true,"internalType":"address","name":"user","type":"address"},{"indexed":false,"internalType":"uint256","name":"amount","type":"uint256"}],"name":"PayoutDelivered","type":"event"},{"anonymous":false,"inputs":[{"indexed":true,"internalType":"uint256","name":"marketId","type":"uint256"},{"indexed":true,"internalType":"uint256","name":"ticketId","type":"uint256"},{"indexed":true,"internalType":"address","name":"user","type":"address"},{"indexed":false,"internalType":"uint256","name":"stake","type":"uint256"},{"indexed":false,"internalType":"uint8","name":"picks","type":"uint8"}],"name":"TicketPlaced","type":"event"},{"inputs":[],"name":"BPS_DENOMINATOR","outputs":[{"internalType":"uint256","name":"","type":"uint256"}],"stateMutability":"view","type":"function"},{"inputs":[],"name":"PICKS_MASK","outputs":[{"internalType":"uint8","name":"","type":"uint8"}],"stateMutability":"view","type":"function"},{"inputs":[],"name":"RAKE_BPS","outputs":[{"internalType":"uint256","name":"","type":"uint256"}],"stateMutability":"view","type":"function"},{"inputs":[],"name":"TIER_3_BPS","outputs":[{"internalType":"uint256","name":"","type":"uint256"}],"stateMutability":"view","type":"function"},{"inputs":[],"name":"TIER_4_BPS","outputs":[{"internalType":"uint256","name":"","type":"uint256"}],"stateMutability":"view","type":"function"},{"inputs":[],"name":"TIER_5_BPS","outputs":[{"internalType":"uint256","name":"","type":"uint256"}],"stateMutability":"view","type":"function"},{"inputs":[{"internalType":"uint256","name":"marketId","type":"uint256"},{"internalType":"uint64","name":"locksAt","type":"uint64"}],"name":"createMarket","outputs":[],"stateMutability":"nonpayable","type":"function"},{"inputs":[{"internalType":"uint256","name":"marketId","type":"uint256"}],"name":"getMarket","outputs":[{"internalType":"uint64","name":"locksAt","type":"uint64"},{"internalType":"uint8","name":"resolution","type":"uint8"},{"internalType":"bool","name":"settled","type":"bool"},{"internalType":"uint256","name":"grossPool","type":"uint256"},{"internalType":"uint256","name":"tier5Stakes","type":"uint256"},{"internalType":"uint256","name":"tier4Stakes","type":"uint256"},{"internalType":"uint256","name":"tier3Stakes","type":"uint256"},{"internalType":"uint256","name":"tier5Pool","type":"uint256"},{"internalType":"uint256","name":"tier4Pool","type":"uint256"},{"internalType":"uint256","name":"tier3Pool","type":"uint256"}],"stateMutability":"view","type":"function"},{"inputs":[{"internalType":"uint256","name":"marketId","type":"uint256"},{"internalType":"uint256","name":"ticketId","type":"uint256"}],"name":"getTicket","outputs":[{"internalType":"address","name":"user","type":"address"},{"internalType":"uint256","name":"stake","type":"uint256"},{"internalType":"uint8","name":"picks","type":"uint8"},{"internalType":"bool","name":"paid","type":"bool"}],"stateMutability":"view","type":"function"},{"inputs":[{"internalType":"uint256","name":"","type":"uint256"}],"name":"markets","outputs":[{"internalType":"uint64","name":"locksAt","type":"uint64"},{"internalType":"uint8","name":"resolution","type":"uint8"},{"internalType":"bool","name":"settled","type":"bool"},{"internalType":"uint256","name":"grossPool","type":"uint256"},{"internalType":"uint256","name":"tier5Stakes","type":"uint256"},{"internalType":"uint256","name":"tier4Stakes","type":"uint256"},{"internalType":"uint256","name":"tier3Stakes","type":"uint256"},{"internalType":"uint256","name":"tier5Pool","type":"uint256"},{"internalType":"uint256","name":"tier4Pool","type":"uint256"},{"internalType":"uint256","name":"tier3Pool","type":"uint256"}],"stateMutability":"view","type":"function"},{"inputs":[],"name":"operator","outputs":[{"internalType":"address","name":"","type":"address"}],"stateMutability":"view","type":"function"},{"inputs":[],"name":"owner","outputs":[{"internalType":"address","name":"","type":"address"}],"stateMutability":"view","type":"function"},{"inputs":[{"internalType":"uint256","name":"marketId","type":"uint256"},{"internalType":"uint8","name":"picks","type":"uint8"},{"internalType":"uint256","name":"stake","type":"uint256"}],"name":"placeTicket","outputs":[],"stateMutability":"nonpayable","type":"function"},{"inputs":[],"name":"renounceOwnership","outputs":[],"stateMutability":"nonpayable","type":"function"},{"inputs":[{"internalType":"address","name":"_op","type":"address"}],"name":"setOperator","outputs":[],"stateMutability":"nonpayable","type":"function"},{"inputs":[{"internalType":"address","name":"_t","type":"address"}],"name":"setTreasury","outputs":[],"stateMutability":"nonpayable","type":"function"},{"inputs":[{"internalType":"uint256","name":"marketId","type":"uint256"},{"internalType":"uint8","name":"resolution","type":"uint8"},{"internalType":"uint256[]","name":"winnerTicketIds_5","type":"uint256[]"},{"internalType":"uint256[]","name":"winnerTicketIds_4","type":"uint256[]"},{"internalType":"uint256[]","name":"winnerTicketIds_3","type":"uint256[]"}],"name":"settleAndPayout","outputs":[],"stateMutability":"nonpayable","type":"function"},{"inputs":[{"internalType":"uint256","name":"","type":"uint256"}],"name":"ticketCount","outputs":[{"internalType":"uint256","name":"","type":"uint256"}],"stateMutability":"view","type":"function"},{"inputs":[{"internalType":"uint256","name":"","type":"uint256"},{"internalType":"uint256","name":"","type":"uint256"}],"name":"tickets","outputs":[{"internalType":"address","name":"user","type":"address"},{"internalType":"uint256","name":"stake","type":"uint256"},{"internalType":"uint8","name":"picks","type":"uint8"},{"internalType":"bool","name":"paid","type":"bool"}],"stateMutability":"view","type":"function"},{"inputs":[{"internalType":"address","name":"newOwner","type":"address"}],"name":"transferOwnership","outputs":[],"stateMutability":"nonpayable","type":"function"},{"inputs":[],"name":"treasury","outputs":[{"internalType":"address","name":"","type":"address"}],"stateMutability":"view","type":"function"},{"inputs":[],"name":"usdc","outputs":[{"internalType":"contract IERC20","name":"","type":"address"}],"stateMutability":"view","type":"function"}],"evm":{"bytecode":{"linkReferences":{},"object":"60a03461014257601f620015c338819003918201601f19168301916001600160401b0383118484101761014757808492606094604052833981010312610142576100488161015d565b61006060406100596020850161015d565b930161015d565b91331561012957600080546001600160a01b03198082163390811784556040519691956001600160a01b039592948694859391908416907f8be0079c531659141344cd1fd0a4f28419497f9722a3daafe3b4186f6b6457e09080a360017f9b779b17422d0df92223018b32b4d1fa46e071723d6817e2486d003becc55f005516608052168360015416176001551690600254161760025561145190816200017282396080518181816104da01528181610a4e01528181610e4501528181610f2b01526113340152f35b604051631e4fbdf760e01b815260006004820152602490fd5b600080fd5b634e487b7160e01b600052604160045260246000fd5b51906001600160a01b03821682036101425756fe608080604052600436101561001357600080fd5b60003560e01c908163020183d814611085575080630c63f832146110595780633c8773a814610f5a5780633e413bee14610f155780634f88eb6d1461079d578063570ca7351461077457806361d027b31461074b5780636e0d5c401461046e578063715018a6146104155780638da5cb5b146103ec578063958e097c146103cf578063a374e43f14610364578063a426e4c814610364578063b1283e77146101e7578063b3ab15fb1461031e578063bb369f9014610302578063d746d283146102e5578063e1a45218146102c8578063e9a892c0146102ab578063eb44fdd3146101e7578063f0f44260146101a15763f2fde38b1461011157600080fd5b3461019c57602036600319011261019c576004356001600160a01b038181169182900361019c576101406113ef565b811561018357600054826001600160601b0360a01b821617600055167f8be0079c531659141344cd1fd0a4f28419497f9722a3daafe3b4186f6b6457e0600080a3005b604051631e4fbdf760e01b815260006004820152602490fd5b600080fd5b3461019c57602036600319011261019c576004356001600160a01b0381169081900361019c576101cf6113ef565b6001600160601b0360a01b6002541617600255600080f35b3461019c57602036600319011261019c576004356000526003602052604060002080546102a7600183015492600281015490600381015460048201546005830154916007600685015494015494604051988860ff8b9a60481c169067ffffffffffffffff60ff8260401c1691168b9693909a9998959260ff61012099969367ffffffffffffffff6101408b019e168a52166020890152151560408801526060870152608086015260a085015260c084015260e08301526101008201520152565b0390f35b3461019c57600036600319011261019c5760206040516101f48152f35b3461019c57600036600319011261019c5760206040516127108152f35b3461019c57600036600319011261019c57602060405161157c8152f35b3461019c57600036600319011261019c576020604051601f8152f35b3461019c57602036600319011261019c576004356001600160a01b0381169081900361019c5761034c6113ef565b6001600160601b0360a01b6001541617600155600080f35b3461019c57610372366110e1565b6000918252600460209081526040808420928452918152918190208054600182015460029092015483516001600160a01b0390921682529381019190915260ff8084169282019290925260089290921c1615156060820152608090f35b3461019c57600036600319011261019c576020604051610bb88152f35b3461019c57600036600319011261019c576000546040516001600160a01b039091168152602090f35b3461019c57600036600319011261019c5761042e6113ef565b600080546001600160a01b0319811682556001600160a01b03167f8be0079c531659141344cd1fd0a4f28419497f9722a3daafe3b4186f6b6457e08280a3005b3461019c57606036600319011261019c5760043561048a6110a0565b906044359061049761114c565b806000526020906003825260406000209167ffffffffffffffff94858454168015159081610741575b50156107135784156106e15760ff1690808210156106b1577f0000000000000000000000000000000000000000000000000000000000000000956040516323b872dd60e01b600052336004523060245286604452826000606481808c5af1976001988960005114811615610692575b826040526000606052156106745750508360005260058252604060002094855495600019871461065e578689019055604051608081019283118184101761064857889260405233815283810188815260ff600260408401938885526060810193600085528a6000526004895260406000208c600052895260406000209160018060a01b039051166001600160601b0360a01b83541617825551878201550192511661ff0083549251151560081b169161ffff191617179055016105f386825461113f565b90556040519485528401527f2e73d31af8c880b9b8e2309728c59532810301a57c54ada57c87b25874247d5e60403394a47f9b779b17422d0df92223018b32b4d1fa46e071723d6817e2486d003becc55f0055005b634e487b7160e01b600052604160045260246000fd5b634e487b7160e01b600052601160045260246000fd5b635274afe760e01b82526001600160a01b0316600482015260249150fd5b898115166106a757813b15153d15161661052f565b823d6000823e3d90fd5b6064906040519062461bcd60e51b825260048201526009602482015268626164207069636b7360b81b6044820152fd5b60405162461bcd60e51b815260048101839052600a6024820152697a65726f207374616b6560b01b6044820152606490fd5b60405162461bcd60e51b815260048101839052600660248201526518db1bdcd95960d21b6044820152606490fd5b90504210876104c0565b3461019c57600036600319011261019c576002546040516001600160a01b039091168152602090f35b3461019c57600036600319011261019c576001546040516001600160a01b039091168152602090f35b3461019c5760a036600319011261019c576107b66110a0565b60443567ffffffffffffffff811161019c576107d69036906004016110b0565b909160643567ffffffffffffffff811161019c576107f89036906004016110b0565b929060843567ffffffffffffffff811161019c5761081a9036906004016110b0565b9161083060018060a01b036001541633146110f7565b61083861114c565b6004356000526003602052604060002093845467ffffffffffffffff811680151580610f07575b15610ed6574210610ea557602060ff88161015610e6f5769ffff00000000000000001916604087901b68ff0000000000000000161769010000000000000000001785556001850154966101f48815818a028a90048214171561065e576127106108cc918a02048099611132565b9780610e32575b5060009260005b838110610d5b575060009360005b838110610c77575060009860005b888110610b0757508160028a01558560038a01558960048a015561157c94858c028c15968d82041487171561065e576127109004918c610bb88082029182041488171561065e576127108e9104976105dc91828102048214171561065e57612710908e02049a8415610af3575b8815610adf575b60009d8d15610ad4575b61098b8f6109868f6109868d8a61113f565b61113f565b90808210610aa6575b505091610a0e9d9e84928d600786610a06986005610a069f9e9d9c9b9901558b6006820155015560ff604051911681528360208201528860408201528d60608201527fe789e70b0c20c525714f306faaa0bf5d2a79d0e4e56dbf9f51425a393ced9e58608060043592a2600435611235565b600435611235565b80610a3a575b60017f9b779b17422d0df92223018b32b4d1fa46e071723d6817e2486d003becc55f0055005b600254610a729082906001600160a01b03167f000000000000000000000000000000000000000000000000000000000000000061118e565b6040519081527fa975a09adfde26f80b86fff679053171394a831309cb05f28d7f35fc5f3dbcf7602060043592a280610a14565b8d9a99989796949295939f91610abb91611132565b610ac49161113f565b9d91939092949596979838610994565b9b9d5060009b610974565b96610aea919b61113f565b9960009661096a565b92610afe919761113f565b95600092610963565b98939792999b959096919a9460043560005260046020526040600020610b2e8b868661120f565b3560005260205260406000209860018060a01b038a541615610c485760028a01549b60ff8d60081c16610c195760ff8d8b9f9b601f928392161816189960005b60ff8c1615610ba65760ff8082161461065e5760ff60019116019a60ff600019818316011161065e5760ff811660001901169a610b6e565b999f91969b92979c9d93989e9499600391969b5060ff1603610be7576001610be092610100829561ff00191617600282015501549061113f565b9a016108f6565b60405162461bcd60e51b815260206004820152600a6024820152693bb937b733903a34b2b960b11b6044820152606490fd5b60405162461bcd60e51b8152602060048201526007602482015266191d5c081d1a5960ca1b6044820152606490fd5b60405162461bcd60e51b8152602060048201526007602482015266189859081d1a5960ca1b6044820152606490fd5b979198929a94999396909560043560005260046020528b610c9e8a6040600020928d61120f565b3560005260205260406000209760018060a01b0389541615610c485760ff9c60028a01549d8e60081c16610c195760ff8e87601f928392161816189b8c60ff6000915b1615610d1c5760ff169960ff8b1461065e5760ff60018f9c019b816000199116011161065e5760ff9d6000198f821601169d8e9b919b610ce1565b600491969c999f949a959b93989e92979d5060ff1603610be7576001610d5492610100829561ff00191617600282015501549061113f565b95016108e8565b95999294966004999294999891983560005260046020526040600020610d8288888761120f565b3560005260205260406000209a60018060a01b038c541615610c485760028c01549860ff8a60081c16610c1957601f979697808560ff8d16181618966000975b60ff8116988915610def5760ff1660ff811461065e5760010198600019019060ff821161065e5716610dc2565b600592989f949b995060ff91509d9299969d9c959c9b949b1603610be7576001610e2b92610100829561ff00191617600282015501549061113f565b94016108da565b600254610e6991906001600160a01b03167f000000000000000000000000000000000000000000000000000000000000000061118e565b896108d3565b60405162461bcd60e51b815260206004820152600e60248201526d3130b2103932b9b7b63aba34b7b760911b6044820152606490fd5b60405162461bcd60e51b8152602060048201526009602482015268746f6f206561726c7960b81b6044820152606490fd5b60405162461bcd60e51b815260206004820152600960248201526862616420737461746560b81b6044820152606490fd5b5060ff8260481c161561085f565b3461019c57600036600319011261019c576040517f00000000000000000000000000000000000000000000000000000000000000006001600160a01b03168152602090f35b3461019c57604036600319011261019c5760043560243567ffffffffffffffff80821680920361019c57610f9960018060a01b036001541633146110f7565b8260005260036020526040600020541661102b57428111156110005760207f7595a3bf45d01ef9254ae39f1ec19be2262703373153bde26e12a962b053229991836000526003825260406000208167ffffffffffffffff19825416179055604051908152a2005b606460405162461bcd60e51b81526020600482015260046024820152631c185cdd60e21b6044820152fd5b60405162461bcd60e51b815260206004820152600660248201526565786973747360d01b6044820152606490fd5b3461019c57602036600319011261019c5760043560005260056020526020604060002054604051908152f35b3461019c57600036600319011261019c57806105dc60209252f35b6024359060ff8216820361019c57565b9181601f8401121561019c5782359167ffffffffffffffff831161019c576020808501948460051b01011161019c57565b604090600319011261019c576004359060243590565b156110fe57565b60405162461bcd60e51b815260206004820152600c60248201526b3737ba1037b832b930ba37b960a11b6044820152606490fd5b9190820391821161065e57565b9190820180921161065e57565b7f9b779b17422d0df92223018b32b4d1fa46e071723d6817e2486d003becc55f00600281541461117c5760029055565b604051633ee5aeb560e01b8152600490fd5b60405163a9059cbb60e01b60009081526001600160a01b039384166004526024949094529260209060448180855af16001600051148116156111ef575b83604052156111d957505050565b635274afe760e01b835216600482015260249150fd5b600181151661120557813b15153d1516166111cb565b833d6000823e3d90fd5b919081101561121f5760051b0190565b634e487b7160e01b600052603260045260246000fd5b93909291938215918280156113e7575b6113df576000969594875b86891061126257505050505050509050565b836000526004906020828152604060002061127e8c8b8761120f565b3560005281526040600020916001830154808a02908a8204148917156113ca5786156113b557869004936000198b01908b82116113a05750600194928d8095938d9e9f8b948e911461135d575b507fb3ec26f90e981d944f630dd197d3e82be1b23a68d8668eced0af40810e8ec89b92916112fc876113099361113f565b9e87611325575b8a61120f565b3593878060a01b0390541694604051908152a401979695611250565b611358888b8060a01b038954167f000000000000000000000000000000000000000000000000000000000000000061118e565b611303565b819650916112fc611393611309937fb3ec26f90e981d944f630dd197d3e82be1b23a68d8668eced0af40810e8ec89b9695611132565b979250509192508c6112cb565b601190634e487b7160e01b6000525260246000fd5b601285634e487b7160e01b6000525260246000fd5b601185634e487b7160e01b6000525260246000fd5b505050505050565b508015611245565b6000546001600160a01b0316330361140357565b60405163118cdaa760e01b8152336004820152602490fdfea264697066735822122036d04a700925fbd89c6f99b9495811923a35b97533ddba008eb4b413e1116d1464736f6c63430008180033","opcodes":"PUSH1 0xA0 CALLVALUE PUSH2 0x142 JUMPI PUSH1 0x1F PUSH3 0x15C3 CODESIZE DUP2 SWAP1 SUB SWAP2 DUP3 ADD PUSH1 0x1F NOT AND DUP4 ADD SWAP2 PUSH1 0x1 PUSH1 0x1 PUSH1 0x40 SHL SUB DUP4 GT DUP5 DUP5 LT OR PUSH2 0x147 JUMPI DUP1 DUP5 SWAP3 PUSH1 0x60 SWAP5 PUSH1 0x40 MSTORE DUP4 CODECOPY DUP2 ADD SUB SLT PUSH2 0x142 JUMPI PUSH2 0x48 DUP2 PUSH2 0x15D JUMP JUMPDEST PUSH2 0x60 PUSH1 0x40 PUSH2 0x59 PUSH1 0x20 DUP6 ADD PUSH2 0x15D JUMP JUMPDEST SWAP4 ADD PUSH2 0x15D JUMP JUMPDEST SWAP2 CALLER ISZERO PUSH2 0x129 JUMPI PUSH1 0x0 DUP1 SLOAD PUSH1 0x1 PUSH1 0x1 PUSH1 0xA0 SHL SUB NOT DUP1 DUP3 AND CALLER SWAP1 DUP2 OR DUP5 SSTORE PUSH1 0x40 MLOAD SWAP7 SWAP2 SWAP6 PUSH1 0x1 PUSH1 0x1 PUSH1 0xA0 SHL SUB SWAP6 SWAP3 SWAP5 DUP7 SWAP5 DUP6 SWAP4 SWAP2 SWAP1 DUP5 AND SWAP1 PUSH32 0x8BE0079C531659141344CD1FD0A4F28419497F9722A3DAAFE3B4186F6B6457E0 SWAP1 DUP1 LOG3 PUSH1 0x1 PUSH32 0x9B779B17422D0DF92223018B32B4D1FA46E071723D6817E2486D003BECC55F00 SSTORE AND PUSH1 0x80 MSTORE AND DUP4 PUSH1 0x1 SLOAD AND OR PUSH1 0x1 SSTORE AND SWAP1 PUSH1 0x2 SLOAD AND OR PUSH1 0x2 SSTORE PUSH2 0x1451 SWAP1 DUP2 PUSH3 0x172 DUP3 CODECOPY PUSH1 0x80 MLOAD DUP2 DUP2 DUP2 PUSH2 0x4DA ADD MSTORE DUP2 DUP2 PUSH2 0xA4E ADD MSTORE DUP2 DUP2 PUSH2 0xE45 ADD MSTORE DUP2 DUP2 PUSH2 0xF2B ADD MSTORE PUSH2 0x1334 ADD MSTORE RETURN JUMPDEST PUSH1 0x40 MLOAD PUSH4 0x1E4FBDF7 PUSH1 0xE0 SHL DUP2 MSTORE PUSH1 0x0 PUSH1 0x4 DUP3 ADD MSTORE PUSH1 0x24 SWAP1 REVERT JUMPDEST PUSH1 0x0 DUP1 REVERT JUMPDEST PUSH4 0x4E487B71 PUSH1 0xE0 SHL PUSH1 0x0 MSTORE PUSH1 0x41 PUSH1 0x4 MSTORE PUSH1 0x24 PUSH1 0x0 REVERT JUMPDEST MLOAD SWAP1 PUSH1 0x1 PUSH1 0x1 PUSH1 0xA0 SHL SUB DUP3 AND DUP3 SUB PUSH2 0x142 JUMPI JUMP INVALID PUSH1 0x80 DUP1 PUSH1 0x40 MSTORE PUSH1 0x4 CALLDATASIZE LT ISZERO PUSH2 0x13 JUMPI PUSH1 0x0 DUP1 REVERT JUMPDEST PUSH1 0x0 CALLDATALOAD PUSH1 0xE0 SHR SWAP1 DUP2 PUSH4 0x20183D8 EQ PUSH2 0x1085 JUMPI POP DUP1 PUSH4 0xC63F832 EQ PUSH2 0x1059 JUMPI DUP1 PUSH4 0x3C8773A8 EQ PUSH2 0xF5A JUMPI DUP1 PUSH4 0x3E413BEE EQ PUSH2 0xF15 JUMPI DUP1 PUSH4 0x4F88EB6D EQ PUSH2 0x79D JUMPI DUP1 PUSH4 0x570CA735 EQ PUSH2 0x774 JUMPI DUP1 PUSH4 0x61D027B3 EQ PUSH2 0x74B JUMPI DUP1 PUSH4 0x6E0D5C40 EQ PUSH2 0x46E JUMPI DUP1 PUSH4 0x715018A6 EQ PUSH2 0x415 JUMPI DUP1 PUSH4 0x8DA5CB5B EQ PUSH2 0x3EC JUMPI DUP1 PUSH4 0x958E097C EQ PUSH2 0x3CF JUMPI DUP1 PUSH4 0xA374E43F EQ PUSH2 0x364 JUMPI DUP1 PUSH4 0xA426E4C8 EQ PUSH2 0x364 JUMPI DUP1 PUSH4 0xB1283E77 EQ PUSH2 0x1E7 JUMPI DUP1 PUSH4 0xB3AB15FB EQ PUSH2 0x31E JUMPI DUP1 PUSH4 0xBB369F90 EQ PUSH2 0x302 JUMPI DUP1 PUSH4 0xD746D283 EQ PUSH2 0x2E5 JUMPI DUP1 PUSH4 0xE1A45218 EQ PUSH2 0x2C8 JUMPI DUP1 PUSH4 0xE9A892C0 EQ PUSH2 0x2AB JUMPI DUP1 PUSH4 0xEB44FDD3 EQ PUSH2 0x1E7 JUMPI DUP1 PUSH4 0xF0F44260 EQ PUSH2 0x1A1 JUMPI PUSH4 0xF2FDE38B EQ PUSH2 0x111 JUMPI PUSH1 0x0 DUP1 REVERT JUMPDEST CALLVALUE PUSH2 0x19C JUMPI PUSH1 0x20 CALLDATASIZE PUSH1 0x3 NOT ADD SLT PUSH2 0x19C JUMPI PUSH1 0x4 CALLDATALOAD PUSH1 0x1 PUSH1 0x1 PUSH1 0xA0 SHL SUB DUP2 DUP2 AND SWAP2 DUP3 SWAP1 SUB PUSH2 0x19C JUMPI PUSH2 0x140 PUSH2 0x13EF JUMP JUMPDEST DUP2 ISZERO PUSH2 0x183 JUMPI PUSH1 0x0 SLOAD DUP3 PUSH1 0x1 PUSH1 0x1 PUSH1 0x60 SHL SUB PUSH1 0xA0 SHL DUP3 AND OR PUSH1 0x0 SSTORE AND PUSH32 0x8BE0079C531659141344CD1FD0A4F28419497F9722A3DAAFE3B4186F6B6457E0 PUSH1 0x0 DUP1 LOG3 STOP JUMPDEST PUSH1 0x40 MLOAD PUSH4 0x1E4FBDF7 PUSH1 0xE0 SHL DUP2 MSTORE PUSH1 0x0 PUSH1 0x4 DUP3 ADD MSTORE PUSH1 0x24 SWAP1 REVERT JUMPDEST PUSH1 0x0 DUP1 REVERT JUMPDEST CALLVALUE PUSH2 0x19C JUMPI PUSH1 0x20 CALLDATASIZE PUSH1 0x3 NOT ADD SLT PUSH2 0x19C JUMPI PUSH1 0x4 CALLDATALOAD PUSH1 0x1 PUSH1 0x1 PUSH1 0xA0 SHL SUB DUP2 AND SWAP1 DUP2 SWAP1 SUB PUSH2 0x19C JUMPI PUSH2 0x1CF PUSH2 0x13EF JUMP JUMPDEST PUSH1 0x1 PUSH1 0x1 PUSH1 0x60 SHL SUB PUSH1 0xA0 SHL PUSH1 0x2 SLOAD AND OR PUSH1 0x2 SSTORE PUSH1 0x0 DUP1 RETURN JUMPDEST CALLVALUE PUSH2 0x19C JUMPI PUSH1 0x20 CALLDATASIZE PUSH1 0x3 NOT ADD SLT PUSH2 0x19C JUMPI PUSH1 0x4 CALLDATALOAD PUSH1 0x0 MSTORE PUSH1 0x3 PUSH1 0x20 MSTORE PUSH1 0x40 PUSH1 0x0 KECCAK256 DUP1 SLOAD PUSH2 0x2A7 PUSH1 0x1 DUP4 ADD SLOAD SWAP3 PUSH1 0x2 DUP2 ADD SLOAD SWAP1 PUSH1 0x3 DUP2 ADD SLOAD PUSH1 0x4 DUP3 ADD SLOAD PUSH1 0x5 DUP4 ADD SLOAD SWAP2 PUSH1 0x7 PUSH1 0x6 DUP6 ADD SLOAD SWAP5 ADD SLOAD SWAP5 PUSH1 0x40 MLOAD SWAP9 DUP9 PUSH1 0xFF DUP12 SWAP11 PUSH1 0x48 SHR AND SWAP1 PUSH8 0xFFFFFFFFFFFFFFFF PUSH1 0xFF DUP3 PUSH1 0x40 SHR AND SWAP2 AND DUP12 SWAP7 SWAP4 SWAP1 SWAP11 SWAP10 SWAP9 SWAP6 SWAP3 PUSH1 0xFF PUSH2 0x120 SWAP10 SWAP7 SWAP4 PUSH8 0xFFFFFFFFFFFFFFFF PUSH2 0x140 DUP12 ADD SWAP15 AND DUP11 MSTORE AND PUSH1 0x20 DUP10 ADD MSTORE ISZERO ISZERO PUSH1 0x40 DUP9 ADD MSTORE PUSH1 0x60 DUP8 ADD MSTORE PUSH1 0x80 DUP7 ADD MSTORE PUSH1 0xA0 DUP6 ADD MSTORE PUSH1 0xC0 DUP5 ADD MSTORE PUSH1 0xE0 DUP4 ADD MSTORE PUSH2 0x100 DUP3 ADD MSTORE ADD MSTORE JUMP JUMPDEST SUB SWAP1 RETURN JUMPDEST CALLVALUE PUSH2 0x19C JUMPI PUSH1 0x0 CALLDATASIZE PUSH1 0x3 NOT ADD SLT PUSH2 0x19C JUMPI PUSH1 0x20 PUSH1 0x40 MLOAD PUSH2 0x1F4 DUP2 MSTORE RETURN JUMPDEST CALLVALUE PUSH2 0x19C JUMPI PUSH1 0x0 CALLDATASIZE PUSH1 0x3 NOT ADD SLT PUSH2 0x19C JUMPI PUSH1 0x20 PUSH1 0x40 MLOAD PUSH2 0x2710 DUP2 MSTORE RETURN JUMPDEST CALLVALUE PUSH2 0x19C JUMPI PUSH1 0x0 CALLDATASIZE PUSH1 0x3 NOT ADD SLT PUSH2 0x19C JUMPI PUSH1 0x20 PUSH1 0x40 MLOAD PUSH2 0x157C DUP2 MSTORE RETURN JUMPDEST CALLVALUE PUSH2 0x19C JUMPI PUSH1 0x0 CALLDATASIZE PUSH1 0x3 NOT ADD SLT PUSH2 0x19C JUMPI PUSH1 0x20 PUSH1 0x40 MLOAD PUSH1 0x1F DUP2 MSTORE RETURN JUMPDEST CALLVALUE PUSH2 0x19C JUMPI PUSH1 0x20 CALLDATASIZE PUSH1 0x3 NOT ADD SLT PUSH2 0x19C JUMPI PUSH1 0x4 CALLDATALOAD PUSH1 0x1 PUSH1 0x1 PUSH1 0xA0 SHL SUB DUP2 AND SWAP1 DUP2 SWAP1 SUB PUSH2 0x19C JUMPI PUSH2 0x34C PUSH2 0x13EF JUMP JUMPDEST PUSH1 0x1 PUSH1 0x1 PUSH1 0x60 SHL SUB PUSH1 0xA0 SHL PUSH1 0x1 SLOAD AND OR PUSH1 0x1 SSTORE PUSH1 0x0 DUP1 RETURN JUMPDEST CALLVALUE PUSH2 0x19C JUMPI PUSH2 0x372 CALLDATASIZE PUSH2 0x10E1 JUMP JUMPDEST PUSH1 0x0 SWAP2 DUP3 MSTORE PUSH1 0x4 PUSH1 0x20 SWAP1 DUP2 MSTORE PUSH1 0x40 DUP1 DUP5 KECCAK256 SWAP3 DUP5 MSTORE SWAP2 DUP2 MSTORE SWAP2 DUP2 SWAP1 KECCAK256 DUP1 SLOAD PUSH1 0x1 DUP3 ADD SLOAD PUSH1 0x2 SWAP1 SWAP3 ADD SLOAD DUP4 MLOAD PUSH1 0x1 PUSH1 0x1 PUSH1 0xA0 SHL SUB SWAP1 SWAP3 AND DUP3 MSTORE SWAP4 DUP2 ADD SWAP2 SWAP1 SWAP2 MSTORE PUSH1 0xFF DUP1 DUP5 AND SWAP3 DUP3 ADD SWAP3 SWAP1 SWAP3 MSTORE PUSH1 0x8 SWAP3 SWAP1 SWAP3 SHR AND ISZERO ISZERO PUSH1 0x60 DUP3 ADD MSTORE PUSH1 0x80 SWAP1 RETURN JUMPDEST CALLVALUE PUSH2 0x19C JUMPI PUSH1 0x0 CALLDATASIZE PUSH1 0x3 NOT ADD SLT PUSH2 0x19C JUMPI PUSH1 0x20 PUSH1 0x40 MLOAD PUSH2 0xBB8 DUP2 MSTORE RETURN JUMPDEST CALLVALUE PUSH2 0x19C JUMPI PUSH1 0x0 CALLDATASIZE PUSH1 0x3 NOT ADD SLT PUSH2 0x19C JUMPI PUSH1 0x0 SLOAD PUSH1 0x40 MLOAD PUSH1 0x1 PUSH1 0x1 PUSH1 0xA0 SHL SUB SWAP1 SWAP2 AND DUP2 MSTORE PUSH1 0x20 SWAP1 RETURN JUMPDEST CALLVALUE PUSH2 0x19C JUMPI PUSH1 0x0 CALLDATASIZE PUSH1 0x3 NOT ADD SLT PUSH2 0x19C JUMPI PUSH2 0x42E PUSH2 0x13EF JUMP JUMPDEST PUSH1 0x0 DUP1 SLOAD PUSH1 0x1 PUSH1 0x1 PUSH1 0xA0 SHL SUB NOT DUP2 AND DUP3 SSTORE PUSH1 0x1 PUSH1 0x1 PUSH1 0xA0 SHL SUB AND PUSH32 0x8BE0079C531659141344CD1FD0A4F28419497F9722A3DAAFE3B4186F6B6457E0 DUP3 DUP1 LOG3 STOP JUMPDEST CALLVALUE PUSH2 0x19C JUMPI PUSH1 0x60 CALLDATASIZE PUSH1 0x3 NOT ADD SLT PUSH2 0x19C JUMPI PUSH1 0x4 CALLDATALOAD PUSH2 0x48A PUSH2 0x10A0 JUMP JUMPDEST SWAP1 PUSH1 0x44 CALLDATALOAD SWAP1 PUSH2 0x497 PUSH2 0x114C JUMP JUMPDEST DUP1 PUSH1 0x0 MSTORE PUSH1 0x20 SWAP1 PUSH1 0x3 DUP3 MSTORE PUSH1 0x40 PUSH1 0x0 KECCAK256 SWAP2 PUSH8 0xFFFFFFFFFFFFFFFF SWAP5 DUP6 DUP5 SLOAD AND DUP1 ISZERO ISZERO SWAP1 DUP2 PUSH2 0x741 JUMPI JUMPDEST POP ISZERO PUSH2 0x713 JUMPI DUP5 ISZERO PUSH2 0x6E1 JUMPI PUSH1 0xFF AND SWAP1 DUP1 DUP3 LT ISZERO PUSH2 0x6B1 JUMPI PUSH32 0x0 SWAP6 PUSH1 0x40 MLOAD PUSH4 0x23B872DD PUSH1 0xE0 SHL PUSH1 0x0 MSTORE CALLER PUSH1 0x4 MSTORE ADDRESS PUSH1 0x24 MSTORE DUP7 PUSH1 0x44 MSTORE DUP3 PUSH1 0x0 PUSH1 0x64 DUP2 DUP1 DUP13 GAS CALL SWAP8 PUSH1 0x1 SWAP9 DUP10 PUSH1 0x0 MLOAD EQ DUP2 AND ISZERO PUSH2 0x692 JUMPI JUMPDEST DUP3 PUSH1 0x40 MSTORE PUSH1 0x0 PUSH1 0x60 MSTORE ISZERO PUSH2 0x674 JUMPI POP POP DUP4 PUSH1 0x0 MSTORE PUSH1 0x5 DUP3 MSTORE PUSH1 0x40 PUSH1 0x0 KECCAK256 SWAP5 DUP6 SLOAD SWAP6 PUSH1 0x0 NOT DUP8 EQ PUSH2 0x65E JUMPI DUP7 DUP10 ADD SWAP1 SSTORE PUSH1 0x40 MLOAD PUSH1 0x80 DUP2 ADD SWAP3 DUP4 GT DUP2 DUP5 LT OR PUSH2 0x648 JUMPI DUP9 SWAP3 PUSH1 0x40 MSTORE CALLER DUP2 MSTORE DUP4 DUP2 ADD DUP9 DUP2 MSTORE PUSH1 0xFF PUSH1 0x2 PUSH1 0x40 DUP5 ADD SWAP4 DUP9 DUP6 MSTORE PUSH1 0x60 DUP2 ADD SWAP4 PUSH1 0x0 DUP6 MSTORE DUP11 PUSH1 0x0 MSTORE PUSH1 0x4 DUP10 MSTORE PUSH1 0x40 PUSH1 0x0 KECCAK256 DUP13 PUSH1 0x0 MSTORE DUP10 MSTORE PUSH1 0x40 PUSH1 0x0 KECCAK256 SWAP2 PUSH1 0x1 DUP1 PUSH1 0xA0 SHL SUB SWAP1 MLOAD AND PUSH1 0x1 PUSH1 0x1 PUSH1 0x60 SHL SUB PUSH1 0xA0 SHL DUP4 SLOAD AND OR DUP3 SSTORE MLOAD DUP8 DUP3 ADD SSTORE ADD SWAP3 MLOAD AND PUSH2 0xFF00 DUP4 SLOAD SWAP3 MLOAD ISZERO ISZERO PUSH1 0x8 SHL AND SWAP2 PUSH2 0xFFFF NOT AND OR OR SWAP1 SSTORE ADD PUSH2 0x5F3 DUP7 DUP3 SLOAD PUSH2 0x113F JUMP JUMPDEST SWAP1 SSTORE PUSH1 0x40 MLOAD SWAP5 DUP6 MSTORE DUP5 ADD MSTORE PUSH32 0x2E73D31AF8C880B9B8E2309728C59532810301A57C54ADA57C87B25874247D5E PUSH1 0x40 CALLER SWAP5 LOG4 PUSH32 0x9B779B17422D0DF92223018B32B4D1FA46E071723D6817E2486D003BECC55F00 SSTORE STOP JUMPDEST PUSH4 0x4E487B71 PUSH1 0xE0 SHL PUSH1 0x0 MSTORE PUSH1 0x41 PUSH1 0x4 MSTORE PUSH1 0x24 PUSH1 0x0 REVERT JUMPDEST PUSH4 0x4E487B71 PUSH1 0xE0 SHL PUSH1 0x0 MSTORE PUSH1 0x11 PUSH1 0x4 MSTORE PUSH1 0x24 PUSH1 0x0 REVERT JUMPDEST PUSH4 0x5274AFE7 PUSH1 0xE0 SHL DUP3 MSTORE PUSH1 0x1 PUSH1 0x1 PUSH1 0xA0 SHL SUB AND PUSH1 0x4 DUP3 ADD MSTORE PUSH1 0x24 SWAP2 POP REVERT JUMPDEST DUP10 DUP2 ISZERO AND PUSH2 0x6A7 JUMPI DUP2 EXTCODESIZE ISZERO ISZERO RETURNDATASIZE ISZERO AND AND PUSH2 0x52F JUMP JUMPDEST DUP3 RETURNDATASIZE PUSH1 0x0 DUP3 RETURNDATACOPY RETURNDATASIZE SWAP1 REVERT JUMPDEST PUSH1 0x64 SWAP1 PUSH1 0x40 MLOAD SWAP1 PUSH3 0x461BCD PUSH1 0xE5 SHL DUP3 MSTORE PUSH1 0x4 DUP3 ADD MSTORE PUSH1 0x9 PUSH1 0x24 DUP3 ADD MSTORE PUSH9 0x626164207069636B73 PUSH1 0xB8 SHL PUSH1 0x44 DUP3 ADD MSTORE REVERT JUMPDEST PUSH1 0x40 MLOAD PUSH3 0x461BCD PUSH1 0xE5 SHL DUP2 MSTORE PUSH1 0x4 DUP2 ADD DUP4 SWAP1 MSTORE PUSH1 0xA PUSH1 0x24 DUP3 ADD MSTORE PUSH10 0x7A65726F207374616B65 PUSH1 0xB0 SHL PUSH1 0x44 DUP3 ADD MSTORE PUSH1 0x64 SWAP1 REVERT JUMPDEST PUSH1 0x40 MLOAD PUSH3 0x461BCD PUSH1 0xE5 SHL DUP2 MSTORE PUSH1 0x4 DUP2 ADD DUP4 SWAP1 MSTORE PUSH1 0x6 PUSH1 0x24 DUP3 ADD MSTORE PUSH6 0x18DB1BDCD959 PUSH1 0xD2 SHL PUSH1 0x44 DUP3 ADD MSTORE PUSH1 0x64 SWAP1 REVERT JUMPDEST SWAP1 POP TIMESTAMP LT DUP8 PUSH2 0x4C0 JUMP JUMPDEST CALLVALUE PUSH2 0x19C JUMPI PUSH1 0x0 CALLDATASIZE PUSH1 0x3 NOT ADD SLT PUSH2 0x19C JUMPI PUSH1 0x2 SLOAD PUSH1 0x40 MLOAD PUSH1 0x1 PUSH1 0x1 PUSH1 0xA0 SHL SUB SWAP1 SWAP2 AND DUP2 MSTORE PUSH1 0x20 SWAP1 RETURN JUMPDEST CALLVALUE PUSH2 0x19C JUMPI PUSH1 0x0 CALLDATASIZE PUSH1 0x3 NOT ADD SLT PUSH2 0x19C JUMPI PUSH1 0x1 SLOAD PUSH1 0x40 MLOAD PUSH1 0x1 PUSH1 0x1 PUSH1 0xA0 SHL SUB SWAP1 SWAP2 AND DUP2 MSTORE PUSH1 0x20 SWAP1 RETURN JUMPDEST CALLVALUE PUSH2 0x19C JUMPI PUSH1 0xA0 CALLDATASIZE PUSH1 0x3 NOT ADD SLT PUSH2 0x19C JUMPI PUSH2 0x7B6 PUSH2 0x10A0 JUMP JUMPDEST PUSH1 0x44 CALLDATALOAD PUSH8 0xFFFFFFFFFFFFFFFF DUP2 GT PUSH2 0x19C JUMPI PUSH2 0x7D6 SWAP1 CALLDATASIZE SWAP1 PUSH1 0x4 ADD PUSH2 0x10B0 JUMP JUMPDEST SWAP1 SWAP2 PUSH1 0x64 CALLDATALOAD PUSH8 0xFFFFFFFFFFFFFFFF DUP2 GT PUSH2 0x19C JUMPI PUSH2 0x7F8 SWAP1 CALLDATASIZE SWAP1 PUSH1 0x4 ADD PUSH2 0x10B0 JUMP JUMPDEST SWAP3 SWAP1 PUSH1 0x84 CALLDATALOAD PUSH8 0xFFFFFFFFFFFFFFFF DUP2 GT PUSH2 0x19C JUMPI PUSH2 0x81A SWAP1 CALLDATASIZE SWAP1 PUSH1 0x4 ADD PUSH2 0x10B0 JUMP JUMPDEST SWAP2 PUSH2 0x830 PUSH1 0x1 DUP1 PUSH1 0xA0 SHL SUB PUSH1 0x1 SLOAD AND CALLER EQ PUSH2 0x10F7 JUMP JUMPDEST PUSH2 0x838 PUSH2 0x114C JUMP JUMPDEST PUSH1 0x4 CALLDATALOAD PUSH1 0x0 MSTORE PUSH1 0x3 PUSH1 0x20 MSTORE PUSH1 0x40 PUSH1 0x0 KECCAK256 SWAP4 DUP5 SLOAD PUSH8 0xFFFFFFFFFFFFFFFF DUP2 AND DUP1 ISZERO ISZERO DUP1 PUSH2 0xF07 JUMPI JUMPDEST ISZERO PUSH2 0xED6 JUMPI TIMESTAMP LT PUSH2 0xEA5 JUMPI PUSH1 0x20 PUSH1 0xFF DUP9 AND LT ISZERO PUSH2 0xE6F JUMPI PUSH10 0xFFFF0000000000000000 NOT AND PUSH1 0x40 DUP8 SWAP1 SHL PUSH9 0xFF0000000000000000 AND OR PUSH10 0x1000000000000000000 OR DUP6 SSTORE PUSH1 0x1 DUP6 ADD SLOAD SWAP7 PUSH2 0x1F4 DUP9 ISZERO DUP2 DUP11 MUL DUP11 SWAP1 DIV DUP3 EQ OR ISZERO PUSH2 0x65E JUMPI PUSH2 0x2710 PUSH2 0x8CC SWAP2 DUP11 MUL DIV DUP1 SWAP10 PUSH2 0x1132 JUMP JUMPDEST SWAP8 DUP1 PUSH2 0xE32 JUMPI JUMPDEST POP PUSH1 0x0 SWAP3 PUSH1 0x0 JUMPDEST DUP4 DUP2 LT PUSH2 0xD5B JUMPI POP PUSH1 0x0 SWAP4 PUSH1 0x0 JUMPDEST DUP4 DUP2 LT PUSH2 0xC77 JUMPI POP PUSH1 0x0 SWAP9 PUSH1 0x0 JUMPDEST DUP9 DUP2 LT PUSH2 0xB07 JUMPI POP DUP2 PUSH1 0x2 DUP11 ADD SSTORE DUP6 PUSH1 0x3 DUP11 ADD SSTORE DUP10 PUSH1 0x4 DUP11 ADD SSTORE PUSH2 0x157C SWAP5 DUP6 DUP13 MUL DUP13 ISZERO SWAP7 DUP14 DUP3 DIV EQ DUP8 OR ISZERO PUSH2 0x65E JUMPI PUSH2 0x2710 SWAP1 DIV SWAP2 DUP13 PUSH2 0xBB8 DUP1 DUP3 MUL SWAP2 DUP3 DIV EQ DUP9 OR ISZERO PUSH2 0x65E JUMPI PUSH2 0x2710 DUP15 SWAP2 DIV SWAP8 PUSH2 0x5DC SWAP2 DUP3 DUP2 MUL DIV DUP3 EQ OR ISZERO PUSH2 0x65E JUMPI PUSH2 0x2710 SWAP1 DUP15 MUL DIV SWAP11 DUP5 ISZERO PUSH2 0xAF3 JUMPI JUMPDEST DUP9 ISZERO PUSH2 0xADF JUMPI JUMPDEST PUSH1 0x0 SWAP14 DUP14 ISZERO PUSH2 0xAD4 JUMPI JUMPDEST PUSH2 0x98B DUP16 PUSH2 0x986 DUP16 PUSH2 0x986 DUP14 DUP11 PUSH2 0x113F JUMP JUMPDEST PUSH2 0x113F JUMP JUMPDEST SWAP1 DUP1 DUP3 LT PUSH2 0xAA6 JUMPI JUMPDEST POP POP SWAP2 PUSH2 0xA0E SWAP14 SWAP15 DUP5 SWAP3 DUP14 PUSH1 0x7 DUP7 PUSH2 0xA06 SWAP9 PUSH1 0x5 PUSH2 0xA06 SWAP16 SWAP15 SWAP14 SWAP13 SWAP12 SWAP10 ADD SSTORE DUP12 PUSH1 0x6 DUP3 ADD SSTORE ADD SSTORE PUSH1 0xFF PUSH1 0x40 MLOAD SWAP2 AND DUP2 MSTORE DUP4 PUSH1 0x20 DUP3 ADD MSTORE DUP9 PUSH1 0x40 DUP3 ADD MSTORE DUP14 PUSH1 0x60 DUP3 ADD MSTORE PUSH32 0xE789E70B0C20C525714F306FAAA0BF5D2A79D0E4E56DBF9F51425A393CED9E58 PUSH1 0x80 PUSH1 0x4 CALLDATALOAD SWAP3 LOG2 PUSH1 0x4 CALLDATALOAD PUSH2 0x1235 JUMP JUMPDEST PUSH1 0x4 CALLDATALOAD PUSH2 0x1235 JUMP JUMPDEST DUP1 PUSH2 0xA3A JUMPI JUMPDEST PUSH1 0x1 PUSH32 0x9B779B17422D0DF92223018B32B4D1FA46E071723D6817E2486D003BECC55F00 SSTORE STOP JUMPDEST PUSH1 0x2 SLOAD PUSH2 0xA72 SWAP1 DUP3 SWAP1 PUSH1 0x1 PUSH1 0x1 PUSH1 0xA0 SHL SUB AND PUSH32 0x0 PUSH2 0x118E JUMP JUMPDEST PUSH1 0x40 MLOAD SWAP1 DUP2 MSTORE PUSH32 0xA975A09ADFDE26F80B86FFF679053171394A831309CB05F28D7F35FC5F3DBCF7 PUSH1 0x20 PUSH1 0x4 CALLDATALOAD SWAP3 LOG2 DUP1 PUSH2 0xA14 JUMP JUMPDEST DUP14 SWAP11 SWAP10 SWAP9 SWAP8 SWAP7 SWAP5 SWAP3 SWAP6 SWAP4 SWAP16 SWAP2 PUSH2 0xABB SWAP2 PUSH2 0x1132 JUMP JUMPDEST PUSH2 0xAC4 SWAP2 PUSH2 0x113F JUMP JUMPDEST SWAP14 SWAP2 SWAP4 SWAP1 SWAP3 SWAP5 SWAP6 SWAP7 SWAP8 SWAP9 CODESIZE PUSH2 0x994 JUMP JUMPDEST SWAP12 SWAP14 POP PUSH1 0x0 SWAP12 PUSH2 0x974 JUMP JUMPDEST SWAP7 PUSH2 0xAEA SWAP2 SWAP12 PUSH2 0x113F JUMP JUMPDEST SWAP10 PUSH1 0x0 SWAP7 PUSH2 0x96A JUMP JUMPDEST SWAP3 PUSH2 0xAFE SWAP2 SWAP8 PUSH2 0x113F JUMP JUMPDEST SWAP6 PUSH1 0x0 SWAP3 PUSH2 0x963 JUMP JUMPDEST SWAP9 SWAP4 SWAP8 SWAP3 SWAP10 SWAP12 SWAP6 SWAP1 SWAP7 SWAP2 SWAP11 SWAP5 PUSH1 0x4 CALLDATALOAD PUSH1 0x0 MSTORE PUSH1 0x4 PUSH1 0x20 MSTORE PUSH1 0x40 PUSH1 0x0 KECCAK256 PUSH2 0xB2E DUP12 DUP7 DUP7 PUSH2 0x120F JUMP JUMPDEST CALLDATALOAD PUSH1 0x0 MSTORE PUSH1 0x20 MSTORE PUSH1 0x40 PUSH1 0x0 KECCAK256 SWAP9 PUSH1 0x1 DUP1 PUSH1 0xA0 SHL SUB DUP11 SLOAD AND ISZERO PUSH2 0xC48 JUMPI PUSH1 0x2 DUP11 ADD SLOAD SWAP12 PUSH1 0xFF DUP14 PUSH1 0x8 SHR AND PUSH2 0xC19 JUMPI PUSH1 0xFF DUP14 DUP12 SWAP16 SWAP12 PUSH1 0x1F SWAP3 DUP4 SWAP3 AND XOR AND XOR SWAP10 PUSH1 0x0 JUMPDEST PUSH1 0xFF DUP13 AND ISZERO PUSH2 0xBA6 JUMPI PUSH1 0xFF DUP1 DUP3 AND EQ PUSH2 0x65E JUMPI PUSH1 0xFF PUSH1 0x1 SWAP2 AND ADD SWAP11 PUSH1 0xFF PUSH1 0x0 NOT DUP2 DUP4 AND ADD GT PUSH2 0x65E JUMPI PUSH1 0xFF DUP2 AND PUSH1 0x0 NOT ADD AND SWAP11 PUSH2 0xB6E JUMP JUMPDEST SWAP10 SWAP16 SWAP2 SWAP7 SWAP12 SWAP3 SWAP8 SWAP13 SWAP14 SWAP4 SWAP9 SWAP15 SWAP5 SWAP10 PUSH1 0x3 SWAP2 SWAP7 SWAP12 POP PUSH1 0xFF AND SUB PUSH2 0xBE7 JUMPI PUSH1 0x1 PUSH2 0xBE0 SWAP3 PUSH2 0x100 DUP3 SWAP6 PUSH2 0xFF00 NOT AND OR PUSH1 0x2 DUP3 ADD SSTORE ADD SLOAD SWAP1 PUSH2 0x113F JUMP JUMPDEST SWAP11 ADD PUSH2 0x8F6 JUMP JUMPDEST PUSH1 0x40 MLOAD PUSH3 0x461BCD PUSH1 0xE5 SHL DUP2 MSTORE PUSH1 0x20 PUSH1 0x4 DUP3 ADD MSTORE PUSH1 0xA PUSH1 0x24 DUP3 ADD MSTORE PUSH10 0x3BB937B733903A34B2B9 PUSH1 0xB1 SHL PUSH1 0x44 DUP3 ADD MSTORE PUSH1 0x64 SWAP1 REVERT JUMPDEST PUSH1 0x40 MLOAD PUSH3 0x461BCD PUSH1 0xE5 SHL DUP2 MSTORE PUSH1 0x20 PUSH1 0x4 DUP3 ADD MSTORE PUSH1 0x7 PUSH1 0x24 DUP3 ADD MSTORE PUSH7 0x191D5C081D1A59 PUSH1 0xCA SHL PUSH1 0x44 DUP3 ADD MSTORE PUSH1 0x64 SWAP1 REVERT JUMPDEST PUSH1 0x40 MLOAD PUSH3 0x461BCD PUSH1 0xE5 SHL DUP2 MSTORE PUSH1 0x20 PUSH1 0x4 DUP3 ADD MSTORE PUSH1 0x7 PUSH1 0x24 DUP3 ADD MSTORE PUSH7 0x189859081D1A59 PUSH1 0xCA SHL PUSH1 0x44 DUP3 ADD MSTORE PUSH1 0x64 SWAP1 REVERT JUMPDEST SWAP8 SWAP2 SWAP9 SWAP3 SWAP11 SWAP5 SWAP10 SWAP4 SWAP7 SWAP1 SWAP6 PUSH1 0x4 CALLDATALOAD PUSH1 0x0 MSTORE PUSH1 0x4 PUSH1 0x20 MSTORE DUP12 PUSH2 0xC9E DUP11 PUSH1 0x40 PUSH1 0x0 KECCAK256 SWAP3 DUP14 PUSH2 0x120F JUMP JUMPDEST CALLDATALOAD PUSH1 0x0 MSTORE PUSH1 0x20 MSTORE PUSH1 0x40 PUSH1 0x0 KECCAK256 SWAP8 PUSH1 0x1 DUP1 PUSH1 0xA0 SHL SUB DUP10 SLOAD AND ISZERO PUSH2 0xC48 JUMPI PUSH1 0xFF SWAP13 PUSH1 0x2 DUP11 ADD SLOAD SWAP14 DUP15 PUSH1 0x8 SHR AND PUSH2 0xC19 JUMPI PUSH1 0xFF DUP15 DUP8 PUSH1 0x1F SWAP3 DUP4 SWAP3 AND XOR AND XOR SWAP12 DUP13 PUSH1 0xFF PUSH1 0x0 SWAP2 JUMPDEST AND ISZERO PUSH2 0xD1C JUMPI PUSH1 0xFF AND SWAP10 PUSH1 0xFF DUP12 EQ PUSH2 0x65E JUMPI PUSH1 0xFF PUSH1 0x1 DUP16 SWAP13 ADD SWAP12 DUP2 PUSH1 0x0 NOT SWAP2 AND ADD GT PUSH2 0x65E JUMPI PUSH1 0xFF SWAP14 PUSH1 0x0 NOT DUP16 DUP3 AND ADD AND SWAP14 DUP15 SWAP12 SWAP2 SWAP12 PUSH2 0xCE1 JUMP JUMPDEST PUSH1 0x4 SWAP2 SWAP7 SWAP13 SWAP10 SWAP16 SWAP5 SWAP11 SWAP6 SWAP12 SWAP4 SWAP9 SWAP15 SWAP3 SWAP8 SWAP14 POP PUSH1 0xFF AND SUB PUSH2 0xBE7 JUMPI PUSH1 0x1 PUSH2 0xD54 SWAP3 PUSH2 0x100 DUP3 SWAP6 PUSH2 0xFF00 NOT AND OR PUSH1 0x2 DUP3 ADD SSTORE ADD SLOAD SWAP1 PUSH2 0x113F JUMP JUMPDEST SWAP6 ADD PUSH2 0x8E8 JUMP JUMPDEST SWAP6 SWAP10 SWAP3 SWAP5 SWAP7 PUSH1 0x4 SWAP10 SWAP3 SWAP5 SWAP10 SWAP9 SWAP2 SWAP9 CALLDATALOAD PUSH1 0x0 MSTORE PUSH1 0x4 PUSH1 0x20 MSTORE PUSH1 0x40 PUSH1 0x0 KECCAK256 PUSH2 0xD82 DUP9 DUP9 DUP8 PUSH2 0x120F JUMP JUMPDEST CALLDATALOAD PUSH1 0x0 MSTORE PUSH1 0x20 MSTORE PUSH1 0x40 PUSH1 0x0 KECCAK256 SWAP11 PUSH1 0x1 DUP1 PUSH1 0xA0 SHL SUB DUP13 SLOAD AND ISZERO PUSH2 0xC48 JUMPI PUSH1 0x2 DUP13 ADD SLOAD SWAP9 PUSH1 0xFF DUP11 PUSH1 0x8 SHR AND PUSH2 0xC19 JUMPI PUSH1 0x1F SWAP8 SWAP7 SWAP8 DUP1 DUP6 PUSH1 0xFF DUP14 AND XOR AND XOR SWAP7 PUSH1 0x0 SWAP8 JUMPDEST PUSH1 0xFF DUP2 AND SWAP9 DUP10 ISZERO PUSH2 0xDEF JUMPI PUSH1 0xFF AND PUSH1 0xFF DUP2 EQ PUSH2 0x65E JUMPI PUSH1 0x1 ADD SWAP9 PUSH1 0x0 NOT ADD SWAP1 PUSH1 0xFF DUP3 GT PUSH2 0x65E JUMPI AND PUSH2 0xDC2 JUMP JUMPDEST PUSH1 0x5 SWAP3 SWAP9 SWAP16 SWAP5 SWAP12 SWAP10 POP PUSH1 0xFF SWAP2 POP SWAP14 SWAP3 SWAP10 SWAP7 SWAP14 SWAP13 SWAP6 SWAP13 SWAP12 SWAP5 SWAP12 AND SUB PUSH2 0xBE7 JUMPI PUSH1 0x1 PUSH2 0xE2B SWAP3 PUSH2 0x100 DUP3 SWAP6 PUSH2 0xFF00 NOT AND OR PUSH1 0x2 DUP3 ADD SSTORE ADD SLOAD SWAP1 PUSH2 0x113F JUMP JUMPDEST SWAP5 ADD PUSH2 0x8DA JUMP JUMPDEST PUSH1 0x2 SLOAD PUSH2 0xE69 SWAP2 SWAP1 PUSH1 0x1 PUSH1 0x1 PUSH1 0xA0 SHL SUB AND PUSH32 0x0 PUSH2 0x118E JUMP JUMPDEST DUP10 PUSH2 0x8D3 JUMP JUMPDEST PUSH1 0x40 MLOAD PUSH3 0x461BCD PUSH1 0xE5 SHL DUP2 MSTORE PUSH1 0x20 PUSH1 0x4 DUP3 ADD MSTORE PUSH1 0xE PUSH1 0x24 DUP3 ADD MSTORE PUSH14 0x3130B2103932B9B7B63ABA34B7B7 PUSH1 0x91 SHL PUSH1 0x44 DUP3 ADD MSTORE PUSH1 0x64 SWAP1 REVERT JUMPDEST PUSH1 0x40 MLOAD PUSH3 0x461BCD PUSH1 0xE5 SHL DUP2 MSTORE PUSH1 0x20 PUSH1 0x4 DUP3 ADD MSTORE PUSH1 0x9 PUSH1 0x24 DUP3 ADD MSTORE PUSH9 0x746F6F206561726C79 PUSH1 0xB8 SHL PUSH1 0x44 DUP3 ADD MSTORE PUSH1 0x64 SWAP1 REVERT JUMPDEST PUSH1 0x40 MLOAD PUSH3 0x461BCD PUSH1 0xE5 SHL DUP2 MSTORE PUSH1 0x20 PUSH1 0x4 DUP3 ADD MSTORE PUSH1 0x9 PUSH1 0x24 DUP3 ADD MSTORE PUSH9 0x626164207374617465 PUSH1 0xB8 SHL PUSH1 0x44 DUP3 ADD MSTORE PUSH1 0x64 SWAP1 REVERT JUMPDEST POP PUSH1 0xFF DUP3 PUSH1 0x48 SHR AND ISZERO PUSH2 0x85F JUMP JUMPDEST CALLVALUE PUSH2 0x19C JUMPI PUSH1 0x0 CALLDATASIZE PUSH1 0x3 NOT ADD SLT PUSH2 0x19C JUMPI PUSH1 0x40 MLOAD PUSH32 0x0 PUSH1 0x1 PUSH1 0x1 PUSH1 0xA0 SHL SUB AND DUP2 MSTORE PUSH1 0x20 SWAP1 RETURN JUMPDEST CALLVALUE PUSH2 0x19C JUMPI PUSH1 0x40 CALLDATASIZE PUSH1 0x3 NOT ADD SLT PUSH2 0x19C JUMPI PUSH1 0x4 CALLDATALOAD PUSH1 0x24 CALLDATALOAD PUSH8 0xFFFFFFFFFFFFFFFF DUP1 DUP3 AND DUP1 SWAP3 SUB PUSH2 0x19C JUMPI PUSH2 0xF99 PUSH1 0x1 DUP1 PUSH1 0xA0 SHL SUB PUSH1 0x1 SLOAD AND CALLER EQ PUSH2 0x10F7 JUMP JUMPDEST DUP3 PUSH1 0x0 MSTORE PUSH1 0x3 PUSH1 0x20 MSTORE PUSH1 0x40 PUSH1 0x0 KECCAK256 SLOAD AND PUSH2 0x102B JUMPI TIMESTAMP DUP2 GT ISZERO PUSH2 0x1000 JUMPI PUSH1 0x20 PUSH32 0x7595A3BF45D01EF9254AE39F1EC19BE2262703373153BDE26E12A962B0532299 SWAP2 DUP4 PUSH1 0x0 MSTORE PUSH1 0x3 DUP3 MSTORE PUSH1 0x40 PUSH1 0x0 KECCAK256 DUP2 PUSH8 0xFFFFFFFFFFFFFFFF NOT DUP3 SLOAD AND OR SWAP1 SSTORE PUSH1 0x40 MLOAD SWAP1 DUP2 MSTORE LOG2 STOP JUMPDEST PUSH1 0x64 PUSH1 0x40 MLOAD PUSH3 0x461BCD PUSH1 0xE5 SHL DUP2 MSTORE PUSH1 0x20 PUSH1 0x4 DUP3 ADD MSTORE PUSH1 0x4 PUSH1 0x24 DUP3 ADD MSTORE PUSH4 0x1C185CDD PUSH1 0xE2 SHL PUSH1 0x44 DUP3 ADD MSTORE REVERT JUMPDEST PUSH1 0x40 MLOAD PUSH3 0x461BCD PUSH1 0xE5 SHL DUP2 MSTORE PUSH1 0x20 PUSH1 0x4 DUP3 ADD MSTORE PUSH1 0x6 PUSH1 0x24 DUP3 ADD MSTORE PUSH6 0x657869737473 PUSH1 0xD0 SHL PUSH1 0x44 DUP3 ADD MSTORE PUSH1 0x64 SWAP1 REVERT JUMPDEST CALLVALUE PUSH2 0x19C JUMPI PUSH1 0x20 CALLDATASIZE PUSH1 0x3 NOT ADD SLT PUSH2 0x19C JUMPI PUSH1 0x4 CALLDATALOAD PUSH1 0x0 MSTORE PUSH1 0x5 PUSH1 0x20 MSTORE PUSH1 0x20 PUSH1 0x40 PUSH1 0x0 KECCAK256 SLOAD PUSH1 0x40 MLOAD SWAP1 DUP2 MSTORE RETURN JUMPDEST CALLVALUE PUSH2 0x19C JUMPI PUSH1 0x0 CALLDATASIZE PUSH1 0x3 NOT ADD SLT PUSH2 0x19C JUMPI DUP1 PUSH2 0x5DC PUSH1 0x20 SWAP3 MSTORE RETURN JUMPDEST PUSH1 0x24 CALLDATALOAD SWAP1 PUSH1 0xFF DUP3 AND DUP3 SUB PUSH2 0x19C JUMPI JUMP JUMPDEST SWAP2 DUP2 PUSH1 0x1F DUP5 ADD SLT ISZERO PUSH2 0x19C JUMPI DUP3 CALLDATALOAD SWAP2 PUSH8 0xFFFFFFFFFFFFFFFF DUP4 GT PUSH2 0x19C JUMPI PUSH1 0x20 DUP1 DUP6 ADD SWAP5 DUP5 PUSH1 0x5 SHL ADD ADD GT PUSH2 0x19C JUMPI JUMP JUMPDEST PUSH1 0x40 SWAP1 PUSH1 0x3 NOT ADD SLT PUSH2 0x19C JUMPI PUSH1 0x4 CALLDATALOAD SWAP1 PUSH1 0x24 CALLDATALOAD SWAP1 JUMP JUMPDEST ISZERO PUSH2 0x10FE JUMPI JUMP JUMPDEST PUSH1 0x40 MLOAD PUSH3 0x461BCD PUSH1 0xE5 SHL DUP2 MSTORE PUSH1 0x20 PUSH1 0x4 DUP3 ADD MSTORE PUSH1 0xC PUSH1 0x24 DUP3 ADD MSTORE PUSH12 0x3737BA1037B832B930BA37B9 PUSH1 0xA1 SHL PUSH1 0x44 DUP3 ADD MSTORE PUSH1 0x64 SWAP1 REVERT JUMPDEST SWAP2 SWAP1 DUP3 SUB SWAP2 DUP3 GT PUSH2 0x65E JUMPI JUMP JUMPDEST SWAP2 SWAP1 DUP3 ADD DUP1 SWAP3 GT PUSH2 0x65E JUMPI JUMP JUMPDEST PUSH32 0x9B779B17422D0DF92223018B32B4D1FA46E071723D6817E2486D003BECC55F00 PUSH1 0x2 DUP2 SLOAD EQ PUSH2 0x117C JUMPI PUSH1 0x2 SWAP1 SSTORE JUMP JUMPDEST PUSH1 0x40 MLOAD PUSH4 0x3EE5AEB5 PUSH1 0xE0 SHL DUP2 MSTORE PUSH1 0x4 SWAP1 REVERT JUMPDEST PUSH1 0x40 MLOAD PUSH4 0xA9059CBB PUSH1 0xE0 SHL PUSH1 0x0 SWAP1 DUP2 MSTORE PUSH1 0x1 PUSH1 0x1 PUSH1 0xA0 SHL SUB SWAP4 DUP5 AND PUSH1 0x4 MSTORE PUSH1 0x24 SWAP5 SWAP1 SWAP5 MSTORE SWAP3 PUSH1 0x20 SWAP1 PUSH1 0x44 DUP2 DUP1 DUP6 GAS CALL PUSH1 0x1 PUSH1 0x0 MLOAD EQ DUP2 AND ISZERO PUSH2 0x11EF JUMPI JUMPDEST DUP4 PUSH1 0x40 MSTORE ISZERO PUSH2 0x11D9 JUMPI POP POP POP JUMP JUMPDEST PUSH4 0x5274AFE7 PUSH1 0xE0 SHL DUP4 MSTORE AND PUSH1 0x4 DUP3 ADD MSTORE PUSH1 0x24 SWAP2 POP REVERT JUMPDEST PUSH1 0x1 DUP2 ISZERO AND PUSH2 0x1205 JUMPI DUP2 EXTCODESIZE ISZERO ISZERO RETURNDATASIZE ISZERO AND AND PUSH2 0x11CB JUMP JUMPDEST DUP4 RETURNDATASIZE PUSH1 0x0 DUP3 RETURNDATACOPY RETURNDATASIZE SWAP1 REVERT JUMPDEST SWAP2 SWAP1 DUP2 LT ISZERO PUSH2 0x121F JUMPI PUSH1 0x5 SHL ADD SWAP1 JUMP JUMPDEST PUSH4 0x4E487B71 PUSH1 0xE0 SHL PUSH1 0x0 MSTORE PUSH1 0x32 PUSH1 0x4 MSTORE PUSH1 0x24 PUSH1 0x0 REVERT JUMPDEST SWAP4 SWAP1 SWAP3 SWAP2 SWAP4 DUP3 ISZERO SWAP2 DUP3 DUP1 ISZERO PUSH2 0x13E7 JUMPI JUMPDEST PUSH2 0x13DF JUMPI PUSH1 0x0 SWAP7 SWAP6 SWAP5 DUP8 JUMPDEST DUP7 DUP10 LT PUSH2 0x1262 JUMPI POP POP POP POP POP POP POP SWAP1 POP JUMP JUMPDEST DUP4 PUSH1 0x0 MSTORE PUSH1 0x4 SWAP1 PUSH1 0x20 DUP3 DUP2 MSTORE PUSH1 0x40 PUSH1 0x0 KECCAK256 PUSH2 0x127E DUP13 DUP12 DUP8 PUSH2 0x120F JUMP JUMPDEST CALLDATALOAD PUSH1 0x0 MSTORE DUP2 MSTORE PUSH1 0x40 PUSH1 0x0 KECCAK256 SWAP2 PUSH1 0x1 DUP4 ADD SLOAD DUP1 DUP11 MUL SWAP1 DUP11 DUP3 DIV EQ DUP10 OR ISZERO PUSH2 0x13CA JUMPI DUP7 ISZERO PUSH2 0x13B5 JUMPI DUP7 SWAP1 DIV SWAP4 PUSH1 0x0 NOT DUP12 ADD SWAP1 DUP12 DUP3 GT PUSH2 0x13A0 JUMPI POP PUSH1 0x1 SWAP5 SWAP3 DUP14 DUP1 SWAP6 SWAP4 DUP14 SWAP15 SWAP16 DUP12 SWAP5 DUP15 SWAP2 EQ PUSH2 0x135D JUMPI JUMPDEST POP PUSH32 0xB3EC26F90E981D944F630DD197D3E82BE1B23A68D8668ECED0AF40810E8EC89B SWAP3 SWAP2 PUSH2 0x12FC DUP8 PUSH2 0x1309 SWAP4 PUSH2 0x113F JUMP JUMPDEST SWAP15 DUP8 PUSH2 0x1325 JUMPI JUMPDEST DUP11 PUSH2 0x120F JUMP JUMPDEST CALLDATALOAD SWAP4 DUP8 DUP1 PUSH1 0xA0 SHL SUB SWAP1 SLOAD AND SWAP5 PUSH1 0x40 MLOAD SWAP1 DUP2 MSTORE LOG4 ADD SWAP8 SWAP7 SWAP6 PUSH2 0x1250 JUMP JUMPDEST PUSH2 0x1358 DUP9 DUP12 DUP1 PUSH1 0xA0 SHL SUB DUP10 SLOAD AND PUSH32 0x0 PUSH2 0x118E JUMP JUMPDEST PUSH2 0x1303 JUMP JUMPDEST DUP2 SWAP7 POP SWAP2 PUSH2 0x12FC PUSH2 0x1393 PUSH2 0x1309 SWAP4 PUSH32 0xB3EC26F90E981D944F630DD197D3E82BE1B23A68D8668ECED0AF40810E8EC89B SWAP7 SWAP6 PUSH2 0x1132 JUMP JUMPDEST SWAP8 SWAP3 POP POP SWAP2 SWAP3 POP DUP13 PUSH2 0x12CB JUMP JUMPDEST PUSH1 0x11 SWAP1 PUSH4 0x4E487B71 PUSH1 0xE0 SHL PUSH1 0x0 MSTORE MSTORE PUSH1 0x24 PUSH1 0x0 REVERT JUMPDEST PUSH1 0x12 DUP6 PUSH4 0x4E487B71 PUSH1 0xE0 SHL PUSH1 0x0 MSTORE MSTORE PUSH1 0x24 PUSH1 0x0 REVERT JUMPDEST PUSH1 0x11 DUP6 PUSH4 0x4E487B71 PUSH1 0xE0 SHL PUSH1 0x0 MSTORE MSTORE PUSH1 0x24 PUSH1 0x0 REVERT JUMPDEST POP POP POP POP POP POP JUMP JUMPDEST POP DUP1 ISZERO PUSH2 0x1245 JUMP JUMPDEST PUSH1 0x0 SLOAD PUSH1 0x1 PUSH1 0x1 PUSH1 0xA0 SHL SUB AND CALLER SUB PUSH2 0x1403 JUMPI JUMP JUMPDEST PUSH1 0x40 MLOAD PUSH4 0x118CDAA7 PUSH1 0xE0 SHL DUP2 MSTORE CALLER PUSH1 0x4 DUP3 ADD MSTORE PUSH1 0x24 SWAP1 REVERT INVALID LOG2 PUSH5 0x6970667358 0x22 SLT KECCAK256 CALLDATASIZE 0xD0 BLOBBASEFEE PUSH17 0x925FBD89C6F99B9495811923A35B97533 0xDD 0xBA STOP DUP15 0xB4 0xB4 SGT 0xE1 GT PUSH14 0x1464736F6C634300081800330000 "},"methodIdentifiers":{"BPS_DENOMINATOR()":"e1a45218","PICKS_MASK()":"bb369f90","RAKE_BPS()":"e9a892c0","TIER_3_BPS()":"020183d8","TIER_4_BPS()":"958e097c","TIER_5_BPS()":"d746d283","createMarket(uint256,uint64)":"3c8773a8","getMarket(uint256)":"eb44fdd3","getTicket(uint256,uint256)":"a426e4c8","markets(uint256)":"b1283e77","operator()":"570ca735","owner()":"8da5cb5b","placeTicket(uint256,uint8,uint256)":"6e0d5c40","renounceOwnership()":"715018a6","setOperator(address)":"b3ab15fb","setTreasury(address)":"f0f44260","settleAndPayout(uint256,uint8,uint256[],uint256[],uint256[])":"4f88eb6d","ticketCount(uint256)":"0c63f832","tickets(uint256,uint256)":"a374e43f","transferOwnership(address)":"f2fde38b","treasury()":"61d027b3","usdc()":"3e413bee"}}}}}