{"contracts/PollaBets.sol":{"PollaBets":{"abi":[{"inputs":[{"internalType":"address","name":"_usdc","type":"address"},{"internalType":"address","name":"_treasury","type":"address"}],"stateMutability":"nonpayable","type":"constructor"},{"inputs":[{"internalType":"address","name":"owner","type":"address"}],"name":"OwnableInvalidOwner","type":"error"},{"inputs":[{"internalType":"address","name":"account","type":"address"}],"name":"OwnableUnauthorizedAccount","type":"error"},{"inputs":[],"name":"ReentrancyGuardReentrantCall","type":"error"},{"inputs":[{"internalType":"address","name":"token","type":"address"}],"name":"SafeERC20FailedOperation","type":"error"},{"anonymous":false,"inputs":[{"indexed":true,"internalType":"bytes32","name":"marketId","type":"bytes32"},{"indexed":true,"internalType":"address","name":"user","type":"address"},{"indexed":false,"internalType":"uint8","name":"outcome","type":"uint8"},{"indexed":false,"internalType":"uint256","name":"amount","type":"uint256"}],"name":"BetPlaced","type":"event"},{"anonymous":false,"inputs":[{"indexed":true,"internalType":"bytes32","name":"marketId","type":"bytes32"},{"indexed":true,"internalType":"address","name":"user","type":"address"},{"indexed":false,"internalType":"uint256","name":"amount","type":"uint256"}],"name":"Claimed","type":"event"},{"anonymous":false,"inputs":[{"indexed":true,"internalType":"bytes32","name":"marketId","type":"bytes32"}],"name":"MarketCancelled","type":"event"},{"anonymous":false,"inputs":[{"indexed":true,"internalType":"bytes32","name":"marketId","type":"bytes32"},{"indexed":false,"internalType":"uint8","name":"numOutcomes","type":"uint8"},{"indexed":false,"internalType":"uint256","name":"closingTime","type":"uint256"}],"name":"MarketCreated","type":"event"},{"anonymous":false,"inputs":[{"indexed":true,"internalType":"bytes32","name":"marketId","type":"bytes32"},{"indexed":false,"internalType":"uint8","name":"winningOutcome","type":"uint8"}],"name":"MarketResolved","type":"event"},{"anonymous":false,"inputs":[{"indexed":true,"internalType":"address","name":"previousOwner","type":"address"},{"indexed":true,"internalType":"address","name":"newOwner","type":"address"}],"name":"OwnershipTransferred","type":"event"},{"anonymous":false,"inputs":[{"indexed":true,"internalType":"bytes32","name":"marketId","type":"bytes32"},{"indexed":true,"internalType":"address","name":"user","type":"address"},{"indexed":false,"internalType":"uint256","name":"amount","type":"uint256"}],"name":"Refunded","type":"event"},{"inputs":[],"name":"BPS_DENOMINATOR","outputs":[{"internalType":"uint256","name":"","type":"uint256"}],"stateMutability":"view","type":"function"},{"inputs":[],"name":"FEE_BPS","outputs":[{"internalType":"uint256","name":"","type":"uint256"}],"stateMutability":"view","type":"function"},{"inputs":[{"internalType":"bytes32","name":"marketId","type":"bytes32"}],"name":"cancelMarket","outputs":[],"stateMutability":"nonpayable","type":"function"},{"inputs":[{"internalType":"bytes32","name":"marketId","type":"bytes32"}],"name":"claim","outputs":[],"stateMutability":"nonpayable","type":"function"},{"inputs":[{"internalType":"bytes32","name":"marketId","type":"bytes32"}],"name":"claimRefund","outputs":[],"stateMutability":"nonpayable","type":"function"},{"inputs":[{"internalType":"bytes32","name":"","type":"bytes32"},{"internalType":"address","name":"","type":"address"}],"name":"claimed","outputs":[{"internalType":"bool","name":"","type":"bool"}],"stateMutability":"view","type":"function"},{"inputs":[{"internalType":"bytes32","name":"matchId","type":"bytes32"},{"internalType":"uint8","name":"numOutcomes","type":"uint8"},{"internalType":"uint256","name":"closingTime","type":"uint256"}],"name":"createMarket","outputs":[],"stateMutability":"nonpayable","type":"function"},{"inputs":[{"internalType":"bytes32","name":"marketId","type":"bytes32"}],"name":"getMarket","outputs":[{"internalType":"uint8","name":"numOutcomes","type":"uint8"},{"internalType":"uint256","name":"closingTime","type":"uint256"},{"internalType":"bool","name":"resolved","type":"bool"},{"internalType":"bool","name":"cancelled","type":"bool"},{"internalType":"uint8","name":"winningOutcome","type":"uint8"},{"internalType":"uint256","name":"totalPool","type":"uint256"},{"internalType":"uint256[]","name":"pools","type":"uint256[]"}],"stateMutability":"view","type":"function"},{"inputs":[{"internalType":"bytes32","name":"marketId","type":"bytes32"}],"name":"getOdds","outputs":[{"internalType":"uint256[]","name":"odds","type":"uint256[]"}],"stateMutability":"view","type":"function"},{"inputs":[{"internalType":"bytes32","name":"marketId","type":"bytes32"},{"internalType":"address","name":"user","type":"address"}],"name":"getUserBet","outputs":[{"internalType":"uint256[]","name":"bets","type":"uint256[]"}],"stateMutability":"view","type":"function"},{"inputs":[{"internalType":"bytes32","name":"","type":"bytes32"}],"name":"markets","outputs":[{"internalType":"uint8","name":"numOutcomes","type":"uint8"},{"internalType":"uint256","name":"closingTime","type":"uint256"},{"internalType":"bool","name":"resolved","type":"bool"},{"internalType":"bool","name":"cancelled","type":"bool"},{"internalType":"uint8","name":"winningOutcome","type":"uint8"},{"internalType":"uint256","name":"totalPool","type":"uint256"}],"stateMutability":"view","type":"function"},{"inputs":[],"name":"owner","outputs":[{"internalType":"address","name":"","type":"address"}],"stateMutability":"view","type":"function"},{"inputs":[{"internalType":"bytes32","name":"marketId","type":"bytes32"},{"internalType":"uint8","name":"outcome","type":"uint8"},{"internalType":"uint256","name":"amount","type":"uint256"}],"name":"placeBet","outputs":[],"stateMutability":"nonpayable","type":"function"},{"inputs":[{"internalType":"bytes32","name":"","type":"bytes32"},{"internalType":"uint8","name":"","type":"uint8"}],"name":"poolPerOutcome","outputs":[{"internalType":"uint256","name":"","type":"uint256"}],"stateMutability":"view","type":"function"},{"inputs":[],"name":"renounceOwnership","outputs":[],"stateMutability":"nonpayable","type":"function"},{"inputs":[{"internalType":"bytes32","name":"marketId","type":"bytes32"},{"internalType":"uint8","name":"winningOutcome","type":"uint8"}],"name":"resolve","outputs":[],"stateMutability":"nonpayable","type":"function"},{"inputs":[{"internalType":"address","name":"_treasury","type":"address"}],"name":"setTreasury","outputs":[],"stateMutability":"nonpayable","type":"function"},{"inputs":[{"internalType":"address","name":"newOwner","type":"address"}],"name":"transferOwnership","outputs":[],"stateMutability":"nonpayable","type":"function"},{"inputs":[],"name":"treasury","outputs":[{"internalType":"address","name":"","type":"address"}],"stateMutability":"view","type":"function"},{"inputs":[],"name":"usdc","outputs":[{"internalType":"contract IERC20","name":"","type":"address"}],"stateMutability":"view","type":"function"},{"inputs":[{"internalType":"bytes32","name":"","type":"bytes32"},{"internalType":"address","name":"","type":"address"},{"internalType":"uint8","name":"","type":"uint8"}],"name":"userBets","outputs":[{"internalType":"uint256","name":"","type":"uint256"}],"stateMutability":"view","type":"function"},{"inputs":[{"internalType":"bytes32","name":"","type":"bytes32"},{"internalType":"address","name":"","type":"address"}],"name":"userTotalBet","outputs":[{"internalType":"uint256","name":"","type":"uint256"}],"stateMutability":"view","type":"function"}],"evm":{"bytecode":{"linkReferences":{},"object":"60a03461011957601f6115bf38819003918201601f19168301916001600160401b0383118484101761011e57808492604094855283398101031261011957610052602061004b83610134565b9201610134565b903315610100576000549160018060a01b03908160018060a01b031993338587161760005560405195823391167f8be0079c531659141344cd1fd0a4f28419497f9722a3daafe3b4186f6b6457e0600080a360017f9b779b17422d0df92223018b32b4d1fa46e071723d6817e2486d003becc55f00551660805216906001541617600155611476908161014982396080518181816107d301528181610b5201528181610d3b0152610f130152f35b604051631e4fbdf760e01b815260006004820152602490fd5b600080fd5b634e487b7160e01b600052604160045260246000fd5b51906001600160a01b03821682036101195756fe6040608081526004908136101561001557600080fd5b600091823560e01c80630bd1220914610e8657806328ee293614610d6a5780633e413bee14610d2657806344e3930314610c8d57806361d027b314610c64578063715018a614610c0a57806371de2ffc14610a9e57806375107b0c14610a405780637564912b146109d75780638da5cb5b146109af57806391b224121461096e57806391c14e8314610934578063bd66528a146106ad578063bdb832891461061e578063bf333f2c14610601578063c1caceb014610407578063c3c95c7b14610340578063dfcae622146102fa578063e1a45218146102d9578063e8ceea2f146101e4578063f0f442601461019c5763f2fde38b1461011357600080fd5b346101985760203660031901126101985761012c611169565b90610135611393565b6001600160a01b0391821692831561018257505082546001600160a01b0319811683178455167f8be0079c531659141344cd1fd0a4f28419497f9722a3daafe3b4186f6b6457e08380a380f35b51631e4fbdf760e01b8152908101849052602490fd5b8280fd5b83346101e15760203660031901126101e1576101b6611169565b6101be611393565b60018060a01b03166bffffffffffffffffffffffff60a01b600154161760015580f35b80fd5b5082346101e157602090816003193601126101e157823591828252600281528482209360ff9460ff81541692610219846112c1565b97855b88811690868210156102c3578990898952888c600380885286832086845288528683205490811580156102b8575b156102675750506001939461025e91611307565b525b011661021c565b92509294935050860154612710908181029181830414901517156102a55761029f6001936102998f93948f9795611331565b92611307565b52610260565b634e487b7160e01b8a526011885260248afd5b50808a01541561024a565b8251848152806102d58187018e61117f565b0390f35b5050346102f657816003193601126102f657602090516127108152f35b5080fd5b50346101985781600319360112610198578160209360ff9261031a611153565b90358252600686528282206001600160a01b039091168252855220549151911615158152f35b509190346102f6576020926020600319360112610198573580835260026020528183209160ff938484541695610375876112c1565b93825b878116898110156103ad5788916001918487526003865287872081885286526103a588882054918a611307565b520116610378565b878a6102d589898d6001860154956003600282015491015492805197889788526020880152828216151590870152818160081c161515606087015260101c16608085015260a084015260e060c084015260e083019061117f565b509190346102f6576104183661112f565b9192610422611393565b83855260206002815260ff82872054166105cf5760ff8316906002821015806105c4575b1561058f57428511156105565782519160c0830183811067ffffffffffffffff821117610543578761051f8a60ff87899761053d99976003977f2ad477767f2a1eec9e5d90cd6f88ed145ca4c8771f5325865ecff6c2966e45e59e9d9c5282528082018c8152838a808501968088526002606087019582875260a06080890198848a52019b838d528352522099511684198a54161789555160018901556002880193511515908361ff0086549251151560081b1692169061ffff191617178355511662ff000082549160101b169062ff00001916179055565b5191015551928392836020909392919360ff60408201951681520152565b0390a280f35b634e487b7160e01b895260418a52602489fd5b8760649184519162461bcd60e51b8352820152601460248201527310db1bdcda5b99c81d1a5b59481a5b881c185cdd60621b6044820152fd5b8760649184519162461bcd60e51b8352820152601060248201526f496e76616c6964206f7574636f6d657360801b6044820152fd5b506003821115610446565b8690606492519162461bcd60e51b8352820152600d60248201526c4d61726b65742065786973747360981b6044820152fd5b5050346102f657816003193601126102f657602090516101f48152f35b503461019857602036600319011261019857600290359161063d611393565b82845281602052832061065560ff82541615156111b3565b01610100815460ff8116158061069e575b61066f90611253565b61ff0019161790557f22ad0fb1e02d1db96e8800dac4e4b23821afaf9e1ca54d2093e7bc7fb8732b5a8280a280f35b50600881901c60ff1615610666565b509190346102f657602080600319360112610198578335906106cd611351565b8184526002815282842060028101805460ff8116156109025760ff8160081c166108b55784875260068452858720338852845260ff868820541661088057848752878452858720338852845260ff8688209160101c16875283528486205490811561084c57848752600684528587203388528452858720600160ff198254161790558487526003845260ff868820915460101c168752835260038587205492015480820291820403610839579061078391611331565b926101f4808502908582041485151715610839576127109004808503948511610839579061080b857f0508a8b4117d9a7b3d8f5895f6413e61b4f9a2df35afbfb41e78d0ecfff1843f94936108047f00000000000000000000000000000000000000000000000000000000000000009160018060a01b0360015416836113bf565b33906113bf565b519384523393a360017f9b779b17422d0df92223018b32b4d1fa46e071723d6817e2486d003becc55f005580f35b634e487b7160e01b865260118752602486fd5b855162461bcd60e51b8152808901859052600e60248201526d139bc81dda5b9b9a5b99c818995d60921b6044820152606490fd5b855162461bcd60e51b8152808901859052600f60248201526e105b1c9958591e4818db185a5b5959608a1b6044820152606490fd5b855162461bcd60e51b8152808901859052602160248201527f4d61726b65742063616e63656c6c65642c2075736520636c61696d526566756e6044820152601960fa1b6064820152608490fd5b855162461bcd60e51b8152808901859052600c60248201526b139bdd081c995cdbdb1d995960a21b6044820152606490fd5b5034610198578160031936011261019857602092829161095261111a565b903582526003855260ff83832091168252845220549051908152f35b5034610198578160031936011261019857602092829161098c611153565b90358252600585528282206001600160a01b039091168252845220549051908152f35b5050346102f657816003193601126102f657905490516001600160a01b039091168152602090f35b50346101985760203660031901126101985760c09282913581526002602052209060ff8083541692600181015492600360028301549201549381519586526020860152828216151590850152818160081c161515606085015260101c16608083015260a0820152f35b503461019857606036600319011261019857610a5a611153565b6044359160ff8316809303610a9a578035855260209081528385206001600160a01b03909216855290815282842091845290815291819020549051908152f35b8480fd5b50903461019857602080600319360112610c0657823591610abd611351565b8285526002825260ff6002828720015460081c1615610bd55782855260068252808520338652825260ff8186205416610ba15782855260058252808520338652825280852054938415610b765750907ff552ca82e113ac3c539c3d617f29fcd19c172a0c75dad017555c9e109f7fe18391838652600682528086203387528252808620600160ff1982541617905561080b85337f00000000000000000000000000000000000000000000000000000000000000006113bf565b82606492519162461bcd60e51b835282015260076024820152664e6f206265747360c81b6044820152fd5b5162461bcd60e51b81529283015250601060248201526f105b1c9958591e481c99599d5b99195960821b6044820152606490fd5b5162461bcd60e51b81529283015250600d60248201526c139bdd0818d85b98d95b1b1959609a1b6044820152606490fd5b8380fd5b83346101e157806003193601126101e157610c23611393565b80546001600160a01b03198116825581906001600160a01b03167f8be0079c531659141344cd1fd0a4f28419497f9722a3daafe3b4186f6b6457e08280a380f35b5050346102f657816003193601126102f65760015490516001600160a01b039091168152602090f35b508290346102f657826003193601126102f657803590610cab611153565b8284526020936002855260ff9460ff878320541692610cc9846112c1565b946001600160a01b0390911690835b88811686811015610d145789916001918a88528487528c882086895287528c88208189528752610d0c8d892054918b611307565b520116610cd8565b8a51858152806102d58188018b61117f565b5050346102f657816003193601126102f657517f00000000000000000000000000000000000000000000000000000000000000006001600160a01b03168152602090f35b503461019857816003193601126101985760207ff34984473148051bc1bdf1be6ecc462d7b228d591058a8a27977b84770b738b9913592610da961111a565b90610db2611393565b8486526002835280862091610e1d600260ff85541694610dd38615156111b3565b01916001835460ff81161580610e77575b610ded90611253565b610dfc60ff84169788106111f2565b62ff00001990911662ff00ff199091161760109190911b62ff000016178255565b8587526003845281872083885284528187205415610e3f575b5051908152a280f35b805461ff001916610100179055847f22ad0fb1e02d1db96e8800dac4e4b23821afaf9e1ca54d2093e7bc7fb8732b5a8780a238610e36565b50600881901c60ff1615610de4565b50903461019857610e963661112f565b91929093610ea2611351565b838652602090600282528287209060ff82541691610ec18315156111b3565b600281015460ff811615908161110b575b50156110d55760018101544210156110a257610ef360ff89169384106111f2565b85156110715784516323b872dd60e01b8a523383523060245260448790527f0000000000000000000000000000000000000000000000000000000000000000858b60648180855af160018c5114811615611052575b8288528b60605215611036575050917f22f4c9bb73a93d9507392476fa412371d3d5e19e74d8951567b76a7483dca1a0959391600361100c969401610f8e868254611230565b9055878a5260038352838a20828b528352838a20610fad868254611230565b9055878a528252828920338a5282528289209089528152818820610fd2848254611230565b9055858852600581528188209033895252808720610ff1838254611230565b90555160ff9095168552602085015233939081906040820190565b0390a360017f9b779b17422d0df92223018b32b4d1fa46e071723d6817e2486d003becc55f005580f35b635274afe760e01b82526001600160a01b031683820152602490fd5b600181151661106857813b15153d151616610f48565b823d8d823e3d90fd5b845162461bcd60e51b8152808301859052600b60248201526a16995c9bc8185b5bdd5b9d60aa1b6044820152606490fd5b845162461bcd60e51b8152808301859052600d60248201526c13585c9ad95d0818db1bdcd959609a1b6044820152606490fd5b845162461bcd60e51b8152808301859052601060248201526f13585c9ad95d08199a5b985b1a5e995960821b6044820152606490fd5b60ff915060081c161538610ed2565b6024359060ff8216820361112a57565b600080fd5b606090600319011261112a576004359060243560ff8116810361112a579060443590565b602435906001600160a01b038216820361112a57565b600435906001600160a01b038216820361112a57565b90815180825260208080930193019160005b82811061119f575050505090565b835185529381019392810192600101611191565b156111ba57565b60405162461bcd60e51b815260206004820152601060248201526f13585c9ad95d081b9bdd08199bdd5b9960821b6044820152606490fd5b156111f957565b60405162461bcd60e51b815260206004820152600f60248201526e496e76616c6964206f7574636f6d6560881b6044820152606490fd5b9190820180921161123d57565b634e487b7160e01b600052601160045260246000fd5b1561125a57565b60405162461bcd60e51b8152602060048201526011602482015270105b1c9958591e48199a5b985b1a5e9959607a1b6044820152606490fd5b67ffffffffffffffff81116112ab5760051b60200190565b634e487b7160e01b600052604160045260246000fd5b906112cb82611293565b60405190601f1990601f018116820167ffffffffffffffff8111838210176112ab576040528382526112fd8294611293565b0190602036910137565b805182101561131b5760209160051b010190565b634e487b7160e01b600052603260045260246000fd5b811561133b570490565b634e487b7160e01b600052601260045260246000fd5b7f9b779b17422d0df92223018b32b4d1fa46e071723d6817e2486d003becc55f0060028154146113815760029055565b604051633ee5aeb560e01b8152600490fd5b6000546001600160a01b031633036113a757565b60405163118cdaa760e01b8152336004820152602490fd5b60405163a9059cbb60e01b60009081526001600160a01b039384166004526024949094529260209060448180855af1600160005114811615611420575b836040521561140a57505050565b635274afe760e01b835216600482015260249150fd5b600181151661143657813b15153d1516166113fc565b833d6000823e3d90fdfea2646970667358221220b568c3832675ec583fbb340a31ad81649fa9cb5ad38ddfa685ddd0b80c1ad1b364736f6c63430008180033","opcodes":"PUSH1 0xA0 CALLVALUE PUSH2 0x119 JUMPI PUSH1 0x1F PUSH2 0x15BF CODESIZE DUP2 SWAP1 SUB SWAP2 DUP3 ADD PUSH1 0x1F NOT AND DUP4 ADD SWAP2 PUSH1 0x1 PUSH1 0x1 PUSH1 0x40 SHL SUB DUP4 GT DUP5 DUP5 LT OR PUSH2 0x11E JUMPI DUP1 DUP5 SWAP3 PUSH1 0x40 SWAP5 DUP6 MSTORE DUP4 CODECOPY DUP2 ADD SUB SLT PUSH2 0x119 JUMPI PUSH2 0x52 PUSH1 0x20 PUSH2 0x4B DUP4 PUSH2 0x134 JUMP JUMPDEST SWAP3 ADD PUSH2 0x134 JUMP JUMPDEST SWAP1 CALLER ISZERO PUSH2 0x100 JUMPI PUSH1 0x0 SLOAD SWAP2 PUSH1 0x1 DUP1 PUSH1 0xA0 SHL SUB SWAP1 DUP2 PUSH1 0x1 DUP1 PUSH1 0xA0 SHL SUB NOT SWAP4 CALLER DUP6 DUP8 AND OR PUSH1 0x0 SSTORE PUSH1 0x40 MLOAD SWAP6 DUP3 CALLER SWAP2 AND PUSH32 0x8BE0079C531659141344CD1FD0A4F28419497F9722A3DAAFE3B4186F6B6457E0 PUSH1 0x0 DUP1 LOG3 PUSH1 0x1 PUSH32 0x9B779B17422D0DF92223018B32B4D1FA46E071723D6817E2486D003BECC55F00 SSTORE AND PUSH1 0x80 MSTORE AND SWAP1 PUSH1 0x1 SLOAD AND OR PUSH1 0x1 SSTORE PUSH2 0x1476 SWAP1 DUP2 PUSH2 0x149 DUP3 CODECOPY PUSH1 0x80 MLOAD DUP2 DUP2 DUP2 PUSH2 0x7D3 ADD MSTORE DUP2 DUP2 PUSH2 0xB52 ADD MSTORE DUP2 DUP2 PUSH2 0xD3B ADD MSTORE PUSH2 0xF13 ADD MSTORE RETURN JUMPDEST PUSH1 0x40 MLOAD PUSH4 0x1E4FBDF7 PUSH1 0xE0 SHL DUP2 MSTORE PUSH1 0x0 PUSH1 0x4 DUP3 ADD MSTORE PUSH1 0x24 SWAP1 REVERT JUMPDEST PUSH1 0x0 DUP1 REVERT JUMPDEST PUSH4 0x4E487B71 PUSH1 0xE0 SHL PUSH1 0x0 MSTORE PUSH1 0x41 PUSH1 0x4 MSTORE PUSH1 0x24 PUSH1 0x0 REVERT JUMPDEST MLOAD SWAP1 PUSH1 0x1 PUSH1 0x1 PUSH1 0xA0 SHL SUB DUP3 AND DUP3 SUB PUSH2 0x119 JUMPI JUMP INVALID PUSH1 0x40 PUSH1 0x80 DUP2 MSTORE PUSH1 0x4 SWAP1 DUP2 CALLDATASIZE LT ISZERO PUSH2 0x15 JUMPI PUSH1 0x0 DUP1 REVERT JUMPDEST PUSH1 0x0 SWAP2 DUP3 CALLDATALOAD PUSH1 0xE0 SHR DUP1 PUSH4 0xBD12209 EQ PUSH2 0xE86 JUMPI DUP1 PUSH4 0x28EE2936 EQ PUSH2 0xD6A JUMPI DUP1 PUSH4 0x3E413BEE EQ PUSH2 0xD26 JUMPI DUP1 PUSH4 0x44E39303 EQ PUSH2 0xC8D JUMPI DUP1 PUSH4 0x61D027B3 EQ PUSH2 0xC64 JUMPI DUP1 PUSH4 0x715018A6 EQ PUSH2 0xC0A JUMPI DUP1 PUSH4 0x71DE2FFC EQ PUSH2 0xA9E JUMPI DUP1 PUSH4 0x75107B0C EQ PUSH2 0xA40 JUMPI DUP1 PUSH4 0x7564912B EQ PUSH2 0x9D7 JUMPI DUP1 PUSH4 0x8DA5CB5B EQ PUSH2 0x9AF JUMPI DUP1 PUSH4 0x91B22412 EQ PUSH2 0x96E JUMPI DUP1 PUSH4 0x91C14E83 EQ PUSH2 0x934 JUMPI DUP1 PUSH4 0xBD66528A EQ PUSH2 0x6AD JUMPI DUP1 PUSH4 0xBDB83289 EQ PUSH2 0x61E JUMPI DUP1 PUSH4 0xBF333F2C EQ PUSH2 0x601 JUMPI DUP1 PUSH4 0xC1CACEB0 EQ PUSH2 0x407 JUMPI DUP1 PUSH4 0xC3C95C7B EQ PUSH2 0x340 JUMPI DUP1 PUSH4 0xDFCAE622 EQ PUSH2 0x2FA JUMPI DUP1 PUSH4 0xE1A45218 EQ PUSH2 0x2D9 JUMPI DUP1 PUSH4 0xE8CEEA2F EQ PUSH2 0x1E4 JUMPI DUP1 PUSH4 0xF0F44260 EQ PUSH2 0x19C JUMPI PUSH4 0xF2FDE38B EQ PUSH2 0x113 JUMPI PUSH1 0x0 DUP1 REVERT JUMPDEST CALLVALUE PUSH2 0x198 JUMPI PUSH1 0x20 CALLDATASIZE PUSH1 0x3 NOT ADD SLT PUSH2 0x198 JUMPI PUSH2 0x12C PUSH2 0x1169 JUMP JUMPDEST SWAP1 PUSH2 0x135 PUSH2 0x1393 JUMP JUMPDEST PUSH1 0x1 PUSH1 0x1 PUSH1 0xA0 SHL SUB SWAP2 DUP3 AND SWAP3 DUP4 ISZERO PUSH2 0x182 JUMPI POP POP DUP3 SLOAD PUSH1 0x1 PUSH1 0x1 PUSH1 0xA0 SHL SUB NOT DUP2 AND DUP4 OR DUP5 SSTORE AND PUSH32 0x8BE0079C531659141344CD1FD0A4F28419497F9722A3DAAFE3B4186F6B6457E0 DUP4 DUP1 LOG3 DUP1 RETURN JUMPDEST MLOAD PUSH4 0x1E4FBDF7 PUSH1 0xE0 SHL DUP2 MSTORE SWAP1 DUP2 ADD DUP5 SWAP1 MSTORE PUSH1 0x24 SWAP1 REVERT JUMPDEST DUP3 DUP1 REVERT JUMPDEST DUP4 CALLVALUE PUSH2 0x1E1 JUMPI PUSH1 0x20 CALLDATASIZE PUSH1 0x3 NOT ADD SLT PUSH2 0x1E1 JUMPI PUSH2 0x1B6 PUSH2 0x1169 JUMP JUMPDEST PUSH2 0x1BE PUSH2 0x1393 JUMP JUMPDEST PUSH1 0x1 DUP1 PUSH1 0xA0 SHL SUB AND PUSH12 0xFFFFFFFFFFFFFFFFFFFFFFFF PUSH1 0xA0 SHL PUSH1 0x1 SLOAD AND OR PUSH1 0x1 SSTORE DUP1 RETURN JUMPDEST DUP1 REVERT JUMPDEST POP DUP3 CALLVALUE PUSH2 0x1E1 JUMPI PUSH1 0x20 SWAP1 DUP2 PUSH1 0x3 NOT CALLDATASIZE ADD SLT PUSH2 0x1E1 JUMPI DUP3 CALLDATALOAD SWAP2 DUP3 DUP3 MSTORE PUSH1 0x2 DUP2 MSTORE DUP5 DUP3 KECCAK256 SWAP4 PUSH1 0xFF SWAP5 PUSH1 0xFF DUP2 SLOAD AND SWAP3 PUSH2 0x219 DUP5 PUSH2 0x12C1 JUMP JUMPDEST SWAP8 DUP6 JUMPDEST DUP9 DUP2 AND SWAP1 DUP7 DUP3 LT ISZERO PUSH2 0x2C3 JUMPI DUP10 SWAP1 DUP10 DUP10 MSTORE DUP9 DUP13 PUSH1 0x3 DUP1 DUP9 MSTORE DUP7 DUP4 KECCAK256 DUP7 DUP5 MSTORE DUP9 MSTORE DUP7 DUP4 KECCAK256 SLOAD SWAP1 DUP2 ISZERO DUP1 ISZERO PUSH2 0x2B8 JUMPI JUMPDEST ISZERO PUSH2 0x267 JUMPI POP POP PUSH1 0x1 SWAP4 SWAP5 PUSH2 0x25E SWAP2 PUSH2 0x1307 JUMP JUMPDEST MSTORE JUMPDEST ADD AND PUSH2 0x21C JUMP JUMPDEST SWAP3 POP SWAP3 SWAP5 SWAP4 POP POP DUP7 ADD SLOAD PUSH2 0x2710 SWAP1 DUP2 DUP2 MUL SWAP2 DUP2 DUP4 DIV EQ SWAP1 ISZERO OR ISZERO PUSH2 0x2A5 JUMPI PUSH2 0x29F PUSH1 0x1 SWAP4 PUSH2 0x299 DUP16 SWAP4 SWAP5 DUP16 SWAP8 SWAP6 PUSH2 0x1331 JUMP JUMPDEST SWAP3 PUSH2 0x1307 JUMP JUMPDEST MSTORE PUSH2 0x260 JUMP JUMPDEST PUSH4 0x4E487B71 PUSH1 0xE0 SHL DUP11 MSTORE PUSH1 0x11 DUP9 MSTORE PUSH1 0x24 DUP11 REVERT JUMPDEST POP DUP1 DUP11 ADD SLOAD ISZERO PUSH2 0x24A JUMP JUMPDEST DUP3 MLOAD DUP5 DUP2 MSTORE DUP1 PUSH2 0x2D5 DUP2 DUP8 ADD DUP15 PUSH2 0x117F JUMP JUMPDEST SUB SWAP1 RETURN JUMPDEST POP POP CALLVALUE PUSH2 0x2F6 JUMPI DUP2 PUSH1 0x3 NOT CALLDATASIZE ADD SLT PUSH2 0x2F6 JUMPI PUSH1 0x20 SWAP1 MLOAD PUSH2 0x2710 DUP2 MSTORE RETURN JUMPDEST POP DUP1 REVERT JUMPDEST POP CALLVALUE PUSH2 0x198 JUMPI DUP2 PUSH1 0x3 NOT CALLDATASIZE ADD SLT PUSH2 0x198 JUMPI DUP2 PUSH1 0x20 SWAP4 PUSH1 0xFF SWAP3 PUSH2 0x31A PUSH2 0x1153 JUMP JUMPDEST SWAP1 CALLDATALOAD DUP3 MSTORE PUSH1 0x6 DUP7 MSTORE DUP3 DUP3 KECCAK256 PUSH1 0x1 PUSH1 0x1 PUSH1 0xA0 SHL SUB SWAP1 SWAP2 AND DUP3 MSTORE DUP6 MSTORE KECCAK256 SLOAD SWAP2 MLOAD SWAP2 AND ISZERO ISZERO DUP2 MSTORE RETURN JUMPDEST POP SWAP2 SWAP1 CALLVALUE PUSH2 0x2F6 JUMPI PUSH1 0x20 SWAP3 PUSH1 0x20 PUSH1 0x3 NOT CALLDATASIZE ADD SLT PUSH2 0x198 JUMPI CALLDATALOAD DUP1 DUP4 MSTORE PUSH1 0x2 PUSH1 0x20 MSTORE DUP2 DUP4 KECCAK256 SWAP2 PUSH1 0xFF SWAP4 DUP5 DUP5 SLOAD AND SWAP6 PUSH2 0x375 DUP8 PUSH2 0x12C1 JUMP JUMPDEST SWAP4 DUP3 JUMPDEST DUP8 DUP2 AND DUP10 DUP2 LT ISZERO PUSH2 0x3AD JUMPI DUP9 SWAP2 PUSH1 0x1 SWAP2 DUP5 DUP8 MSTORE PUSH1 0x3 DUP7 MSTORE DUP8 DUP8 KECCAK256 DUP2 DUP9 MSTORE DUP7 MSTORE PUSH2 0x3A5 DUP9 DUP9 KECCAK256 SLOAD SWAP2 DUP11 PUSH2 0x1307 JUMP JUMPDEST MSTORE ADD AND PUSH2 0x378 JUMP JUMPDEST DUP8 DUP11 PUSH2 0x2D5 DUP10 DUP10 DUP14 PUSH1 0x1 DUP7 ADD SLOAD SWAP6 PUSH1 0x3 PUSH1 0x2 DUP3 ADD SLOAD SWAP2 ADD SLOAD SWAP3 DUP1 MLOAD SWAP8 DUP9 SWAP8 DUP9 MSTORE PUSH1 0x20 DUP9 ADD MSTORE DUP3 DUP3 AND ISZERO ISZERO SWAP1 DUP8 ADD MSTORE DUP2 DUP2 PUSH1 0x8 SHR AND ISZERO ISZERO PUSH1 0x60 DUP8 ADD MSTORE PUSH1 0x10 SHR AND PUSH1 0x80 DUP6 ADD MSTORE PUSH1 0xA0 DUP5 ADD MSTORE PUSH1 0xE0 PUSH1 0xC0 DUP5 ADD MSTORE PUSH1 0xE0 DUP4 ADD SWAP1 PUSH2 0x117F JUMP JUMPDEST POP SWAP2 SWAP1 CALLVALUE PUSH2 0x2F6 JUMPI PUSH2 0x418 CALLDATASIZE PUSH2 0x112F JUMP JUMPDEST SWAP2 SWAP3 PUSH2 0x422 PUSH2 0x1393 JUMP JUMPDEST DUP4 DUP6 MSTORE PUSH1 0x20 PUSH1 0x2 DUP2 MSTORE PUSH1 0xFF DUP3 DUP8 KECCAK256 SLOAD AND PUSH2 0x5CF JUMPI PUSH1 0xFF DUP4 AND SWAP1 PUSH1 0x2 DUP3 LT ISZERO DUP1 PUSH2 0x5C4 JUMPI JUMPDEST ISZERO PUSH2 0x58F JUMPI TIMESTAMP DUP6 GT ISZERO PUSH2 0x556 JUMPI DUP3 MLOAD SWAP2 PUSH1 0xC0 DUP4 ADD DUP4 DUP2 LT PUSH8 0xFFFFFFFFFFFFFFFF DUP3 GT OR PUSH2 0x543 JUMPI DUP8 PUSH2 0x51F DUP11 PUSH1 0xFF DUP8 DUP10 SWAP8 PUSH2 0x53D SWAP10 SWAP8 PUSH1 0x3 SWAP8 PUSH32 0x2AD477767F2A1EEC9E5D90CD6F88ED145CA4C8771F5325865ECFF6C2966E45E5 SWAP15 SWAP14 SWAP13 MSTORE DUP3 MSTORE DUP1 DUP3 ADD DUP13 DUP2 MSTORE DUP4 DUP11 DUP1 DUP6 ADD SWAP7 DUP1 DUP9 MSTORE PUSH1 0x2 PUSH1 0x60 DUP8 ADD SWAP6 DUP3 DUP8 MSTORE PUSH1 0xA0 PUSH1 0x80 DUP10 ADD SWAP9 DUP5 DUP11 MSTORE ADD SWAP12 DUP4 DUP14 MSTORE DUP4 MSTORE MSTORE KECCAK256 SWAP10 MLOAD AND DUP5 NOT DUP11 SLOAD AND OR DUP10 SSTORE MLOAD PUSH1 0x1 DUP10 ADD SSTORE PUSH1 0x2 DUP9 ADD SWAP4 MLOAD ISZERO ISZERO SWAP1 DUP4 PUSH2 0xFF00 DUP7 SLOAD SWAP3 MLOAD ISZERO ISZERO PUSH1 0x8 SHL AND SWAP3 AND SWAP1 PUSH2 0xFFFF NOT AND OR OR DUP4 SSTORE MLOAD AND PUSH3 0xFF0000 DUP3 SLOAD SWAP2 PUSH1 0x10 SHL AND SWAP1 PUSH3 0xFF0000 NOT AND OR SWAP1 SSTORE JUMP JUMPDEST MLOAD SWAP2 ADD SSTORE MLOAD SWAP3 DUP4 SWAP3 DUP4 PUSH1 0x20 SWAP1 SWAP4 SWAP3 SWAP2 SWAP4 PUSH1 0xFF PUSH1 0x40 DUP3 ADD SWAP6 AND DUP2 MSTORE ADD MSTORE JUMP JUMPDEST SUB SWAP1 LOG2 DUP1 RETURN JUMPDEST PUSH4 0x4E487B71 PUSH1 0xE0 SHL DUP10 MSTORE PUSH1 0x41 DUP11 MSTORE PUSH1 0x24 DUP10 REVERT JUMPDEST DUP8 PUSH1 0x64 SWAP2 DUP5 MLOAD SWAP2 PUSH3 0x461BCD PUSH1 0xE5 SHL DUP4 MSTORE DUP3 ADD MSTORE PUSH1 0x14 PUSH1 0x24 DUP3 ADD MSTORE PUSH20 0x10DB1BDCDA5B99C81D1A5B59481A5B881C185CDD PUSH1 0x62 SHL PUSH1 0x44 DUP3 ADD MSTORE REVERT JUMPDEST DUP8 PUSH1 0x64 SWAP2 DUP5 MLOAD SWAP2 PUSH3 0x461BCD PUSH1 0xE5 SHL DUP4 MSTORE DUP3 ADD MSTORE PUSH1 0x10 PUSH1 0x24 DUP3 ADD MSTORE PUSH16 0x496E76616C6964206F7574636F6D6573 PUSH1 0x80 SHL PUSH1 0x44 DUP3 ADD MSTORE REVERT JUMPDEST POP PUSH1 0x3 DUP3 GT ISZERO PUSH2 0x446 JUMP JUMPDEST DUP7 SWAP1 PUSH1 0x64 SWAP3 MLOAD SWAP2 PUSH3 0x461BCD PUSH1 0xE5 SHL DUP4 MSTORE DUP3 ADD MSTORE PUSH1 0xD PUSH1 0x24 DUP3 ADD MSTORE PUSH13 0x4D61726B657420657869737473 PUSH1 0x98 SHL PUSH1 0x44 DUP3 ADD MSTORE REVERT JUMPDEST POP POP CALLVALUE PUSH2 0x2F6 JUMPI DUP2 PUSH1 0x3 NOT CALLDATASIZE ADD SLT PUSH2 0x2F6 JUMPI PUSH1 0x20 SWAP1 MLOAD PUSH2 0x1F4 DUP2 MSTORE RETURN JUMPDEST POP CALLVALUE PUSH2 0x198 JUMPI PUSH1 0x20 CALLDATASIZE PUSH1 0x3 NOT ADD SLT PUSH2 0x198 JUMPI PUSH1 0x2 SWAP1 CALLDATALOAD SWAP2 PUSH2 0x63D PUSH2 0x1393 JUMP JUMPDEST DUP3 DUP5 MSTORE DUP2 PUSH1 0x20 MSTORE DUP4 KECCAK256 PUSH2 0x655 PUSH1 0xFF DUP3 SLOAD AND ISZERO ISZERO PUSH2 0x11B3 JUMP JUMPDEST ADD PUSH2 0x100 DUP2 SLOAD PUSH1 0xFF DUP2 AND ISZERO DUP1 PUSH2 0x69E JUMPI JUMPDEST PUSH2 0x66F SWAP1 PUSH2 0x1253 JUMP JUMPDEST PUSH2 0xFF00 NOT AND OR SWAP1 SSTORE PUSH32 0x22AD0FB1E02D1DB96E8800DAC4E4B23821AFAF9E1CA54D2093E7BC7FB8732B5A DUP3 DUP1 LOG2 DUP1 RETURN JUMPDEST POP PUSH1 0x8 DUP2 SWAP1 SHR PUSH1 0xFF AND ISZERO PUSH2 0x666 JUMP JUMPDEST POP SWAP2 SWAP1 CALLVALUE PUSH2 0x2F6 JUMPI PUSH1 0x20 DUP1 PUSH1 0x3 NOT CALLDATASIZE ADD SLT PUSH2 0x198 JUMPI DUP4 CALLDATALOAD SWAP1 PUSH2 0x6CD PUSH2 0x1351 JUMP JUMPDEST DUP2 DUP5 MSTORE PUSH1 0x2 DUP2 MSTORE DUP3 DUP5 KECCAK256 PUSH1 0x2 DUP2 ADD DUP1 SLOAD PUSH1 0xFF DUP2 AND ISZERO PUSH2 0x902 JUMPI PUSH1 0xFF DUP2 PUSH1 0x8 SHR AND PUSH2 0x8B5 JUMPI DUP5 DUP8 MSTORE PUSH1 0x6 DUP5 MSTORE DUP6 DUP8 KECCAK256 CALLER DUP9 MSTORE DUP5 MSTORE PUSH1 0xFF DUP7 DUP9 KECCAK256 SLOAD AND PUSH2 0x880 JUMPI DUP5 DUP8 MSTORE DUP8 DUP5 MSTORE DUP6 DUP8 KECCAK256 CALLER DUP9 MSTORE DUP5 MSTORE PUSH1 0xFF DUP7 DUP9 KECCAK256 SWAP2 PUSH1 0x10 SHR AND DUP8 MSTORE DUP4 MSTORE DUP5 DUP7 KECCAK256 SLOAD SWAP1 DUP2 ISZERO PUSH2 0x84C JUMPI DUP5 DUP8 MSTORE PUSH1 0x6 DUP5 MSTORE DUP6 DUP8 KECCAK256 CALLER DUP9 MSTORE DUP5 MSTORE DUP6 DUP8 KECCAK256 PUSH1 0x1 PUSH1 0xFF NOT DUP3 SLOAD AND OR SWAP1 SSTORE DUP5 DUP8 MSTORE PUSH1 0x3 DUP5 MSTORE PUSH1 0xFF DUP7 DUP9 KECCAK256 SWAP2 SLOAD PUSH1 0x10 SHR AND DUP8 MSTORE DUP4 MSTORE PUSH1 0x3 DUP6 DUP8 KECCAK256 SLOAD SWAP3 ADD SLOAD DUP1 DUP3 MUL SWAP2 DUP3 DIV SUB PUSH2 0x839 JUMPI SWAP1 PUSH2 0x783 SWAP2 PUSH2 0x1331 JUMP JUMPDEST SWAP3 PUSH2 0x1F4 DUP1 DUP6 MUL SWAP1 DUP6 DUP3 DIV EQ DUP6 ISZERO OR ISZERO PUSH2 0x839 JUMPI PUSH2 0x2710 SWAP1 DIV DUP1 DUP6 SUB SWAP5 DUP6 GT PUSH2 0x839 JUMPI SWAP1 PUSH2 0x80B DUP6 PUSH32 0x508A8B4117D9A7B3D8F5895F6413E61B4F9A2DF35AFBFB41E78D0ECFFF1843F SWAP5 SWAP4 PUSH2 0x804 PUSH32 0x0 SWAP2 PUSH1 0x1 DUP1 PUSH1 0xA0 SHL SUB PUSH1 0x1 SLOAD AND DUP4 PUSH2 0x13BF JUMP JUMPDEST CALLER SWAP1 PUSH2 0x13BF JUMP JUMPDEST MLOAD SWAP4 DUP5 MSTORE CALLER SWAP4 LOG3 PUSH1 0x1 PUSH32 0x9B779B17422D0DF92223018B32B4D1FA46E071723D6817E2486D003BECC55F00 SSTORE DUP1 RETURN JUMPDEST PUSH4 0x4E487B71 PUSH1 0xE0 SHL DUP7 MSTORE PUSH1 0x11 DUP8 MSTORE PUSH1 0x24 DUP7 REVERT JUMPDEST DUP6 MLOAD PUSH3 0x461BCD PUSH1 0xE5 SHL DUP2 MSTORE DUP1 DUP10 ADD DUP6 SWAP1 MSTORE PUSH1 0xE PUSH1 0x24 DUP3 ADD MSTORE PUSH14 0x139BC81DDA5B9B9A5B99C818995D PUSH1 0x92 SHL PUSH1 0x44 DUP3 ADD MSTORE PUSH1 0x64 SWAP1 REVERT JUMPDEST DUP6 MLOAD PUSH3 0x461BCD PUSH1 0xE5 SHL DUP2 MSTORE DUP1 DUP10 ADD DUP6 SWAP1 MSTORE PUSH1 0xF PUSH1 0x24 DUP3 ADD MSTORE PUSH15 0x105B1C9958591E4818DB185A5B5959 PUSH1 0x8A SHL PUSH1 0x44 DUP3 ADD MSTORE PUSH1 0x64 SWAP1 REVERT JUMPDEST DUP6 MLOAD PUSH3 0x461BCD PUSH1 0xE5 SHL DUP2 MSTORE DUP1 DUP10 ADD DUP6 SWAP1 MSTORE PUSH1 0x21 PUSH1 0x24 DUP3 ADD MSTORE PUSH32 0x4D61726B65742063616E63656C6C65642C2075736520636C61696D526566756E PUSH1 0x44 DUP3 ADD MSTORE PUSH1 0x19 PUSH1 0xFA SHL PUSH1 0x64 DUP3 ADD MSTORE PUSH1 0x84 SWAP1 REVERT JUMPDEST DUP6 MLOAD PUSH3 0x461BCD PUSH1 0xE5 SHL DUP2 MSTORE DUP1 DUP10 ADD DUP6 SWAP1 MSTORE PUSH1 0xC PUSH1 0x24 DUP3 ADD MSTORE PUSH12 0x139BDD081C995CDBDB1D9959 PUSH1 0xA2 SHL PUSH1 0x44 DUP3 ADD MSTORE PUSH1 0x64 SWAP1 REVERT JUMPDEST POP CALLVALUE PUSH2 0x198 JUMPI DUP2 PUSH1 0x3 NOT CALLDATASIZE ADD SLT PUSH2 0x198 JUMPI PUSH1 0x20 SWAP3 DUP3 SWAP2 PUSH2 0x952 PUSH2 0x111A JUMP JUMPDEST SWAP1 CALLDATALOAD DUP3 MSTORE PUSH1 0x3 DUP6 MSTORE PUSH1 0xFF DUP4 DUP4 KECCAK256 SWAP2 AND DUP3 MSTORE DUP5 MSTORE KECCAK256 SLOAD SWAP1 MLOAD SWAP1 DUP2 MSTORE RETURN JUMPDEST POP CALLVALUE PUSH2 0x198 JUMPI DUP2 PUSH1 0x3 NOT CALLDATASIZE ADD SLT PUSH2 0x198 JUMPI PUSH1 0x20 SWAP3 DUP3 SWAP2 PUSH2 0x98C PUSH2 0x1153 JUMP JUMPDEST SWAP1 CALLDATALOAD DUP3 MSTORE PUSH1 0x5 DUP6 MSTORE DUP3 DUP3 KECCAK256 PUSH1 0x1 PUSH1 0x1 PUSH1 0xA0 SHL SUB SWAP1 SWAP2 AND DUP3 MSTORE DUP5 MSTORE KECCAK256 SLOAD SWAP1 MLOAD SWAP1 DUP2 MSTORE RETURN JUMPDEST POP POP CALLVALUE PUSH2 0x2F6 JUMPI DUP2 PUSH1 0x3 NOT CALLDATASIZE ADD SLT PUSH2 0x2F6 JUMPI SWAP1 SLOAD SWAP1 MLOAD PUSH1 0x1 PUSH1 0x1 PUSH1 0xA0 SHL SUB SWAP1 SWAP2 AND DUP2 MSTORE PUSH1 0x20 SWAP1 RETURN JUMPDEST POP CALLVALUE PUSH2 0x198 JUMPI PUSH1 0x20 CALLDATASIZE PUSH1 0x3 NOT ADD SLT PUSH2 0x198 JUMPI PUSH1 0xC0 SWAP3 DUP3 SWAP2 CALLDATALOAD DUP2 MSTORE PUSH1 0x2 PUSH1 0x20 MSTORE KECCAK256 SWAP1 PUSH1 0xFF DUP1 DUP4 SLOAD AND SWAP3 PUSH1 0x1 DUP2 ADD SLOAD SWAP3 PUSH1 0x3 PUSH1 0x2 DUP4 ADD SLOAD SWAP3 ADD SLOAD SWAP4 DUP2 MLOAD SWAP6 DUP7 MSTORE PUSH1 0x20 DUP7 ADD MSTORE DUP3 DUP3 AND ISZERO ISZERO SWAP1 DUP6 ADD MSTORE DUP2 DUP2 PUSH1 0x8 SHR AND ISZERO ISZERO PUSH1 0x60 DUP6 ADD MSTORE PUSH1 0x10 SHR AND PUSH1 0x80 DUP4 ADD MSTORE PUSH1 0xA0 DUP3 ADD MSTORE RETURN JUMPDEST POP CALLVALUE PUSH2 0x198 JUMPI PUSH1 0x60 CALLDATASIZE PUSH1 0x3 NOT ADD SLT PUSH2 0x198 JUMPI PUSH2 0xA5A PUSH2 0x1153 JUMP JUMPDEST PUSH1 0x44 CALLDATALOAD SWAP2 PUSH1 0xFF DUP4 AND DUP1 SWAP4 SUB PUSH2 0xA9A JUMPI DUP1 CALLDATALOAD DUP6 MSTORE PUSH1 0x20 SWAP1 DUP2 MSTORE DUP4 DUP6 KECCAK256 PUSH1 0x1 PUSH1 0x1 PUSH1 0xA0 SHL SUB SWAP1 SWAP3 AND DUP6 MSTORE SWAP1 DUP2 MSTORE DUP3 DUP5 KECCAK256 SWAP2 DUP5 MSTORE SWAP1 DUP2 MSTORE SWAP2 DUP2 SWAP1 KECCAK256 SLOAD SWAP1 MLOAD SWAP1 DUP2 MSTORE RETURN JUMPDEST DUP5 DUP1 REVERT JUMPDEST POP SWAP1 CALLVALUE PUSH2 0x198 JUMPI PUSH1 0x20 DUP1 PUSH1 0x3 NOT CALLDATASIZE ADD SLT PUSH2 0xC06 JUMPI DUP3 CALLDATALOAD SWAP2 PUSH2 0xABD PUSH2 0x1351 JUMP JUMPDEST DUP3 DUP6 MSTORE PUSH1 0x2 DUP3 MSTORE PUSH1 0xFF PUSH1 0x2 DUP3 DUP8 KECCAK256 ADD SLOAD PUSH1 0x8 SHR AND ISZERO PUSH2 0xBD5 JUMPI DUP3 DUP6 MSTORE PUSH1 0x6 DUP3 MSTORE DUP1 DUP6 KECCAK256 CALLER DUP7 MSTORE DUP3 MSTORE PUSH1 0xFF DUP2 DUP7 KECCAK256 SLOAD AND PUSH2 0xBA1 JUMPI DUP3 DUP6 MSTORE PUSH1 0x5 DUP3 MSTORE DUP1 DUP6 KECCAK256 CALLER DUP7 MSTORE DUP3 MSTORE DUP1 DUP6 KECCAK256 SLOAD SWAP4 DUP5 ISZERO PUSH2 0xB76 JUMPI POP SWAP1 PUSH32 0xF552CA82E113AC3C539C3D617F29FCD19C172A0C75DAD017555C9E109F7FE183 SWAP2 DUP4 DUP7 MSTORE PUSH1 0x6 DUP3 MSTORE DUP1 DUP7 KECCAK256 CALLER DUP8 MSTORE DUP3 MSTORE DUP1 DUP7 KECCAK256 PUSH1 0x1 PUSH1 0xFF NOT DUP3 SLOAD AND OR SWAP1 SSTORE PUSH2 0x80B DUP6 CALLER PUSH32 0x0 PUSH2 0x13BF JUMP JUMPDEST DUP3 PUSH1 0x64 SWAP3 MLOAD SWAP2 PUSH3 0x461BCD PUSH1 0xE5 SHL DUP4 MSTORE DUP3 ADD MSTORE PUSH1 0x7 PUSH1 0x24 DUP3 ADD MSTORE PUSH7 0x4E6F2062657473 PUSH1 0xC8 SHL PUSH1 0x44 DUP3 ADD MSTORE REVERT JUMPDEST MLOAD PUSH3 0x461BCD PUSH1 0xE5 SHL DUP2 MSTORE SWAP3 DUP4 ADD MSTORE POP PUSH1 0x10 PUSH1 0x24 DUP3 ADD MSTORE PUSH16 0x105B1C9958591E481C99599D5B991959 PUSH1 0x82 SHL PUSH1 0x44 DUP3 ADD MSTORE PUSH1 0x64 SWAP1 REVERT JUMPDEST MLOAD PUSH3 0x461BCD PUSH1 0xE5 SHL DUP2 MSTORE SWAP3 DUP4 ADD MSTORE POP PUSH1 0xD PUSH1 0x24 DUP3 ADD MSTORE PUSH13 0x139BDD0818D85B98D95B1B1959 PUSH1 0x9A SHL PUSH1 0x44 DUP3 ADD MSTORE PUSH1 0x64 SWAP1 REVERT JUMPDEST DUP4 DUP1 REVERT JUMPDEST DUP4 CALLVALUE PUSH2 0x1E1 JUMPI DUP1 PUSH1 0x3 NOT CALLDATASIZE ADD SLT PUSH2 0x1E1 JUMPI PUSH2 0xC23 PUSH2 0x1393 JUMP JUMPDEST DUP1 SLOAD PUSH1 0x1 PUSH1 0x1 PUSH1 0xA0 SHL SUB NOT DUP2 AND DUP3 SSTORE DUP2 SWAP1 PUSH1 0x1 PUSH1 0x1 PUSH1 0xA0 SHL SUB AND PUSH32 0x8BE0079C531659141344CD1FD0A4F28419497F9722A3DAAFE3B4186F6B6457E0 DUP3 DUP1 LOG3 DUP1 RETURN JUMPDEST POP POP CALLVALUE PUSH2 0x2F6 JUMPI DUP2 PUSH1 0x3 NOT CALLDATASIZE ADD SLT PUSH2 0x2F6 JUMPI PUSH1 0x1 SLOAD SWAP1 MLOAD PUSH1 0x1 PUSH1 0x1 PUSH1 0xA0 SHL SUB SWAP1 SWAP2 AND DUP2 MSTORE PUSH1 0x20 SWAP1 RETURN JUMPDEST POP DUP3 SWAP1 CALLVALUE PUSH2 0x2F6 JUMPI DUP3 PUSH1 0x3 NOT CALLDATASIZE ADD SLT PUSH2 0x2F6 JUMPI DUP1 CALLDATALOAD SWAP1 PUSH2 0xCAB PUSH2 0x1153 JUMP JUMPDEST DUP3 DUP5 MSTORE PUSH1 0x20 SWAP4 PUSH1 0x2 DUP6 MSTORE PUSH1 0xFF SWAP5 PUSH1 0xFF DUP8 DUP4 KECCAK256 SLOAD AND SWAP3 PUSH2 0xCC9 DUP5 PUSH2 0x12C1 JUMP JUMPDEST SWAP5 PUSH1 0x1 PUSH1 0x1 PUSH1 0xA0 SHL SUB SWAP1 SWAP2 AND SWAP1 DUP4 JUMPDEST DUP9 DUP2 AND DUP7 DUP2 LT ISZERO PUSH2 0xD14 JUMPI DUP10 SWAP2 PUSH1 0x1 SWAP2 DUP11 DUP9 MSTORE DUP5 DUP8 MSTORE DUP13 DUP9 KECCAK256 DUP7 DUP10 MSTORE DUP8 MSTORE DUP13 DUP9 KECCAK256 DUP2 DUP10 MSTORE DUP8 MSTORE PUSH2 0xD0C DUP14 DUP10 KECCAK256 SLOAD SWAP2 DUP12 PUSH2 0x1307 JUMP JUMPDEST MSTORE ADD AND PUSH2 0xCD8 JUMP JUMPDEST DUP11 MLOAD DUP6 DUP2 MSTORE DUP1 PUSH2 0x2D5 DUP2 DUP9 ADD DUP12 PUSH2 0x117F JUMP JUMPDEST POP POP CALLVALUE PUSH2 0x2F6 JUMPI DUP2 PUSH1 0x3 NOT CALLDATASIZE ADD SLT PUSH2 0x2F6 JUMPI MLOAD PUSH32 0x0 PUSH1 0x1 PUSH1 0x1 PUSH1 0xA0 SHL SUB AND DUP2 MSTORE PUSH1 0x20 SWAP1 RETURN JUMPDEST POP CALLVALUE PUSH2 0x198 JUMPI DUP2 PUSH1 0x3 NOT CALLDATASIZE ADD SLT PUSH2 0x198 JUMPI PUSH1 0x20 PUSH32 0xF34984473148051BC1BDF1BE6ECC462D7B228D591058A8A27977B84770B738B9 SWAP2 CALLDATALOAD SWAP3 PUSH2 0xDA9 PUSH2 0x111A JUMP JUMPDEST SWAP1 PUSH2 0xDB2 PUSH2 0x1393 JUMP JUMPDEST DUP5 DUP7 MSTORE PUSH1 0x2 DUP4 MSTORE DUP1 DUP7 KECCAK256 SWAP2 PUSH2 0xE1D PUSH1 0x2 PUSH1 0xFF DUP6 SLOAD AND SWAP5 PUSH2 0xDD3 DUP7 ISZERO ISZERO PUSH2 0x11B3 JUMP JUMPDEST ADD SWAP2 PUSH1 0x1 DUP4 SLOAD PUSH1 0xFF DUP2 AND ISZERO DUP1 PUSH2 0xE77 JUMPI JUMPDEST PUSH2 0xDED SWAP1 PUSH2 0x1253 JUMP JUMPDEST PUSH2 0xDFC PUSH1 0xFF DUP5 AND SWAP8 DUP9 LT PUSH2 0x11F2 JUMP JUMPDEST PUSH3 0xFF0000 NOT SWAP1 SWAP2 AND PUSH3 0xFF00FF NOT SWAP1 SWAP2 AND OR PUSH1 0x10 SWAP2 SWAP1 SWAP2 SHL PUSH3 0xFF0000 AND OR DUP3 SSTORE JUMP JUMPDEST DUP6 DUP8 MSTORE PUSH1 0x3 DUP5 MSTORE DUP2 DUP8 KECCAK256 DUP4 DUP9 MSTORE DUP5 MSTORE DUP2 DUP8 KECCAK256 SLOAD ISZERO PUSH2 0xE3F JUMPI JUMPDEST POP MLOAD SWAP1 DUP2 MSTORE LOG2 DUP1 RETURN JUMPDEST DUP1 SLOAD PUSH2 0xFF00 NOT AND PUSH2 0x100 OR SWAP1 SSTORE DUP5 PUSH32 0x22AD0FB1E02D1DB96E8800DAC4E4B23821AFAF9E1CA54D2093E7BC7FB8732B5A DUP8 DUP1 LOG2 CODESIZE PUSH2 0xE36 JUMP JUMPDEST POP PUSH1 0x8 DUP2 SWAP1 SHR PUSH1 0xFF AND ISZERO PUSH2 0xDE4 JUMP JUMPDEST POP SWAP1 CALLVALUE PUSH2 0x198 JUMPI PUSH2 0xE96 CALLDATASIZE PUSH2 0x112F JUMP JUMPDEST SWAP2 SWAP3 SWAP1 SWAP4 PUSH2 0xEA2 PUSH2 0x1351 JUMP JUMPDEST DUP4 DUP7 MSTORE PUSH1 0x20 SWAP1 PUSH1 0x2 DUP3 MSTORE DUP3 DUP8 KECCAK256 SWAP1 PUSH1 0xFF DUP3 SLOAD AND SWAP2 PUSH2 0xEC1 DUP4 ISZERO ISZERO PUSH2 0x11B3 JUMP JUMPDEST PUSH1 0x2 DUP2 ADD SLOAD PUSH1 0xFF DUP2 AND ISZERO SWAP1 DUP2 PUSH2 0x110B JUMPI JUMPDEST POP ISZERO PUSH2 0x10D5 JUMPI PUSH1 0x1 DUP2 ADD SLOAD TIMESTAMP LT ISZERO PUSH2 0x10A2 JUMPI PUSH2 0xEF3 PUSH1 0xFF DUP10 AND SWAP4 DUP5 LT PUSH2 0x11F2 JUMP JUMPDEST DUP6 ISZERO PUSH2 0x1071 JUMPI DUP5 MLOAD PUSH4 0x23B872DD PUSH1 0xE0 SHL DUP11 MSTORE CALLER DUP4 MSTORE ADDRESS PUSH1 0x24 MSTORE PUSH1 0x44 DUP8 SWAP1 MSTORE PUSH32 0x0 DUP6 DUP12 PUSH1 0x64 DUP2 DUP1 DUP6 GAS CALL PUSH1 0x1 DUP13 MLOAD EQ DUP2 AND ISZERO PUSH2 0x1052 JUMPI JUMPDEST DUP3 DUP9 MSTORE DUP12 PUSH1 0x60 MSTORE ISZERO PUSH2 0x1036 JUMPI POP POP SWAP2 PUSH32 0x22F4C9BB73A93D9507392476FA412371D3D5E19E74D8951567B76A7483DCA1A0 SWAP6 SWAP4 SWAP2 PUSH1 0x3 PUSH2 0x100C SWAP7 SWAP5 ADD PUSH2 0xF8E DUP7 DUP3 SLOAD PUSH2 0x1230 JUMP JUMPDEST SWAP1 SSTORE DUP8 DUP11 MSTORE PUSH1 0x3 DUP4 MSTORE DUP4 DUP11 KECCAK256 DUP3 DUP12 MSTORE DUP4 MSTORE DUP4 DUP11 KECCAK256 PUSH2 0xFAD DUP7 DUP3 SLOAD PUSH2 0x1230 JUMP JUMPDEST SWAP1 SSTORE DUP8 DUP11 MSTORE DUP3 MSTORE DUP3 DUP10 KECCAK256 CALLER DUP11 MSTORE DUP3 MSTORE DUP3 DUP10 KECCAK256 SWAP1 DUP10 MSTORE DUP2 MSTORE DUP2 DUP9 KECCAK256 PUSH2 0xFD2 DUP5 DUP3 SLOAD PUSH2 0x1230 JUMP JUMPDEST SWAP1 SSTORE DUP6 DUP9 MSTORE PUSH1 0x5 DUP2 MSTORE DUP2 DUP9 KECCAK256 SWAP1 CALLER DUP10 MSTORE MSTORE DUP1 DUP8 KECCAK256 PUSH2 0xFF1 DUP4 DUP3 SLOAD PUSH2 0x1230 JUMP JUMPDEST SWAP1 SSTORE MLOAD PUSH1 0xFF SWAP1 SWAP6 AND DUP6 MSTORE PUSH1 0x20 DUP6 ADD MSTORE CALLER SWAP4 SWAP1 DUP2 SWAP1 PUSH1 0x40 DUP3 ADD SWAP1 JUMP JUMPDEST SUB SWAP1 LOG3 PUSH1 0x1 PUSH32 0x9B779B17422D0DF92223018B32B4D1FA46E071723D6817E2486D003BECC55F00 SSTORE DUP1 RETURN JUMPDEST PUSH4 0x5274AFE7 PUSH1 0xE0 SHL DUP3 MSTORE PUSH1 0x1 PUSH1 0x1 PUSH1 0xA0 SHL SUB AND DUP4 DUP3 ADD MSTORE PUSH1 0x24 SWAP1 REVERT JUMPDEST PUSH1 0x1 DUP2 ISZERO AND PUSH2 0x1068 JUMPI DUP2 EXTCODESIZE ISZERO ISZERO RETURNDATASIZE ISZERO AND AND PUSH2 0xF48 JUMP JUMPDEST DUP3 RETURNDATASIZE DUP14 DUP3 RETURNDATACOPY RETURNDATASIZE SWAP1 REVERT JUMPDEST DUP5 MLOAD PUSH3 0x461BCD PUSH1 0xE5 SHL DUP2 MSTORE DUP1 DUP4 ADD DUP6 SWAP1 MSTORE PUSH1 0xB PUSH1 0x24 DUP3 ADD MSTORE PUSH11 0x16995C9BC8185B5BDD5B9D PUSH1 0xAA SHL PUSH1 0x44 DUP3 ADD MSTORE PUSH1 0x64 SWAP1 REVERT JUMPDEST DUP5 MLOAD PUSH3 0x461BCD PUSH1 0xE5 SHL DUP2 MSTORE DUP1 DUP4 ADD DUP6 SWAP1 MSTORE PUSH1 0xD PUSH1 0x24 DUP3 ADD MSTORE PUSH13 0x13585C9AD95D0818DB1BDCD959 PUSH1 0x9A SHL PUSH1 0x44 DUP3 ADD MSTORE PUSH1 0x64 SWAP1 REVERT JUMPDEST DUP5 MLOAD PUSH3 0x461BCD PUSH1 0xE5 SHL DUP2 MSTORE DUP1 DUP4 ADD DUP6 SWAP1 MSTORE PUSH1 0x10 PUSH1 0x24 DUP3 ADD MSTORE PUSH16 0x13585C9AD95D08199A5B985B1A5E9959 PUSH1 0x82 SHL PUSH1 0x44 DUP3 ADD MSTORE PUSH1 0x64 SWAP1 REVERT JUMPDEST PUSH1 0xFF SWAP2 POP PUSH1 0x8 SHR AND ISZERO CODESIZE PUSH2 0xED2 JUMP JUMPDEST PUSH1 0x24 CALLDATALOAD SWAP1 PUSH1 0xFF DUP3 AND DUP3 SUB PUSH2 0x112A JUMPI JUMP JUMPDEST PUSH1 0x0 DUP1 REVERT JUMPDEST PUSH1 0x60 SWAP1 PUSH1 0x3 NOT ADD SLT PUSH2 0x112A JUMPI PUSH1 0x4 CALLDATALOAD SWAP1 PUSH1 0x24 CALLDATALOAD PUSH1 0xFF DUP2 AND DUP2 SUB PUSH2 0x112A JUMPI SWAP1 PUSH1 0x44 CALLDATALOAD SWAP1 JUMP JUMPDEST PUSH1 0x24 CALLDATALOAD SWAP1 PUSH1 0x1 PUSH1 0x1 PUSH1 0xA0 SHL SUB DUP3 AND DUP3 SUB PUSH2 0x112A JUMPI JUMP JUMPDEST PUSH1 0x4 CALLDATALOAD SWAP1 PUSH1 0x1 PUSH1 0x1 PUSH1 0xA0 SHL SUB DUP3 AND DUP3 SUB PUSH2 0x112A JUMPI JUMP JUMPDEST SWAP1 DUP2 MLOAD DUP1 DUP3 MSTORE PUSH1 0x20 DUP1 DUP1 SWAP4 ADD SWAP4 ADD SWAP2 PUSH1 0x0 JUMPDEST DUP3 DUP2 LT PUSH2 0x119F JUMPI POP POP POP POP SWAP1 JUMP JUMPDEST DUP4 MLOAD DUP6 MSTORE SWAP4 DUP2 ADD SWAP4 SWAP3 DUP2 ADD SWAP3 PUSH1 0x1 ADD PUSH2 0x1191 JUMP JUMPDEST ISZERO PUSH2 0x11BA JUMPI JUMP JUMPDEST PUSH1 0x40 MLOAD PUSH3 0x461BCD PUSH1 0xE5 SHL DUP2 MSTORE PUSH1 0x20 PUSH1 0x4 DUP3 ADD MSTORE PUSH1 0x10 PUSH1 0x24 DUP3 ADD MSTORE PUSH16 0x13585C9AD95D081B9BDD08199BDD5B99 PUSH1 0x82 SHL PUSH1 0x44 DUP3 ADD MSTORE PUSH1 0x64 SWAP1 REVERT JUMPDEST ISZERO PUSH2 0x11F9 JUMPI JUMP JUMPDEST PUSH1 0x40 MLOAD PUSH3 0x461BCD PUSH1 0xE5 SHL DUP2 MSTORE PUSH1 0x20 PUSH1 0x4 DUP3 ADD MSTORE PUSH1 0xF PUSH1 0x24 DUP3 ADD MSTORE PUSH15 0x496E76616C6964206F7574636F6D65 PUSH1 0x88 SHL PUSH1 0x44 DUP3 ADD MSTORE PUSH1 0x64 SWAP1 REVERT JUMPDEST SWAP2 SWAP1 DUP3 ADD DUP1 SWAP3 GT PUSH2 0x123D JUMPI JUMP JUMPDEST PUSH4 0x4E487B71 PUSH1 0xE0 SHL PUSH1 0x0 MSTORE PUSH1 0x11 PUSH1 0x4 MSTORE PUSH1 0x24 PUSH1 0x0 REVERT JUMPDEST ISZERO PUSH2 0x125A JUMPI JUMP JUMPDEST PUSH1 0x40 MLOAD PUSH3 0x461BCD PUSH1 0xE5 SHL DUP2 MSTORE PUSH1 0x20 PUSH1 0x4 DUP3 ADD MSTORE PUSH1 0x11 PUSH1 0x24 DUP3 ADD MSTORE PUSH17 0x105B1C9958591E48199A5B985B1A5E9959 PUSH1 0x7A SHL PUSH1 0x44 DUP3 ADD MSTORE PUSH1 0x64 SWAP1 REVERT JUMPDEST PUSH8 0xFFFFFFFFFFFFFFFF DUP2 GT PUSH2 0x12AB JUMPI PUSH1 0x5 SHL PUSH1 0x20 ADD SWAP1 JUMP JUMPDEST PUSH4 0x4E487B71 PUSH1 0xE0 SHL PUSH1 0x0 MSTORE PUSH1 0x41 PUSH1 0x4 MSTORE PUSH1 0x24 PUSH1 0x0 REVERT JUMPDEST SWAP1 PUSH2 0x12CB DUP3 PUSH2 0x1293 JUMP JUMPDEST PUSH1 0x40 MLOAD SWAP1 PUSH1 0x1F NOT SWAP1 PUSH1 0x1F ADD DUP2 AND DUP3 ADD PUSH8 0xFFFFFFFFFFFFFFFF DUP2 GT DUP4 DUP3 LT OR PUSH2 0x12AB JUMPI PUSH1 0x40 MSTORE DUP4 DUP3 MSTORE PUSH2 0x12FD DUP3 SWAP5 PUSH2 0x1293 JUMP JUMPDEST ADD SWAP1 PUSH1 0x20 CALLDATASIZE SWAP2 ADD CALLDATACOPY JUMP JUMPDEST DUP1 MLOAD DUP3 LT ISZERO PUSH2 0x131B JUMPI PUSH1 0x20 SWAP2 PUSH1 0x5 SHL ADD ADD SWAP1 JUMP JUMPDEST PUSH4 0x4E487B71 PUSH1 0xE0 SHL PUSH1 0x0 MSTORE PUSH1 0x32 PUSH1 0x4 MSTORE PUSH1 0x24 PUSH1 0x0 REVERT JUMPDEST DUP2 ISZERO PUSH2 0x133B JUMPI DIV SWAP1 JUMP JUMPDEST PUSH4 0x4E487B71 PUSH1 0xE0 SHL PUSH1 0x0 MSTORE PUSH1 0x12 PUSH1 0x4 MSTORE PUSH1 0x24 PUSH1 0x0 REVERT JUMPDEST PUSH32 0x9B779B17422D0DF92223018B32B4D1FA46E071723D6817E2486D003BECC55F00 PUSH1 0x2 DUP2 SLOAD EQ PUSH2 0x1381 JUMPI PUSH1 0x2 SWAP1 SSTORE JUMP JUMPDEST PUSH1 0x40 MLOAD PUSH4 0x3EE5AEB5 PUSH1 0xE0 SHL DUP2 MSTORE PUSH1 0x4 SWAP1 REVERT JUMPDEST PUSH1 0x0 SLOAD PUSH1 0x1 PUSH1 0x1 PUSH1 0xA0 SHL SUB AND CALLER SUB PUSH2 0x13A7 JUMPI JUMP JUMPDEST PUSH1 0x40 MLOAD PUSH4 0x118CDAA7 PUSH1 0xE0 SHL DUP2 MSTORE CALLER PUSH1 0x4 DUP3 ADD MSTORE PUSH1 0x24 SWAP1 REVERT JUMPDEST PUSH1 0x40 MLOAD PUSH4 0xA9059CBB PUSH1 0xE0 SHL PUSH1 0x0 SWAP1 DUP2 MSTORE PUSH1 0x1 PUSH1 0x1 PUSH1 0xA0 SHL SUB SWAP4 DUP5 AND PUSH1 0x4 MSTORE PUSH1 0x24 SWAP5 SWAP1 SWAP5 MSTORE SWAP3 PUSH1 0x20 SWAP1 PUSH1 0x44 DUP2 DUP1 DUP6 GAS CALL PUSH1 0x1 PUSH1 0x0 MLOAD EQ DUP2 AND ISZERO PUSH2 0x1420 JUMPI JUMPDEST DUP4 PUSH1 0x40 MSTORE ISZERO PUSH2 0x140A JUMPI POP POP POP JUMP JUMPDEST PUSH4 0x5274AFE7 PUSH1 0xE0 SHL DUP4 MSTORE AND PUSH1 0x4 DUP3 ADD MSTORE PUSH1 0x24 SWAP2 POP REVERT JUMPDEST PUSH1 0x1 DUP2 ISZERO AND PUSH2 0x1436 JUMPI DUP2 EXTCODESIZE ISZERO ISZERO RETURNDATASIZE ISZERO AND AND PUSH2 0x13FC JUMP JUMPDEST DUP4 RETURNDATASIZE PUSH1 0x0 DUP3 RETURNDATACOPY RETURNDATASIZE SWAP1 REVERT INVALID LOG2 PUSH5 0x6970667358 0x22 SLT KECCAK256 0xB5 PUSH9 0xC3832675EC583FBB34 EXP BALANCE 0xAD DUP2 PUSH5 0x9FA9CB5AD3 DUP14 0xDF 0xA6 DUP6 0xDD 0xD0 0xB8 0xC BYTE 0xD1 0xB3 PUSH5 0x736F6C6343 STOP ADDMOD XOR STOP CALLER "},"methodIdentifiers":{"BPS_DENOMINATOR()":"e1a45218","FEE_BPS()":"bf333f2c","cancelMarket(bytes32)":"bdb83289","claim(bytes32)":"bd66528a","claimRefund(bytes32)":"71de2ffc","claimed(bytes32,address)":"dfcae622","createMarket(bytes32,uint8,uint256)":"c1caceb0","getMarket(bytes32)":"c3c95c7b","getOdds(bytes32)":"e8ceea2f","getUserBet(bytes32,address)":"44e39303","markets(bytes32)":"7564912b","owner()":"8da5cb5b","placeBet(bytes32,uint8,uint256)":"0bd12209","poolPerOutcome(bytes32,uint8)":"91c14e83","renounceOwnership()":"715018a6","resolve(bytes32,uint8)":"28ee2936","setTreasury(address)":"f0f44260","transferOwnership(address)":"f2fde38b","treasury()":"61d027b3","usdc()":"3e413bee","userBets(bytes32,address,uint8)":"75107b0c","userTotalBet(bytes32,address)":"91b22412"}}}}}