{"contracts/SabiParlayPools.sol":{"SabiParlayPools":{"abi":[{"inputs":[{"internalType":"address","name":"_usdc","type":"address"},{"internalType":"address","name":"_operator","type":"address"},{"internalType":"address","name":"_treasury","type":"address"}],"stateMutability":"nonpayable","type":"constructor"},{"inputs":[{"internalType":"address","name":"owner","type":"address"}],"name":"OwnableInvalidOwner","type":"error"},{"inputs":[{"internalType":"address","name":"account","type":"address"}],"name":"OwnableUnauthorizedAccount","type":"error"},{"inputs":[],"name":"ReentrancyGuardReentrantCall","type":"error"},{"inputs":[{"internalType":"address","name":"token","type":"address"}],"name":"SafeERC20FailedOperation","type":"error"},{"anonymous":false,"inputs":[{"indexed":true,"internalType":"uint256","name":"marketId","type":"uint256"},{"indexed":false,"internalType":"uint64","name":"locksAt","type":"uint64"}],"name":"MarketCreated","type":"event"},{"anonymous":false,"inputs":[{"indexed":true,"internalType":"uint256","name":"marketId","type":"uint256"},{"indexed":false,"internalType":"uint8","name":"resolution","type":"uint8"},{"indexed":false,"internalType":"uint256","name":"tier5Pool","type":"uint256"},{"indexed":false,"internalType":"uint256","name":"tier4Pool","type":"uint256"},{"indexed":false,"internalType":"uint256","name":"tier3Pool","type":"uint256"}],"name":"MarketSettled","type":"event"},{"anonymous":false,"inputs":[{"indexed":true,"internalType":"uint256","name":"marketId","type":"uint256"},{"indexed":false,"internalType":"uint256","name":"amount","type":"uint256"}],"name":"OrphanPoolSwept","type":"event"},{"anonymous":false,"inputs":[{"indexed":true,"internalType":"address","name":"previousOwner","type":"address"},{"indexed":true,"internalType":"address","name":"newOwner","type":"address"}],"name":"OwnershipTransferred","type":"event"},{"anonymous":false,"inputs":[{"indexed":true,"internalType":"uint256","name":"marketId","type":"uint256"},{"indexed":true,"internalType":"uint256","name":"ticketId","type":"uint256"},{"indexed":true,"internalType":"address","name":"user","type":"address"},{"indexed":false,"internalType":"uint256","name":"amount","type":"uint256"}],"name":"PayoutDelivered","type":"event"},{"anonymous":false,"inputs":[{"indexed":true,"internalType":"uint256","name":"marketId","type":"uint256"},{"indexed":true,"internalType":"uint256","name":"ticketId","type":"uint256"},{"indexed":true,"internalType":"address","name":"user","type":"address"},{"indexed":false,"internalType":"uint256","name":"stake","type":"uint256"},{"indexed":false,"internalType":"uint8","name":"picks","type":"uint8"}],"name":"TicketPlaced","type":"event"},{"inputs":[],"name":"BPS_DENOMINATOR","outputs":[{"internalType":"uint256","name":"","type":"uint256"}],"stateMutability":"view","type":"function"},{"inputs":[],"name":"PICKS_MASK","outputs":[{"internalType":"uint8","name":"","type":"uint8"}],"stateMutability":"view","type":"function"},{"inputs":[],"name":"RAKE_BPS","outputs":[{"internalType":"uint256","name":"","type":"uint256"}],"stateMutability":"view","type":"function"},{"inputs":[],"name":"TIER_3_BPS","outputs":[{"internalType":"uint256","name":"","type":"uint256"}],"stateMutability":"view","type":"function"},{"inputs":[],"name":"TIER_4_BPS","outputs":[{"internalType":"uint256","name":"","type":"uint256"}],"stateMutability":"view","type":"function"},{"inputs":[],"name":"TIER_5_BPS","outputs":[{"internalType":"uint256","name":"","type":"uint256"}],"stateMutability":"view","type":"function"},{"inputs":[{"internalType":"uint256","name":"marketId","type":"uint256"},{"internalType":"uint64","name":"locksAt","type":"uint64"}],"name":"createMarket","outputs":[],"stateMutability":"nonpayable","type":"function"},{"inputs":[{"internalType":"uint256","name":"marketId","type":"uint256"}],"name":"getMarket","outputs":[{"internalType":"uint64","name":"locksAt","type":"uint64"},{"internalType":"uint8","name":"resolution","type":"uint8"},{"internalType":"bool","name":"settled","type":"bool"},{"internalType":"uint256","name":"grossPool","type":"uint256"},{"internalType":"uint256","name":"tier5Stakes","type":"uint256"},{"internalType":"uint256","name":"tier4Stakes","type":"uint256"},{"internalType":"uint256","name":"tier3Stakes","type":"uint256"},{"internalType":"uint256","name":"tier5Pool","type":"uint256"},{"internalType":"uint256","name":"tier4Pool","type":"uint256"},{"internalType":"uint256","name":"tier3Pool","type":"uint256"}],"stateMutability":"view","type":"function"},{"inputs":[{"internalType":"uint256","name":"marketId","type":"uint256"},{"internalType":"uint256","name":"ticketId","type":"uint256"}],"name":"getTicket","outputs":[{"internalType":"address","name":"user","type":"address"},{"internalType":"uint256","name":"stake","type":"uint256"},{"internalType":"uint8","name":"picks","type":"uint8"},{"internalType":"bool","name":"paid","type":"bool"}],"stateMutability":"view","type":"function"},{"inputs":[{"internalType":"uint256","name":"","type":"uint256"}],"name":"markets","outputs":[{"internalType":"uint64","name":"locksAt","type":"uint64"},{"internalType":"uint8","name":"resolution","type":"uint8"},{"internalType":"bool","name":"settled","type":"bool"},{"internalType":"uint256","name":"grossPool","type":"uint256"},{"internalType":"uint256","name":"tier5Stakes","type":"uint256"},{"internalType":"uint256","name":"tier4Stakes","type":"uint256"},{"internalType":"uint256","name":"tier3Stakes","type":"uint256"},{"internalType":"uint256","name":"tier5Pool","type":"uint256"},{"internalType":"uint256","name":"tier4Pool","type":"uint256"},{"internalType":"uint256","name":"tier3Pool","type":"uint256"}],"stateMutability":"view","type":"function"},{"inputs":[],"name":"operator","outputs":[{"internalType":"address","name":"","type":"address"}],"stateMutability":"view","type":"function"},{"inputs":[],"name":"owner","outputs":[{"internalType":"address","name":"","type":"address"}],"stateMutability":"view","type":"function"},{"inputs":[{"internalType":"uint256","name":"marketId","type":"uint256"},{"internalType":"uint8","name":"picks","type":"uint8"},{"internalType":"uint256","name":"stake","type":"uint256"}],"name":"placeTicket","outputs":[],"stateMutability":"nonpayable","type":"function"},{"inputs":[],"name":"renounceOwnership","outputs":[],"stateMutability":"nonpayable","type":"function"},{"inputs":[{"internalType":"address","name":"_op","type":"address"}],"name":"setOperator","outputs":[],"stateMutability":"nonpayable","type":"function"},{"inputs":[{"internalType":"address","name":"_t","type":"address"}],"name":"setTreasury","outputs":[],"stateMutability":"nonpayable","type":"function"},{"inputs":[{"internalType":"uint256","name":"marketId","type":"uint256"},{"internalType":"uint8","name":"resolution","type":"uint8"},{"internalType":"uint256[]","name":"winnerTicketIds_5","type":"uint256[]"},{"internalType":"uint256[]","name":"winnerTicketIds_4","type":"uint256[]"},{"internalType":"uint256[]","name":"winnerTicketIds_3","type":"uint256[]"}],"name":"settleAndPayout","outputs":[],"stateMutability":"nonpayable","type":"function"},{"inputs":[{"internalType":"uint256","name":"","type":"uint256"}],"name":"ticketCount","outputs":[{"internalType":"uint256","name":"","type":"uint256"}],"stateMutability":"view","type":"function"},{"inputs":[{"internalType":"uint256","name":"","type":"uint256"},{"internalType":"uint256","name":"","type":"uint256"}],"name":"tickets","outputs":[{"internalType":"address","name":"user","type":"address"},{"internalType":"uint96","name":"stake","type":"uint96"},{"internalType":"uint8","name":"picks","type":"uint8"},{"internalType":"bool","name":"paid","type":"bool"}],"stateMutability":"view","type":"function"},{"inputs":[{"internalType":"address","name":"newOwner","type":"address"}],"name":"transferOwnership","outputs":[],"stateMutability":"nonpayable","type":"function"},{"inputs":[],"name":"treasury","outputs":[{"internalType":"address","name":"","type":"address"}],"stateMutability":"view","type":"function"},{"inputs":[],"name":"usdc","outputs":[{"internalType":"contract IERC20","name":"","type":"address"}],"stateMutability":"view","type":"function"}],"evm":{"bytecode":{"linkReferences":{},"object":"60a03461014257601f620015d838819003918201601f19168301916001600160401b0383118484101761014757808492606094604052833981010312610142576100488161015d565b61006060406100596020850161015d565b930161015d565b91331561012957600080546001600160a01b03198082163390811784556040519691956001600160a01b039592948694859391908416907f8be0079c531659141344cd1fd0a4f28419497f9722a3daafe3b4186f6b6457e09080a360017f9b779b17422d0df92223018b32b4d1fa46e071723d6817e2486d003becc55f005516608052168360015416176001551690600254161760025561146690816200017282396080518181816104de01528181610a8701528181610e8501528181610f6b015261136f0152f35b604051631e4fbdf760e01b815260006004820152602490fd5b600080fd5b634e487b7160e01b600052604160045260246000fd5b51906001600160a01b03821682036101425756fe60c080604052600436101561001357600080fd5b60003560e01c908163020183d8146110c5575080630c63f832146110995780633c8773a814610f9a5780633e413bee14610f555780634f88eb6d146107d6578063570ca735146107ad57806361d027b3146107845780636e0d5c4014610462578063715018a6146104095780638da5cb5b146103e0578063958e097c146103c3578063a374e43f14610364578063a426e4c814610364578063b1283e77146101e7578063b3ab15fb1461031e578063bb369f9014610302578063d746d283146102e5578063e1a45218146102c8578063e9a892c0146102ab578063eb44fdd3146101e7578063f0f44260146101a15763f2fde38b1461011157600080fd5b3461019c57602036600319011261019c576004356001600160a01b038181169182900361019c57610140611404565b811561018357600054826001600160601b0360a01b821617600055167f8be0079c531659141344cd1fd0a4f28419497f9722a3daafe3b4186f6b6457e0600080a3005b604051631e4fbdf760e01b815260006004820152602490fd5b600080fd5b3461019c57602036600319011261019c576004356001600160a01b0381169081900361019c576101cf611404565b6001600160601b0360a01b6002541617600255600080f35b3461019c57602036600319011261019c576004356000526003602052604060002080546102a7600183015492600281015490600381015460048201546005830154916007600685015494015494604051988860ff8b9a60481c169067ffffffffffffffff60ff8260401c1691168b9693909a9998959260ff61012099969367ffffffffffffffff6101408b019e168a52166020890152151560408801526060870152608086015260a085015260c084015260e08301526101008201520152565b0390f35b3461019c57600036600319011261019c5760206040516101f48152f35b3461019c57600036600319011261019c5760206040516127108152f35b3461019c57600036600319011261019c57602060405161157c8152f35b3461019c57600036600319011261019c576020604051601f8152f35b3461019c57602036600319011261019c576004356001600160a01b0381169081900361019c5761034c611404565b6001600160601b0360a01b6001541617600155600080f35b3461019c5761037236611121565b9060005260046020526040600020906000526020526080604060002060ff600182549201546040519260018060a01b038116845260a01c6020840152818116604084015260081c1615156060820152f35b3461019c57600036600319011261019c576020604051610bb88152f35b3461019c57600036600319011261019c576000546040516001600160a01b039091168152602090f35b3461019c57600036600319011261019c57610422611404565b600080546001600160a01b0319811682556001600160a01b03167f8be0079c531659141344cd1fd0a4f28419497f9722a3daafe3b4186f6b6457e08280a3005b3461019c57606036600319011261019c5760043561047e6110e0565b9060449182359161048d61118c565b8060005260206003815260406000209067ffffffffffffffff80835416801515908161077a575b501561074d57851561071c576001600160601b03948587116106e65760ff1692828410156106b6577f00000000000000000000000000000000000000000000000000000000000000009787604051916323b872dd60e01b600052336004523060245252836000606481808d5af1986001998a60005114811615610697575b82604052600060605215610679575050846000526005835260406000209586549660001988146106635789880190556040519060808201938285109085111761064d578993604052338252848201908916815260ff8460408401938885526060810193600085528a6000526004895260406000208c600052895260406000209160018060a01b03905116906001600160601b0360a01b905160a01b161781550192511661ff0083549251151560081b169161ffff191617179055016105f886825461117f565b90556040519485528401527f2e73d31af8c880b9b8e2309728c59532810301a57c54ada57c87b25874247d5e60403394a47f9b779b17422d0df92223018b32b4d1fa46e071723d6817e2486d003becc55f0055005b634e487b7160e01b600052604160045260246000fd5b634e487b7160e01b600052601160045260246000fd5b635274afe760e01b82526001600160a01b0316600482015260249150fd5b8a8115166106ac57813b15153d151616610532565b823d6000823e3d90fd5b60405162461bcd60e51b8152600481018490526009602482015268626164207069636b7360b81b818a0152606490fd5b60405162461bcd60e51b815260048101849052600f60248201526e7374616b6520746f6f206c6172676560881b818a0152606490fd5b60405162461bcd60e51b815260048101839052600a6024820152697a65726f207374616b6560b01b81890152606490fd5b60405162461bcd60e51b815260048101839052600660248201526518db1bdcd95960d21b81890152606490fd5b90504210886104b4565b3461019c57600036600319011261019c576002546040516001600160a01b039091168152602090f35b3461019c57600036600319011261019c576001546040516001600160a01b039091168152602090f35b3461019c5760a036600319011261019c576107ef6110e0565b60443567ffffffffffffffff811161019c5761080f9036906004016110f0565b909160643567ffffffffffffffff811161019c576108319036906004016110f0565b929060843567ffffffffffffffff811161019c576108539036906004016110f0565b9161086960018060a01b03600154163314611137565b61087161118c565b6004356000526003602052604060002093845467ffffffffffffffff811680151580610f47575b15610f16574210610ee557602060ff88161015610eaf5769ffff00000000000000001916604087901b68ff0000000000000000161769010000000000000000001785556001850154966101f48815818a028a90048214171561066357612710610905918a02048099611172565b9780610e72575b5060009260005b838110610d9d575060009360005b838110610cbe575060009860005b888110610b4057508160028a01558560038a01558960048a015561157c94858c028c15968d820414871715610663576127109004918c610bb880820291820414881715610663576127108e9104976105dc91828102048214171561066357612710908e02049a8415610b2c575b8815610b18575b60009d8d15610b0d575b6109c48f6109bf8f6109bf8d8a61117f565b61117f565b90808210610adf575b505091610a479d9e84928d600786610a3f986005610a3f9f9e9d9c9b9901558b6006820155015560ff604051911681528360208201528860408201528d60608201527fe789e70b0c20c525714f306faaa0bf5d2a79d0e4e56dbf9f51425a393ced9e58608060043592a2600435611275565b600435611275565b80610a73575b60017f9b779b17422d0df92223018b32b4d1fa46e071723d6817e2486d003becc55f0055005b600254610aab9082906001600160a01b03167f00000000000000000000000000000000000000000000000000000000000000006111ce565b6040519081527fa975a09adfde26f80b86fff679053171394a831309cb05f28d7f35fc5f3dbcf7602060043592a280610a4d565b8d9a99989796949295939f91610af491611172565b610afd9161117f565b9d919390929495969798386109cd565b9b9d5060009b6109ad565b96610b23919b61117f565b996000966109a3565b92610b37919761117f565b9560009261099c565b999b96929a9591989490979360043560005260046020526040600020610b678c878761124f565b3560005260205260406000209b8c5460a05260018060a01b0360a0511615610c8f5760018d01549a60ff8c60081c16610c6057601f60ff8d168c1881161860805260005b60ff6080511615610bed5760ff808216146106635760ff60019116019a60ff60001981608051160111610663576080805160ff8116600019011690529a610bab565b999e9094989d92969a93979b91959960ff6003911603610c2e5760019283610100610c279461ff0019161791015560a05160a01c9061117f565b9a0161092f565b60405162461bcd60e51b815260206004820152600a6024820152693bb937b733903a34b2b960b11b6044820152606490fd5b60405162461bcd60e51b8152602060048201526007602482015266191d5c081d1a5960ca1b6044820152606490fd5b60405162461bcd60e51b8152602060048201526007602482015266189859081d1a5960ca1b6044820152606490fd5b97909495989199929660049b949b3560005260046020528a610ce68a8a60406000209361124f565b356000526020526040600020998a549c8d60018060a01b031615610c8f5760018c01549960ff8b60081c16610c6057979c601f60ff8c168718811618989060005b60ff8b1615610d5c5760ff1660ff8114610663576001019960ff80821660001901116106635760ff8116600019011699610d27565b600491979e959c949b93999a50999f91979e959c9960ff1603610c2e5760019384610100610d969561ff0019161791015560a01c9061117f565b9501610921565b9598909760049a9293949a3560005260046020526040600020610dc188878661124f565b3560005260205260406000209788549a60018060a01b038c1615610c8f5760018a01549760ff8960081c16610c6057601f979697808560ff8c16181618966000975b60ff8116988915610e305760ff1660ff81146106635760010198600019019060ff82116106635716610e03565b979f939b9997969e929a949c959d96600592995060ff91501603610c2e5760019384610100610e6b9561ff0019161791015560a01c9061117f565b9401610913565b600254610ea991906001600160a01b03167f00000000000000000000000000000000000000000000000000000000000000006111ce565b8961090c565b60405162461bcd60e51b815260206004820152600e60248201526d3130b2103932b9b7b63aba34b7b760911b6044820152606490fd5b60405162461bcd60e51b8152602060048201526009602482015268746f6f206561726c7960b81b6044820152606490fd5b60405162461bcd60e51b815260206004820152600960248201526862616420737461746560b81b6044820152606490fd5b5060ff8260481c1615610898565b3461019c57600036600319011261019c576040517f00000000000000000000000000000000000000000000000000000000000000006001600160a01b03168152602090f35b3461019c57604036600319011261019c5760043560243567ffffffffffffffff80821680920361019c57610fd960018060a01b03600154163314611137565b8260005260036020526040600020541661106b57428111156110405760207f7595a3bf45d01ef9254ae39f1ec19be2262703373153bde26e12a962b053229991836000526003825260406000208167ffffffffffffffff19825416179055604051908152a2005b606460405162461bcd60e51b81526020600482015260046024820152631c185cdd60e21b6044820152fd5b60405162461bcd60e51b815260206004820152600660248201526565786973747360d01b6044820152606490fd5b3461019c57602036600319011261019c5760043560005260056020526020604060002054604051908152f35b3461019c57600036600319011261019c57806105dc60209252f35b6024359060ff8216820361019c57565b9181601f8401121561019c5782359167ffffffffffffffff831161019c576020808501948460051b01011161019c57565b604090600319011261019c576004359060243590565b1561113e57565b60405162461bcd60e51b815260206004820152600c60248201526b3737ba1037b832b930ba37b960a11b6044820152606490fd5b9190820391821161066357565b9190820180921161066357565b7f9b779b17422d0df92223018b32b4d1fa46e071723d6817e2486d003becc55f0060028154146111bc5760029055565b604051633ee5aeb560e01b8152600490fd5b60405163a9059cbb60e01b60009081526001600160a01b039384166004526024949094529260209060448180855af160016000511481161561122f575b836040521561121957505050565b635274afe760e01b835216600482015260249150fd5b600181151661124557813b15153d15161661120b565b833d6000823e3d90fd5b919081101561125f5760051b0190565b634e487b7160e01b600052603260045260246000fd5b831594929392918580156113fc575b6113f45760009060005b86811061129f575050505050505050565b83600052600492602090848252604091826000206112be858c8861124f565b35600052815282600020918254968760a01c8d818d02918d83041417156113df578a156113ca578a9004906000198d01908d82116113b557509289927fb3ec26f90e981d944f630dd197d3e82be1b23a68d8668eced0af40810e8ec89b92888f8f829a999860019c1461139a575b5061133b8361134b949561117f565b9c8480611362575b50508b61124f565b3594888060a01b039054169551908152a40161128e565b611393918d8060a01b03167f00000000000000000000000000000000000000000000000000000000000000006111ce565b3884611343565b61134b93506113ac8561133b92611172565b9350508f61132c565b601190634e487b7160e01b6000525260246000fd5b601282634e487b7160e01b6000525260246000fd5b601182634e487b7160e01b6000525260246000fd5b505050505050565b508215611284565b6000546001600160a01b0316330361141857565b60405163118cdaa760e01b8152336004820152602490fdfea26469706673582212205fd1b02ab87c7e444d9b6065e9794a2027aa12107f011b4efb7563d0716c154364736f6c63430008180033","opcodes":"PUSH1 0xA0 CALLVALUE PUSH2 0x142 JUMPI PUSH1 0x1F PUSH3 0x15D8 CODESIZE DUP2 SWAP1 SUB SWAP2 DUP3 ADD PUSH1 0x1F NOT AND DUP4 ADD SWAP2 PUSH1 0x1 PUSH1 0x1 PUSH1 0x40 SHL SUB DUP4 GT DUP5 DUP5 LT OR PUSH2 0x147 JUMPI DUP1 DUP5 SWAP3 PUSH1 0x60 SWAP5 PUSH1 0x40 MSTORE DUP4 CODECOPY DUP2 ADD SUB SLT PUSH2 0x142 JUMPI PUSH2 0x48 DUP2 PUSH2 0x15D JUMP JUMPDEST PUSH2 0x60 PUSH1 0x40 PUSH2 0x59 PUSH1 0x20 DUP6 ADD PUSH2 0x15D JUMP JUMPDEST SWAP4 ADD PUSH2 0x15D JUMP JUMPDEST SWAP2 CALLER ISZERO PUSH2 0x129 JUMPI PUSH1 0x0 DUP1 SLOAD PUSH1 0x1 PUSH1 0x1 PUSH1 0xA0 SHL SUB NOT DUP1 DUP3 AND CALLER SWAP1 DUP2 OR DUP5 SSTORE PUSH1 0x40 MLOAD SWAP7 SWAP2 SWAP6 PUSH1 0x1 PUSH1 0x1 PUSH1 0xA0 SHL SUB SWAP6 SWAP3 SWAP5 DUP7 SWAP5 DUP6 SWAP4 SWAP2 SWAP1 DUP5 AND SWAP1 PUSH32 0x8BE0079C531659141344CD1FD0A4F28419497F9722A3DAAFE3B4186F6B6457E0 SWAP1 DUP1 LOG3 PUSH1 0x1 PUSH32 0x9B779B17422D0DF92223018B32B4D1FA46E071723D6817E2486D003BECC55F00 SSTORE AND PUSH1 0x80 MSTORE AND DUP4 PUSH1 0x1 SLOAD AND OR PUSH1 0x1 SSTORE AND SWAP1 PUSH1 0x2 SLOAD AND OR PUSH1 0x2 SSTORE PUSH2 0x1466 SWAP1 DUP2 PUSH3 0x172 DUP3 CODECOPY PUSH1 0x80 MLOAD DUP2 DUP2 DUP2 PUSH2 0x4DE ADD MSTORE DUP2 DUP2 PUSH2 0xA87 ADD MSTORE DUP2 DUP2 PUSH2 0xE85 ADD MSTORE DUP2 DUP2 PUSH2 0xF6B ADD MSTORE PUSH2 0x136F ADD MSTORE RETURN JUMPDEST PUSH1 0x40 MLOAD PUSH4 0x1E4FBDF7 PUSH1 0xE0 SHL DUP2 MSTORE PUSH1 0x0 PUSH1 0x4 DUP3 ADD MSTORE PUSH1 0x24 SWAP1 REVERT JUMPDEST PUSH1 0x0 DUP1 REVERT JUMPDEST PUSH4 0x4E487B71 PUSH1 0xE0 SHL PUSH1 0x0 MSTORE PUSH1 0x41 PUSH1 0x4 MSTORE PUSH1 0x24 PUSH1 0x0 REVERT JUMPDEST MLOAD SWAP1 PUSH1 0x1 PUSH1 0x1 PUSH1 0xA0 SHL SUB DUP3 AND DUP3 SUB PUSH2 0x142 JUMPI JUMP INVALID PUSH1 0xC0 DUP1 PUSH1 0x40 MSTORE PUSH1 0x4 CALLDATASIZE LT ISZERO PUSH2 0x13 JUMPI PUSH1 0x0 DUP1 REVERT JUMPDEST PUSH1 0x0 CALLDATALOAD PUSH1 0xE0 SHR SWAP1 DUP2 PUSH4 0x20183D8 EQ PUSH2 0x10C5 JUMPI POP DUP1 PUSH4 0xC63F832 EQ PUSH2 0x1099 JUMPI DUP1 PUSH4 0x3C8773A8 EQ PUSH2 0xF9A JUMPI DUP1 PUSH4 0x3E413BEE EQ PUSH2 0xF55 JUMPI DUP1 PUSH4 0x4F88EB6D EQ PUSH2 0x7D6 JUMPI DUP1 PUSH4 0x570CA735 EQ PUSH2 0x7AD JUMPI DUP1 PUSH4 0x61D027B3 EQ PUSH2 0x784 JUMPI DUP1 PUSH4 0x6E0D5C40 EQ PUSH2 0x462 JUMPI DUP1 PUSH4 0x715018A6 EQ PUSH2 0x409 JUMPI DUP1 PUSH4 0x8DA5CB5B EQ PUSH2 0x3E0 JUMPI DUP1 PUSH4 0x958E097C EQ PUSH2 0x3C3 JUMPI DUP1 PUSH4 0xA374E43F EQ PUSH2 0x364 JUMPI DUP1 PUSH4 0xA426E4C8 EQ PUSH2 0x364 JUMPI DUP1 PUSH4 0xB1283E77 EQ PUSH2 0x1E7 JUMPI DUP1 PUSH4 0xB3AB15FB EQ PUSH2 0x31E JUMPI DUP1 PUSH4 0xBB369F90 EQ PUSH2 0x302 JUMPI DUP1 PUSH4 0xD746D283 EQ PUSH2 0x2E5 JUMPI DUP1 PUSH4 0xE1A45218 EQ PUSH2 0x2C8 JUMPI DUP1 PUSH4 0xE9A892C0 EQ PUSH2 0x2AB JUMPI DUP1 PUSH4 0xEB44FDD3 EQ PUSH2 0x1E7 JUMPI DUP1 PUSH4 0xF0F44260 EQ PUSH2 0x1A1 JUMPI PUSH4 0xF2FDE38B EQ PUSH2 0x111 JUMPI PUSH1 0x0 DUP1 REVERT JUMPDEST CALLVALUE PUSH2 0x19C JUMPI PUSH1 0x20 CALLDATASIZE PUSH1 0x3 NOT ADD SLT PUSH2 0x19C JUMPI PUSH1 0x4 CALLDATALOAD PUSH1 0x1 PUSH1 0x1 PUSH1 0xA0 SHL SUB DUP2 DUP2 AND SWAP2 DUP3 SWAP1 SUB PUSH2 0x19C JUMPI PUSH2 0x140 PUSH2 0x1404 JUMP JUMPDEST DUP2 ISZERO PUSH2 0x183 JUMPI PUSH1 0x0 SLOAD DUP3 PUSH1 0x1 PUSH1 0x1 PUSH1 0x60 SHL SUB PUSH1 0xA0 SHL DUP3 AND OR PUSH1 0x0 SSTORE AND PUSH32 0x8BE0079C531659141344CD1FD0A4F28419497F9722A3DAAFE3B4186F6B6457E0 PUSH1 0x0 DUP1 LOG3 STOP JUMPDEST PUSH1 0x40 MLOAD PUSH4 0x1E4FBDF7 PUSH1 0xE0 SHL DUP2 MSTORE PUSH1 0x0 PUSH1 0x4 DUP3 ADD MSTORE PUSH1 0x24 SWAP1 REVERT JUMPDEST PUSH1 0x0 DUP1 REVERT JUMPDEST CALLVALUE PUSH2 0x19C JUMPI PUSH1 0x20 CALLDATASIZE PUSH1 0x3 NOT ADD SLT PUSH2 0x19C JUMPI PUSH1 0x4 CALLDATALOAD PUSH1 0x1 PUSH1 0x1 PUSH1 0xA0 SHL SUB DUP2 AND SWAP1 DUP2 SWAP1 SUB PUSH2 0x19C JUMPI PUSH2 0x1CF PUSH2 0x1404 JUMP JUMPDEST PUSH1 0x1 PUSH1 0x1 PUSH1 0x60 SHL SUB PUSH1 0xA0 SHL PUSH1 0x2 SLOAD AND OR PUSH1 0x2 SSTORE PUSH1 0x0 DUP1 RETURN JUMPDEST CALLVALUE PUSH2 0x19C JUMPI PUSH1 0x20 CALLDATASIZE PUSH1 0x3 NOT ADD SLT PUSH2 0x19C JUMPI PUSH1 0x4 CALLDATALOAD PUSH1 0x0 MSTORE PUSH1 0x3 PUSH1 0x20 MSTORE PUSH1 0x40 PUSH1 0x0 KECCAK256 DUP1 SLOAD PUSH2 0x2A7 PUSH1 0x1 DUP4 ADD SLOAD SWAP3 PUSH1 0x2 DUP2 ADD SLOAD SWAP1 PUSH1 0x3 DUP2 ADD SLOAD PUSH1 0x4 DUP3 ADD SLOAD PUSH1 0x5 DUP4 ADD SLOAD SWAP2 PUSH1 0x7 PUSH1 0x6 DUP6 ADD SLOAD SWAP5 ADD SLOAD SWAP5 PUSH1 0x40 MLOAD SWAP9 DUP9 PUSH1 0xFF DUP12 SWAP11 PUSH1 0x48 SHR AND SWAP1 PUSH8 0xFFFFFFFFFFFFFFFF PUSH1 0xFF DUP3 PUSH1 0x40 SHR AND SWAP2 AND DUP12 SWAP7 SWAP4 SWAP1 SWAP11 SWAP10 SWAP9 SWAP6 SWAP3 PUSH1 0xFF PUSH2 0x120 SWAP10 SWAP7 SWAP4 PUSH8 0xFFFFFFFFFFFFFFFF PUSH2 0x140 DUP12 ADD SWAP15 AND DUP11 MSTORE AND PUSH1 0x20 DUP10 ADD MSTORE ISZERO ISZERO PUSH1 0x40 DUP9 ADD MSTORE PUSH1 0x60 DUP8 ADD MSTORE PUSH1 0x80 DUP7 ADD MSTORE PUSH1 0xA0 DUP6 ADD MSTORE PUSH1 0xC0 DUP5 ADD MSTORE PUSH1 0xE0 DUP4 ADD MSTORE PUSH2 0x100 DUP3 ADD MSTORE ADD MSTORE JUMP JUMPDEST SUB SWAP1 RETURN JUMPDEST CALLVALUE PUSH2 0x19C JUMPI PUSH1 0x0 CALLDATASIZE PUSH1 0x3 NOT ADD SLT PUSH2 0x19C JUMPI PUSH1 0x20 PUSH1 0x40 MLOAD PUSH2 0x1F4 DUP2 MSTORE RETURN JUMPDEST CALLVALUE PUSH2 0x19C JUMPI PUSH1 0x0 CALLDATASIZE PUSH1 0x3 NOT ADD SLT PUSH2 0x19C JUMPI PUSH1 0x20 PUSH1 0x40 MLOAD PUSH2 0x2710 DUP2 MSTORE RETURN JUMPDEST CALLVALUE PUSH2 0x19C JUMPI PUSH1 0x0 CALLDATASIZE PUSH1 0x3 NOT ADD SLT PUSH2 0x19C JUMPI PUSH1 0x20 PUSH1 0x40 MLOAD PUSH2 0x157C DUP2 MSTORE RETURN JUMPDEST CALLVALUE PUSH2 0x19C JUMPI PUSH1 0x0 CALLDATASIZE PUSH1 0x3 NOT ADD SLT PUSH2 0x19C JUMPI PUSH1 0x20 PUSH1 0x40 MLOAD PUSH1 0x1F DUP2 MSTORE RETURN JUMPDEST CALLVALUE PUSH2 0x19C JUMPI PUSH1 0x20 CALLDATASIZE PUSH1 0x3 NOT ADD SLT PUSH2 0x19C JUMPI PUSH1 0x4 CALLDATALOAD PUSH1 0x1 PUSH1 0x1 PUSH1 0xA0 SHL SUB DUP2 AND SWAP1 DUP2 SWAP1 SUB PUSH2 0x19C JUMPI PUSH2 0x34C PUSH2 0x1404 JUMP JUMPDEST PUSH1 0x1 PUSH1 0x1 PUSH1 0x60 SHL SUB PUSH1 0xA0 SHL PUSH1 0x1 SLOAD AND OR PUSH1 0x1 SSTORE PUSH1 0x0 DUP1 RETURN JUMPDEST CALLVALUE PUSH2 0x19C JUMPI PUSH2 0x372 CALLDATASIZE PUSH2 0x1121 JUMP JUMPDEST SWAP1 PUSH1 0x0 MSTORE PUSH1 0x4 PUSH1 0x20 MSTORE PUSH1 0x40 PUSH1 0x0 KECCAK256 SWAP1 PUSH1 0x0 MSTORE PUSH1 0x20 MSTORE PUSH1 0x80 PUSH1 0x40 PUSH1 0x0 KECCAK256 PUSH1 0xFF PUSH1 0x1 DUP3 SLOAD SWAP3 ADD SLOAD PUSH1 0x40 MLOAD SWAP3 PUSH1 0x1 DUP1 PUSH1 0xA0 SHL SUB DUP2 AND DUP5 MSTORE PUSH1 0xA0 SHR PUSH1 0x20 DUP5 ADD MSTORE DUP2 DUP2 AND PUSH1 0x40 DUP5 ADD MSTORE PUSH1 0x8 SHR AND ISZERO ISZERO PUSH1 0x60 DUP3 ADD MSTORE RETURN JUMPDEST CALLVALUE PUSH2 0x19C JUMPI PUSH1 0x0 CALLDATASIZE PUSH1 0x3 NOT ADD SLT PUSH2 0x19C JUMPI PUSH1 0x20 PUSH1 0x40 MLOAD PUSH2 0xBB8 DUP2 MSTORE RETURN JUMPDEST CALLVALUE PUSH2 0x19C JUMPI PUSH1 0x0 CALLDATASIZE PUSH1 0x3 NOT ADD SLT PUSH2 0x19C JUMPI PUSH1 0x0 SLOAD PUSH1 0x40 MLOAD PUSH1 0x1 PUSH1 0x1 PUSH1 0xA0 SHL SUB SWAP1 SWAP2 AND DUP2 MSTORE PUSH1 0x20 SWAP1 RETURN JUMPDEST CALLVALUE PUSH2 0x19C JUMPI PUSH1 0x0 CALLDATASIZE PUSH1 0x3 NOT ADD SLT PUSH2 0x19C JUMPI PUSH2 0x422 PUSH2 0x1404 JUMP JUMPDEST PUSH1 0x0 DUP1 SLOAD PUSH1 0x1 PUSH1 0x1 PUSH1 0xA0 SHL SUB NOT DUP2 AND DUP3 SSTORE PUSH1 0x1 PUSH1 0x1 PUSH1 0xA0 SHL SUB AND PUSH32 0x8BE0079C531659141344CD1FD0A4F28419497F9722A3DAAFE3B4186F6B6457E0 DUP3 DUP1 LOG3 STOP JUMPDEST CALLVALUE PUSH2 0x19C JUMPI PUSH1 0x60 CALLDATASIZE PUSH1 0x3 NOT ADD SLT PUSH2 0x19C JUMPI PUSH1 0x4 CALLDATALOAD PUSH2 0x47E PUSH2 0x10E0 JUMP JUMPDEST SWAP1 PUSH1 0x44 SWAP2 DUP3 CALLDATALOAD SWAP2 PUSH2 0x48D PUSH2 0x118C JUMP JUMPDEST DUP1 PUSH1 0x0 MSTORE PUSH1 0x20 PUSH1 0x3 DUP2 MSTORE PUSH1 0x40 PUSH1 0x0 KECCAK256 SWAP1 PUSH8 0xFFFFFFFFFFFFFFFF DUP1 DUP4 SLOAD AND DUP1 ISZERO ISZERO SWAP1 DUP2 PUSH2 0x77A JUMPI JUMPDEST POP ISZERO PUSH2 0x74D JUMPI DUP6 ISZERO PUSH2 0x71C JUMPI PUSH1 0x1 PUSH1 0x1 PUSH1 0x60 SHL SUB SWAP5 DUP6 DUP8 GT PUSH2 0x6E6 JUMPI PUSH1 0xFF AND SWAP3 DUP3 DUP5 LT ISZERO PUSH2 0x6B6 JUMPI PUSH32 0x0 SWAP8 DUP8 PUSH1 0x40 MLOAD SWAP2 PUSH4 0x23B872DD PUSH1 0xE0 SHL PUSH1 0x0 MSTORE CALLER PUSH1 0x4 MSTORE ADDRESS PUSH1 0x24 MSTORE MSTORE DUP4 PUSH1 0x0 PUSH1 0x64 DUP2 DUP1 DUP14 GAS CALL SWAP9 PUSH1 0x1 SWAP10 DUP11 PUSH1 0x0 MLOAD EQ DUP2 AND ISZERO PUSH2 0x697 JUMPI JUMPDEST DUP3 PUSH1 0x40 MSTORE PUSH1 0x0 PUSH1 0x60 MSTORE ISZERO PUSH2 0x679 JUMPI POP POP DUP5 PUSH1 0x0 MSTORE PUSH1 0x5 DUP4 MSTORE PUSH1 0x40 PUSH1 0x0 KECCAK256 SWAP6 DUP7 SLOAD SWAP7 PUSH1 0x0 NOT DUP9 EQ PUSH2 0x663 JUMPI DUP10 DUP9 ADD SWAP1 SSTORE PUSH1 0x40 MLOAD SWAP1 PUSH1 0x80 DUP3 ADD SWAP4 DUP3 DUP6 LT SWAP1 DUP6 GT OR PUSH2 0x64D JUMPI DUP10 SWAP4 PUSH1 0x40 MSTORE CALLER DUP3 MSTORE DUP5 DUP3 ADD SWAP1 DUP10 AND DUP2 MSTORE PUSH1 0xFF DUP5 PUSH1 0x40 DUP5 ADD SWAP4 DUP9 DUP6 MSTORE PUSH1 0x60 DUP2 ADD SWAP4 PUSH1 0x0 DUP6 MSTORE DUP11 PUSH1 0x0 MSTORE PUSH1 0x4 DUP10 MSTORE PUSH1 0x40 PUSH1 0x0 KECCAK256 DUP13 PUSH1 0x0 MSTORE DUP10 MSTORE PUSH1 0x40 PUSH1 0x0 KECCAK256 SWAP2 PUSH1 0x1 DUP1 PUSH1 0xA0 SHL SUB SWAP1 MLOAD AND SWAP1 PUSH1 0x1 PUSH1 0x1 PUSH1 0x60 SHL SUB PUSH1 0xA0 SHL SWAP1 MLOAD PUSH1 0xA0 SHL AND OR DUP2 SSTORE ADD SWAP3 MLOAD AND PUSH2 0xFF00 DUP4 SLOAD SWAP3 MLOAD ISZERO ISZERO PUSH1 0x8 SHL AND SWAP2 PUSH2 0xFFFF NOT AND OR OR SWAP1 SSTORE ADD PUSH2 0x5F8 DUP7 DUP3 SLOAD PUSH2 0x117F JUMP JUMPDEST SWAP1 SSTORE PUSH1 0x40 MLOAD SWAP5 DUP6 MSTORE DUP5 ADD MSTORE PUSH32 0x2E73D31AF8C880B9B8E2309728C59532810301A57C54ADA57C87B25874247D5E PUSH1 0x40 CALLER SWAP5 LOG4 PUSH32 0x9B779B17422D0DF92223018B32B4D1FA46E071723D6817E2486D003BECC55F00 SSTORE STOP JUMPDEST PUSH4 0x4E487B71 PUSH1 0xE0 SHL PUSH1 0x0 MSTORE PUSH1 0x41 PUSH1 0x4 MSTORE PUSH1 0x24 PUSH1 0x0 REVERT JUMPDEST PUSH4 0x4E487B71 PUSH1 0xE0 SHL PUSH1 0x0 MSTORE PUSH1 0x11 PUSH1 0x4 MSTORE PUSH1 0x24 PUSH1 0x0 REVERT JUMPDEST PUSH4 0x5274AFE7 PUSH1 0xE0 SHL DUP3 MSTORE PUSH1 0x1 PUSH1 0x1 PUSH1 0xA0 SHL SUB AND PUSH1 0x4 DUP3 ADD MSTORE PUSH1 0x24 SWAP2 POP REVERT JUMPDEST DUP11 DUP2 ISZERO AND PUSH2 0x6AC JUMPI DUP2 EXTCODESIZE ISZERO ISZERO RETURNDATASIZE ISZERO AND AND PUSH2 0x532 JUMP JUMPDEST DUP3 RETURNDATASIZE PUSH1 0x0 DUP3 RETURNDATACOPY RETURNDATASIZE SWAP1 REVERT JUMPDEST PUSH1 0x40 MLOAD PUSH3 0x461BCD PUSH1 0xE5 SHL DUP2 MSTORE PUSH1 0x4 DUP2 ADD DUP5 SWAP1 MSTORE PUSH1 0x9 PUSH1 0x24 DUP3 ADD MSTORE PUSH9 0x626164207069636B73 PUSH1 0xB8 SHL DUP2 DUP11 ADD MSTORE PUSH1 0x64 SWAP1 REVERT JUMPDEST PUSH1 0x40 MLOAD PUSH3 0x461BCD PUSH1 0xE5 SHL DUP2 MSTORE PUSH1 0x4 DUP2 ADD DUP5 SWAP1 MSTORE PUSH1 0xF PUSH1 0x24 DUP3 ADD MSTORE PUSH15 0x7374616B6520746F6F206C61726765 PUSH1 0x88 SHL DUP2 DUP11 ADD MSTORE PUSH1 0x64 SWAP1 REVERT JUMPDEST PUSH1 0x40 MLOAD PUSH3 0x461BCD PUSH1 0xE5 SHL DUP2 MSTORE PUSH1 0x4 DUP2 ADD DUP4 SWAP1 MSTORE PUSH1 0xA PUSH1 0x24 DUP3 ADD MSTORE PUSH10 0x7A65726F207374616B65 PUSH1 0xB0 SHL DUP2 DUP10 ADD MSTORE PUSH1 0x64 SWAP1 REVERT JUMPDEST PUSH1 0x40 MLOAD PUSH3 0x461BCD PUSH1 0xE5 SHL DUP2 MSTORE PUSH1 0x4 DUP2 ADD DUP4 SWAP1 MSTORE PUSH1 0x6 PUSH1 0x24 DUP3 ADD MSTORE PUSH6 0x18DB1BDCD959 PUSH1 0xD2 SHL DUP2 DUP10 ADD MSTORE PUSH1 0x64 SWAP1 REVERT JUMPDEST SWAP1 POP TIMESTAMP LT DUP9 PUSH2 0x4B4 JUMP JUMPDEST CALLVALUE PUSH2 0x19C JUMPI PUSH1 0x0 CALLDATASIZE PUSH1 0x3 NOT ADD SLT PUSH2 0x19C JUMPI PUSH1 0x2 SLOAD PUSH1 0x40 MLOAD PUSH1 0x1 PUSH1 0x1 PUSH1 0xA0 SHL SUB SWAP1 SWAP2 AND DUP2 MSTORE PUSH1 0x20 SWAP1 RETURN JUMPDEST CALLVALUE PUSH2 0x19C JUMPI PUSH1 0x0 CALLDATASIZE PUSH1 0x3 NOT ADD SLT PUSH2 0x19C JUMPI PUSH1 0x1 SLOAD PUSH1 0x40 MLOAD PUSH1 0x1 PUSH1 0x1 PUSH1 0xA0 SHL SUB SWAP1 SWAP2 AND DUP2 MSTORE PUSH1 0x20 SWAP1 RETURN JUMPDEST CALLVALUE PUSH2 0x19C JUMPI PUSH1 0xA0 CALLDATASIZE PUSH1 0x3 NOT ADD SLT PUSH2 0x19C JUMPI PUSH2 0x7EF PUSH2 0x10E0 JUMP JUMPDEST PUSH1 0x44 CALLDATALOAD PUSH8 0xFFFFFFFFFFFFFFFF DUP2 GT PUSH2 0x19C JUMPI PUSH2 0x80F SWAP1 CALLDATASIZE SWAP1 PUSH1 0x4 ADD PUSH2 0x10F0 JUMP JUMPDEST SWAP1 SWAP2 PUSH1 0x64 CALLDATALOAD PUSH8 0xFFFFFFFFFFFFFFFF DUP2 GT PUSH2 0x19C JUMPI PUSH2 0x831 SWAP1 CALLDATASIZE SWAP1 PUSH1 0x4 ADD PUSH2 0x10F0 JUMP JUMPDEST SWAP3 SWAP1 PUSH1 0x84 CALLDATALOAD PUSH8 0xFFFFFFFFFFFFFFFF DUP2 GT PUSH2 0x19C JUMPI PUSH2 0x853 SWAP1 CALLDATASIZE SWAP1 PUSH1 0x4 ADD PUSH2 0x10F0 JUMP JUMPDEST SWAP2 PUSH2 0x869 PUSH1 0x1 DUP1 PUSH1 0xA0 SHL SUB PUSH1 0x1 SLOAD AND CALLER EQ PUSH2 0x1137 JUMP JUMPDEST PUSH2 0x871 PUSH2 0x118C JUMP JUMPDEST PUSH1 0x4 CALLDATALOAD PUSH1 0x0 MSTORE PUSH1 0x3 PUSH1 0x20 MSTORE PUSH1 0x40 PUSH1 0x0 KECCAK256 SWAP4 DUP5 SLOAD PUSH8 0xFFFFFFFFFFFFFFFF DUP2 AND DUP1 ISZERO ISZERO DUP1 PUSH2 0xF47 JUMPI JUMPDEST ISZERO PUSH2 0xF16 JUMPI TIMESTAMP LT PUSH2 0xEE5 JUMPI PUSH1 0x20 PUSH1 0xFF DUP9 AND LT ISZERO PUSH2 0xEAF JUMPI PUSH10 0xFFFF0000000000000000 NOT AND PUSH1 0x40 DUP8 SWAP1 SHL PUSH9 0xFF0000000000000000 AND OR PUSH10 0x1000000000000000000 OR DUP6 SSTORE PUSH1 0x1 DUP6 ADD SLOAD SWAP7 PUSH2 0x1F4 DUP9 ISZERO DUP2 DUP11 MUL DUP11 SWAP1 DIV DUP3 EQ OR ISZERO PUSH2 0x663 JUMPI PUSH2 0x2710 PUSH2 0x905 SWAP2 DUP11 MUL DIV DUP1 SWAP10 PUSH2 0x1172 JUMP JUMPDEST SWAP8 DUP1 PUSH2 0xE72 JUMPI JUMPDEST POP PUSH1 0x0 SWAP3 PUSH1 0x0 JUMPDEST DUP4 DUP2 LT PUSH2 0xD9D JUMPI POP PUSH1 0x0 SWAP4 PUSH1 0x0 JUMPDEST DUP4 DUP2 LT PUSH2 0xCBE JUMPI POP PUSH1 0x0 SWAP9 PUSH1 0x0 JUMPDEST DUP9 DUP2 LT PUSH2 0xB40 JUMPI POP DUP2 PUSH1 0x2 DUP11 ADD SSTORE DUP6 PUSH1 0x3 DUP11 ADD SSTORE DUP10 PUSH1 0x4 DUP11 ADD SSTORE PUSH2 0x157C SWAP5 DUP6 DUP13 MUL DUP13 ISZERO SWAP7 DUP14 DUP3 DIV EQ DUP8 OR ISZERO PUSH2 0x663 JUMPI PUSH2 0x2710 SWAP1 DIV SWAP2 DUP13 PUSH2 0xBB8 DUP1 DUP3 MUL SWAP2 DUP3 DIV EQ DUP9 OR ISZERO PUSH2 0x663 JUMPI PUSH2 0x2710 DUP15 SWAP2 DIV SWAP8 PUSH2 0x5DC SWAP2 DUP3 DUP2 MUL DIV DUP3 EQ OR ISZERO PUSH2 0x663 JUMPI PUSH2 0x2710 SWAP1 DUP15 MUL DIV SWAP11 DUP5 ISZERO PUSH2 0xB2C JUMPI JUMPDEST DUP9 ISZERO PUSH2 0xB18 JUMPI JUMPDEST PUSH1 0x0 SWAP14 DUP14 ISZERO PUSH2 0xB0D JUMPI JUMPDEST PUSH2 0x9C4 DUP16 PUSH2 0x9BF DUP16 PUSH2 0x9BF DUP14 DUP11 PUSH2 0x117F JUMP JUMPDEST PUSH2 0x117F JUMP JUMPDEST SWAP1 DUP1 DUP3 LT PUSH2 0xADF JUMPI JUMPDEST POP POP SWAP2 PUSH2 0xA47 SWAP14 SWAP15 DUP5 SWAP3 DUP14 PUSH1 0x7 DUP7 PUSH2 0xA3F SWAP9 PUSH1 0x5 PUSH2 0xA3F SWAP16 SWAP15 SWAP14 SWAP13 SWAP12 SWAP10 ADD SSTORE DUP12 PUSH1 0x6 DUP3 ADD SSTORE ADD SSTORE PUSH1 0xFF PUSH1 0x40 MLOAD SWAP2 AND DUP2 MSTORE DUP4 PUSH1 0x20 DUP3 ADD MSTORE DUP9 PUSH1 0x40 DUP3 ADD MSTORE DUP14 PUSH1 0x60 DUP3 ADD MSTORE PUSH32 0xE789E70B0C20C525714F306FAAA0BF5D2A79D0E4E56DBF9F51425A393CED9E58 PUSH1 0x80 PUSH1 0x4 CALLDATALOAD SWAP3 LOG2 PUSH1 0x4 CALLDATALOAD PUSH2 0x1275 JUMP JUMPDEST PUSH1 0x4 CALLDATALOAD PUSH2 0x1275 JUMP JUMPDEST DUP1 PUSH2 0xA73 JUMPI JUMPDEST PUSH1 0x1 PUSH32 0x9B779B17422D0DF92223018B32B4D1FA46E071723D6817E2486D003BECC55F00 SSTORE STOP JUMPDEST PUSH1 0x2 SLOAD PUSH2 0xAAB SWAP1 DUP3 SWAP1 PUSH1 0x1 PUSH1 0x1 PUSH1 0xA0 SHL SUB AND PUSH32 0x0 PUSH2 0x11CE JUMP JUMPDEST PUSH1 0x40 MLOAD SWAP1 DUP2 MSTORE PUSH32 0xA975A09ADFDE26F80B86FFF679053171394A831309CB05F28D7F35FC5F3DBCF7 PUSH1 0x20 PUSH1 0x4 CALLDATALOAD SWAP3 LOG2 DUP1 PUSH2 0xA4D JUMP JUMPDEST DUP14 SWAP11 SWAP10 SWAP9 SWAP8 SWAP7 SWAP5 SWAP3 SWAP6 SWAP4 SWAP16 SWAP2 PUSH2 0xAF4 SWAP2 PUSH2 0x1172 JUMP JUMPDEST PUSH2 0xAFD SWAP2 PUSH2 0x117F JUMP JUMPDEST SWAP14 SWAP2 SWAP4 SWAP1 SWAP3 SWAP5 SWAP6 SWAP7 SWAP8 SWAP9 CODESIZE PUSH2 0x9CD JUMP JUMPDEST SWAP12 SWAP14 POP PUSH1 0x0 SWAP12 PUSH2 0x9AD JUMP JUMPDEST SWAP7 PUSH2 0xB23 SWAP2 SWAP12 PUSH2 0x117F JUMP JUMPDEST SWAP10 PUSH1 0x0 SWAP7 PUSH2 0x9A3 JUMP JUMPDEST SWAP3 PUSH2 0xB37 SWAP2 SWAP8 PUSH2 0x117F JUMP JUMPDEST SWAP6 PUSH1 0x0 SWAP3 PUSH2 0x99C JUMP JUMPDEST SWAP10 SWAP12 SWAP7 SWAP3 SWAP11 SWAP6 SWAP2 SWAP9 SWAP5 SWAP1 SWAP8 SWAP4 PUSH1 0x4 CALLDATALOAD PUSH1 0x0 MSTORE PUSH1 0x4 PUSH1 0x20 MSTORE PUSH1 0x40 PUSH1 0x0 KECCAK256 PUSH2 0xB67 DUP13 DUP8 DUP8 PUSH2 0x124F JUMP JUMPDEST CALLDATALOAD PUSH1 0x0 MSTORE PUSH1 0x20 MSTORE PUSH1 0x40 PUSH1 0x0 KECCAK256 SWAP12 DUP13 SLOAD PUSH1 0xA0 MSTORE PUSH1 0x1 DUP1 PUSH1 0xA0 SHL SUB PUSH1 0xA0 MLOAD AND ISZERO PUSH2 0xC8F JUMPI PUSH1 0x1 DUP14 ADD SLOAD SWAP11 PUSH1 0xFF DUP13 PUSH1 0x8 SHR AND PUSH2 0xC60 JUMPI PUSH1 0x1F PUSH1 0xFF DUP14 AND DUP13 XOR DUP2 AND XOR PUSH1 0x80 MSTORE PUSH1 0x0 JUMPDEST PUSH1 0xFF PUSH1 0x80 MLOAD AND ISZERO PUSH2 0xBED JUMPI PUSH1 0xFF DUP1 DUP3 AND EQ PUSH2 0x663 JUMPI PUSH1 0xFF PUSH1 0x1 SWAP2 AND ADD SWAP11 PUSH1 0xFF PUSH1 0x0 NOT DUP2 PUSH1 0x80 MLOAD AND ADD GT PUSH2 0x663 JUMPI PUSH1 0x80 DUP1 MLOAD PUSH1 0xFF DUP2 AND PUSH1 0x0 NOT ADD AND SWAP1 MSTORE SWAP11 PUSH2 0xBAB JUMP JUMPDEST SWAP10 SWAP15 SWAP1 SWAP5 SWAP9 SWAP14 SWAP3 SWAP7 SWAP11 SWAP4 SWAP8 SWAP12 SWAP2 SWAP6 SWAP10 PUSH1 0xFF PUSH1 0x3 SWAP2 AND SUB PUSH2 0xC2E JUMPI PUSH1 0x1 SWAP3 DUP4 PUSH2 0x100 PUSH2 0xC27 SWAP5 PUSH2 0xFF00 NOT AND OR SWAP2 ADD SSTORE PUSH1 0xA0 MLOAD PUSH1 0xA0 SHR SWAP1 PUSH2 0x117F JUMP JUMPDEST SWAP11 ADD PUSH2 0x92F JUMP JUMPDEST PUSH1 0x40 MLOAD PUSH3 0x461BCD PUSH1 0xE5 SHL DUP2 MSTORE PUSH1 0x20 PUSH1 0x4 DUP3 ADD MSTORE PUSH1 0xA PUSH1 0x24 DUP3 ADD MSTORE PUSH10 0x3BB937B733903A34B2B9 PUSH1 0xB1 SHL PUSH1 0x44 DUP3 ADD MSTORE PUSH1 0x64 SWAP1 REVERT JUMPDEST PUSH1 0x40 MLOAD PUSH3 0x461BCD PUSH1 0xE5 SHL DUP2 MSTORE PUSH1 0x20 PUSH1 0x4 DUP3 ADD MSTORE PUSH1 0x7 PUSH1 0x24 DUP3 ADD MSTORE PUSH7 0x191D5C081D1A59 PUSH1 0xCA SHL PUSH1 0x44 DUP3 ADD MSTORE PUSH1 0x64 SWAP1 REVERT JUMPDEST PUSH1 0x40 MLOAD PUSH3 0x461BCD PUSH1 0xE5 SHL DUP2 MSTORE PUSH1 0x20 PUSH1 0x4 DUP3 ADD MSTORE PUSH1 0x7 PUSH1 0x24 DUP3 ADD MSTORE PUSH7 0x189859081D1A59 PUSH1 0xCA SHL PUSH1 0x44 DUP3 ADD MSTORE PUSH1 0x64 SWAP1 REVERT JUMPDEST SWAP8 SWAP1 SWAP5 SWAP6 SWAP9 SWAP2 SWAP10 SWAP3 SWAP7 PUSH1 0x4 SWAP12 SWAP5 SWAP12 CALLDATALOAD PUSH1 0x0 MSTORE PUSH1 0x4 PUSH1 0x20 MSTORE DUP11 PUSH2 0xCE6 DUP11 DUP11 PUSH1 0x40 PUSH1 0x0 KECCAK256 SWAP4 PUSH2 0x124F JUMP JUMPDEST CALLDATALOAD PUSH1 0x0 MSTORE PUSH1 0x20 MSTORE PUSH1 0x40 PUSH1 0x0 KECCAK256 SWAP10 DUP11 SLOAD SWAP13 DUP14 PUSH1 0x1 DUP1 PUSH1 0xA0 SHL SUB AND ISZERO PUSH2 0xC8F JUMPI PUSH1 0x1 DUP13 ADD SLOAD SWAP10 PUSH1 0xFF DUP12 PUSH1 0x8 SHR AND PUSH2 0xC60 JUMPI SWAP8 SWAP13 PUSH1 0x1F PUSH1 0xFF DUP13 AND DUP8 XOR DUP2 AND XOR SWAP9 SWAP1 PUSH1 0x0 JUMPDEST PUSH1 0xFF DUP12 AND ISZERO PUSH2 0xD5C JUMPI PUSH1 0xFF AND PUSH1 0xFF DUP2 EQ PUSH2 0x663 JUMPI PUSH1 0x1 ADD SWAP10 PUSH1 0xFF DUP1 DUP3 AND PUSH1 0x0 NOT ADD GT PUSH2 0x663 JUMPI PUSH1 0xFF DUP2 AND PUSH1 0x0 NOT ADD AND SWAP10 PUSH2 0xD27 JUMP JUMPDEST PUSH1 0x4 SWAP2 SWAP8 SWAP15 SWAP6 SWAP13 SWAP5 SWAP12 SWAP4 SWAP10 SWAP11 POP SWAP10 SWAP16 SWAP2 SWAP8 SWAP15 SWAP6 SWAP13 SWAP10 PUSH1 0xFF AND SUB PUSH2 0xC2E JUMPI PUSH1 0x1 SWAP4 DUP5 PUSH2 0x100 PUSH2 0xD96 SWAP6 PUSH2 0xFF00 NOT AND OR SWAP2 ADD SSTORE PUSH1 0xA0 SHR SWAP1 PUSH2 0x117F JUMP JUMPDEST SWAP6 ADD PUSH2 0x921 JUMP JUMPDEST SWAP6 SWAP9 SWAP1 SWAP8 PUSH1 0x4 SWAP11 SWAP3 SWAP4 SWAP5 SWAP11 CALLDATALOAD PUSH1 0x0 MSTORE PUSH1 0x4 PUSH1 0x20 MSTORE PUSH1 0x40 PUSH1 0x0 KECCAK256 PUSH2 0xDC1 DUP9 DUP8 DUP7 PUSH2 0x124F JUMP JUMPDEST CALLDATALOAD PUSH1 0x0 MSTORE PUSH1 0x20 MSTORE PUSH1 0x40 PUSH1 0x0 KECCAK256 SWAP8 DUP9 SLOAD SWAP11 PUSH1 0x1 DUP1 PUSH1 0xA0 SHL SUB DUP13 AND ISZERO PUSH2 0xC8F JUMPI PUSH1 0x1 DUP11 ADD SLOAD SWAP8 PUSH1 0xFF DUP10 PUSH1 0x8 SHR AND PUSH2 0xC60 JUMPI PUSH1 0x1F SWAP8 SWAP7 SWAP8 DUP1 DUP6 PUSH1 0xFF DUP13 AND XOR AND XOR SWAP7 PUSH1 0x0 SWAP8 JUMPDEST PUSH1 0xFF DUP2 AND SWAP9 DUP10 ISZERO PUSH2 0xE30 JUMPI PUSH1 0xFF AND PUSH1 0xFF DUP2 EQ PUSH2 0x663 JUMPI PUSH1 0x1 ADD SWAP9 PUSH1 0x0 NOT ADD SWAP1 PUSH1 0xFF DUP3 GT PUSH2 0x663 JUMPI AND PUSH2 0xE03 JUMP JUMPDEST SWAP8 SWAP16 SWAP4 SWAP12 SWAP10 SWAP8 SWAP7 SWAP15 SWAP3 SWAP11 SWAP5 SWAP13 SWAP6 SWAP14 SWAP7 PUSH1 0x5 SWAP3 SWAP10 POP PUSH1 0xFF SWAP2 POP AND SUB PUSH2 0xC2E JUMPI PUSH1 0x1 SWAP4 DUP5 PUSH2 0x100 PUSH2 0xE6B SWAP6 PUSH2 0xFF00 NOT AND OR SWAP2 ADD SSTORE PUSH1 0xA0 SHR SWAP1 PUSH2 0x117F JUMP JUMPDEST SWAP5 ADD PUSH2 0x913 JUMP JUMPDEST PUSH1 0x2 SLOAD PUSH2 0xEA9 SWAP2 SWAP1 PUSH1 0x1 PUSH1 0x1 PUSH1 0xA0 SHL SUB AND PUSH32 0x0 PUSH2 0x11CE JUMP JUMPDEST DUP10 PUSH2 0x90C JUMP JUMPDEST PUSH1 0x40 MLOAD PUSH3 0x461BCD PUSH1 0xE5 SHL DUP2 MSTORE PUSH1 0x20 PUSH1 0x4 DUP3 ADD MSTORE PUSH1 0xE PUSH1 0x24 DUP3 ADD MSTORE PUSH14 0x3130B2103932B9B7B63ABA34B7B7 PUSH1 0x91 SHL PUSH1 0x44 DUP3 ADD MSTORE PUSH1 0x64 SWAP1 REVERT JUMPDEST PUSH1 0x40 MLOAD PUSH3 0x461BCD PUSH1 0xE5 SHL DUP2 MSTORE PUSH1 0x20 PUSH1 0x4 DUP3 ADD MSTORE PUSH1 0x9 PUSH1 0x24 DUP3 ADD MSTORE PUSH9 0x746F6F206561726C79 PUSH1 0xB8 SHL PUSH1 0x44 DUP3 ADD MSTORE PUSH1 0x64 SWAP1 REVERT JUMPDEST PUSH1 0x40 MLOAD PUSH3 0x461BCD PUSH1 0xE5 SHL DUP2 MSTORE PUSH1 0x20 PUSH1 0x4 DUP3 ADD MSTORE PUSH1 0x9 PUSH1 0x24 DUP3 ADD MSTORE PUSH9 0x626164207374617465 PUSH1 0xB8 SHL PUSH1 0x44 DUP3 ADD MSTORE PUSH1 0x64 SWAP1 REVERT JUMPDEST POP PUSH1 0xFF DUP3 PUSH1 0x48 SHR AND ISZERO PUSH2 0x898 JUMP JUMPDEST CALLVALUE PUSH2 0x19C JUMPI PUSH1 0x0 CALLDATASIZE PUSH1 0x3 NOT ADD SLT PUSH2 0x19C JUMPI PUSH1 0x40 MLOAD PUSH32 0x0 PUSH1 0x1 PUSH1 0x1 PUSH1 0xA0 SHL SUB AND DUP2 MSTORE PUSH1 0x20 SWAP1 RETURN JUMPDEST CALLVALUE PUSH2 0x19C JUMPI PUSH1 0x40 CALLDATASIZE PUSH1 0x3 NOT ADD SLT PUSH2 0x19C JUMPI PUSH1 0x4 CALLDATALOAD PUSH1 0x24 CALLDATALOAD PUSH8 0xFFFFFFFFFFFFFFFF DUP1 DUP3 AND DUP1 SWAP3 SUB PUSH2 0x19C JUMPI PUSH2 0xFD9 PUSH1 0x1 DUP1 PUSH1 0xA0 SHL SUB PUSH1 0x1 SLOAD AND CALLER EQ PUSH2 0x1137 JUMP JUMPDEST DUP3 PUSH1 0x0 MSTORE PUSH1 0x3 PUSH1 0x20 MSTORE PUSH1 0x40 PUSH1 0x0 KECCAK256 SLOAD AND PUSH2 0x106B JUMPI TIMESTAMP DUP2 GT ISZERO PUSH2 0x1040 JUMPI PUSH1 0x20 PUSH32 0x7595A3BF45D01EF9254AE39F1EC19BE2262703373153BDE26E12A962B0532299 SWAP2 DUP4 PUSH1 0x0 MSTORE PUSH1 0x3 DUP3 MSTORE PUSH1 0x40 PUSH1 0x0 KECCAK256 DUP2 PUSH8 0xFFFFFFFFFFFFFFFF NOT DUP3 SLOAD AND OR SWAP1 SSTORE PUSH1 0x40 MLOAD SWAP1 DUP2 MSTORE LOG2 STOP JUMPDEST PUSH1 0x64 PUSH1 0x40 MLOAD PUSH3 0x461BCD PUSH1 0xE5 SHL DUP2 MSTORE PUSH1 0x20 PUSH1 0x4 DUP3 ADD MSTORE PUSH1 0x4 PUSH1 0x24 DUP3 ADD MSTORE PUSH4 0x1C185CDD PUSH1 0xE2 SHL PUSH1 0x44 DUP3 ADD MSTORE REVERT JUMPDEST PUSH1 0x40 MLOAD PUSH3 0x461BCD PUSH1 0xE5 SHL DUP2 MSTORE PUSH1 0x20 PUSH1 0x4 DUP3 ADD MSTORE PUSH1 0x6 PUSH1 0x24 DUP3 ADD MSTORE PUSH6 0x657869737473 PUSH1 0xD0 SHL PUSH1 0x44 DUP3 ADD MSTORE PUSH1 0x64 SWAP1 REVERT JUMPDEST CALLVALUE PUSH2 0x19C JUMPI PUSH1 0x20 CALLDATASIZE PUSH1 0x3 NOT ADD SLT PUSH2 0x19C JUMPI PUSH1 0x4 CALLDATALOAD PUSH1 0x0 MSTORE PUSH1 0x5 PUSH1 0x20 MSTORE PUSH1 0x20 PUSH1 0x40 PUSH1 0x0 KECCAK256 SLOAD PUSH1 0x40 MLOAD SWAP1 DUP2 MSTORE RETURN JUMPDEST CALLVALUE PUSH2 0x19C JUMPI PUSH1 0x0 CALLDATASIZE PUSH1 0x3 NOT ADD SLT PUSH2 0x19C JUMPI DUP1 PUSH2 0x5DC PUSH1 0x20 SWAP3 MSTORE RETURN JUMPDEST PUSH1 0x24 CALLDATALOAD SWAP1 PUSH1 0xFF DUP3 AND DUP3 SUB PUSH2 0x19C JUMPI JUMP JUMPDEST SWAP2 DUP2 PUSH1 0x1F DUP5 ADD SLT ISZERO PUSH2 0x19C JUMPI DUP3 CALLDATALOAD SWAP2 PUSH8 0xFFFFFFFFFFFFFFFF DUP4 GT PUSH2 0x19C JUMPI PUSH1 0x20 DUP1 DUP6 ADD SWAP5 DUP5 PUSH1 0x5 SHL ADD ADD GT PUSH2 0x19C JUMPI JUMP JUMPDEST PUSH1 0x40 SWAP1 PUSH1 0x3 NOT ADD SLT PUSH2 0x19C JUMPI PUSH1 0x4 CALLDATALOAD SWAP1 PUSH1 0x24 CALLDATALOAD SWAP1 JUMP JUMPDEST ISZERO PUSH2 0x113E JUMPI JUMP JUMPDEST PUSH1 0x40 MLOAD PUSH3 0x461BCD PUSH1 0xE5 SHL DUP2 MSTORE PUSH1 0x20 PUSH1 0x4 DUP3 ADD MSTORE PUSH1 0xC PUSH1 0x24 DUP3 ADD MSTORE PUSH12 0x3737BA1037B832B930BA37B9 PUSH1 0xA1 SHL PUSH1 0x44 DUP3 ADD MSTORE PUSH1 0x64 SWAP1 REVERT JUMPDEST SWAP2 SWAP1 DUP3 SUB SWAP2 DUP3 GT PUSH2 0x663 JUMPI JUMP JUMPDEST SWAP2 SWAP1 DUP3 ADD DUP1 SWAP3 GT PUSH2 0x663 JUMPI JUMP JUMPDEST PUSH32 0x9B779B17422D0DF92223018B32B4D1FA46E071723D6817E2486D003BECC55F00 PUSH1 0x2 DUP2 SLOAD EQ PUSH2 0x11BC JUMPI PUSH1 0x2 SWAP1 SSTORE JUMP JUMPDEST PUSH1 0x40 MLOAD PUSH4 0x3EE5AEB5 PUSH1 0xE0 SHL DUP2 MSTORE PUSH1 0x4 SWAP1 REVERT JUMPDEST PUSH1 0x40 MLOAD PUSH4 0xA9059CBB PUSH1 0xE0 SHL PUSH1 0x0 SWAP1 DUP2 MSTORE PUSH1 0x1 PUSH1 0x1 PUSH1 0xA0 SHL SUB SWAP4 DUP5 AND PUSH1 0x4 MSTORE PUSH1 0x24 SWAP5 SWAP1 SWAP5 MSTORE SWAP3 PUSH1 0x20 SWAP1 PUSH1 0x44 DUP2 DUP1 DUP6 GAS CALL PUSH1 0x1 PUSH1 0x0 MLOAD EQ DUP2 AND ISZERO PUSH2 0x122F JUMPI JUMPDEST DUP4 PUSH1 0x40 MSTORE ISZERO PUSH2 0x1219 JUMPI POP POP POP JUMP JUMPDEST PUSH4 0x5274AFE7 PUSH1 0xE0 SHL DUP4 MSTORE AND PUSH1 0x4 DUP3 ADD MSTORE PUSH1 0x24 SWAP2 POP REVERT JUMPDEST PUSH1 0x1 DUP2 ISZERO AND PUSH2 0x1245 JUMPI DUP2 EXTCODESIZE ISZERO ISZERO RETURNDATASIZE ISZERO AND AND PUSH2 0x120B JUMP JUMPDEST DUP4 RETURNDATASIZE PUSH1 0x0 DUP3 RETURNDATACOPY RETURNDATASIZE SWAP1 REVERT JUMPDEST SWAP2 SWAP1 DUP2 LT ISZERO PUSH2 0x125F JUMPI PUSH1 0x5 SHL ADD SWAP1 JUMP JUMPDEST PUSH4 0x4E487B71 PUSH1 0xE0 SHL PUSH1 0x0 MSTORE PUSH1 0x32 PUSH1 0x4 MSTORE PUSH1 0x24 PUSH1 0x0 REVERT JUMPDEST DUP4 ISZERO SWAP5 SWAP3 SWAP4 SWAP3 SWAP2 DUP6 DUP1 ISZERO PUSH2 0x13FC JUMPI JUMPDEST PUSH2 0x13F4 JUMPI PUSH1 0x0 SWAP1 PUSH1 0x0 JUMPDEST DUP7 DUP2 LT PUSH2 0x129F JUMPI POP POP POP POP POP POP POP POP JUMP JUMPDEST DUP4 PUSH1 0x0 MSTORE PUSH1 0x4 SWAP3 PUSH1 0x20 SWAP1 DUP5 DUP3 MSTORE PUSH1 0x40 SWAP2 DUP3 PUSH1 0x0 KECCAK256 PUSH2 0x12BE DUP6 DUP13 DUP9 PUSH2 0x124F JUMP JUMPDEST CALLDATALOAD PUSH1 0x0 MSTORE DUP2 MSTORE DUP3 PUSH1 0x0 KECCAK256 SWAP2 DUP3 SLOAD SWAP7 DUP8 PUSH1 0xA0 SHR DUP14 DUP2 DUP14 MUL SWAP2 DUP14 DUP4 DIV EQ OR ISZERO PUSH2 0x13DF JUMPI DUP11 ISZERO PUSH2 0x13CA JUMPI DUP11 SWAP1 DIV SWAP1 PUSH1 0x0 NOT DUP14 ADD SWAP1 DUP14 DUP3 GT PUSH2 0x13B5 JUMPI POP SWAP3 DUP10 SWAP3 PUSH32 0xB3EC26F90E981D944F630DD197D3E82BE1B23A68D8668ECED0AF40810E8EC89B SWAP3 DUP9 DUP16 DUP16 DUP3 SWAP11 SWAP10 SWAP9 PUSH1 0x1 SWAP13 EQ PUSH2 0x139A JUMPI JUMPDEST POP PUSH2 0x133B DUP4 PUSH2 0x134B SWAP5 SWAP6 PUSH2 0x117F JUMP JUMPDEST SWAP13 DUP5 DUP1 PUSH2 0x1362 JUMPI JUMPDEST POP POP DUP12 PUSH2 0x124F JUMP JUMPDEST CALLDATALOAD SWAP5 DUP9 DUP1 PUSH1 0xA0 SHL SUB SWAP1 SLOAD AND SWAP6 MLOAD SWAP1 DUP2 MSTORE LOG4 ADD PUSH2 0x128E JUMP JUMPDEST PUSH2 0x1393 SWAP2 DUP14 DUP1 PUSH1 0xA0 SHL SUB AND PUSH32 0x0 PUSH2 0x11CE JUMP JUMPDEST CODESIZE DUP5 PUSH2 0x1343 JUMP JUMPDEST PUSH2 0x134B SWAP4 POP PUSH2 0x13AC DUP6 PUSH2 0x133B SWAP3 PUSH2 0x1172 JUMP JUMPDEST SWAP4 POP POP DUP16 PUSH2 0x132C JUMP JUMPDEST PUSH1 0x11 SWAP1 PUSH4 0x4E487B71 PUSH1 0xE0 SHL PUSH1 0x0 MSTORE MSTORE PUSH1 0x24 PUSH1 0x0 REVERT JUMPDEST PUSH1 0x12 DUP3 PUSH4 0x4E487B71 PUSH1 0xE0 SHL PUSH1 0x0 MSTORE MSTORE PUSH1 0x24 PUSH1 0x0 REVERT JUMPDEST PUSH1 0x11 DUP3 PUSH4 0x4E487B71 PUSH1 0xE0 SHL PUSH1 0x0 MSTORE MSTORE PUSH1 0x24 PUSH1 0x0 REVERT JUMPDEST POP POP POP POP POP POP JUMP JUMPDEST POP DUP3 ISZERO PUSH2 0x1284 JUMP JUMPDEST PUSH1 0x0 SLOAD PUSH1 0x1 PUSH1 0x1 PUSH1 0xA0 SHL SUB AND CALLER SUB PUSH2 0x1418 JUMPI JUMP JUMPDEST PUSH1 0x40 MLOAD PUSH4 0x118CDAA7 PUSH1 0xE0 SHL DUP2 MSTORE CALLER PUSH1 0x4 DUP3 ADD MSTORE PUSH1 0x24 SWAP1 REVERT INVALID LOG2 PUSH5 0x6970667358 0x22 SLT KECCAK256 PUSH0 0xD1 0xB0 0x2A 0xB8 PUSH29 0x7E444D9B6065E9794A2027AA12107F011B4EFB7563D0716C154364736F PUSH13 0x63430008180033000000000000 "},"methodIdentifiers":{"BPS_DENOMINATOR()":"e1a45218","PICKS_MASK()":"bb369f90","RAKE_BPS()":"e9a892c0","TIER_3_BPS()":"020183d8","TIER_4_BPS()":"958e097c","TIER_5_BPS()":"d746d283","createMarket(uint256,uint64)":"3c8773a8","getMarket(uint256)":"eb44fdd3","getTicket(uint256,uint256)":"a426e4c8","markets(uint256)":"b1283e77","operator()":"570ca735","owner()":"8da5cb5b","placeTicket(uint256,uint8,uint256)":"6e0d5c40","renounceOwnership()":"715018a6","setOperator(address)":"b3ab15fb","setTreasury(address)":"f0f44260","settleAndPayout(uint256,uint8,uint256[],uint256[],uint256[])":"4f88eb6d","ticketCount(uint256)":"0c63f832","tickets(uint256,uint256)":"a374e43f","transferOwnership(address)":"f2fde38b","treasury()":"61d027b3","usdc()":"3e413bee"}}}}}